:020000040800F2
:1000000000000220550B0008A50B0008A50B0008F6
:10001000A50B0008A50B0008A50B000800000000B8
:10002000000000000000000000000000A50B000818
:100030000000000000000000A50B0008A50B000850
:10004000A50B0008A50B0008A50B0008A50B0008D0
:1000500000000000A50B0008A50B0008A50B000878
:10006000A50B0008A50B0008A50B0008A50B0008B0
:10007000A50B0008A50B0008A50B0008A50B0008A0
:10008000A50B0008A50B0008A50B0008A50B000890
:10009000A50B0008A50B0008A50B0008A50B000880
:1000A000A50B0008A50B0008A50B0008A50B000870
:1000B000A50B0008A50B0008A50B0008A50B000860
:1000C000A50B0008A50B0008A50B0008A50B000850
:1000D000A50B0008A50B0008A50B0008A50B000840
:1000E000A50B0008A50B0008A50B0008A50B000830
:1000F000A50B0008A50B0008A50B0008A50B000820
:10010000A50B0008A50B0008A50B0008A50B00080F
:10011000A50B0008A50B0008A50B0008A50B0008FF
:10012000A50B0008A50B0008A50B0008A50B0008EF
:10013000A50B0008A50B0008A50B0008A50B0008DF
:10014000A50B0008A50B0008A50B0008A50B0008CF
:10015000A50B0008A50B0008A50B0008A50B0008BF
:10016000A50B0008A50B0008A50B0008A50B0008AF
:10017000A50B0008A50B0008A50B0008A50B00089F
:08018000A50B0008A50B000807
:1001880010B5054C237833B9044B13B10448AFF3C9
:1001980000800123237010BD18000020000000001B
:1001A800A80B000808B5034B1BB103490348AFF37C
:1001B800008008BD000000001C000020A80B0008FB
:1001C80070B50D4D0D4C641BA4100026A64209D134
:1001D8000B4D0C4C00F0E4FC641BA4100026A64256
:1001E80005D170BD55F8043B98470136EEE755F840
:1001F800043B98470136F2E7C00B0008C00B000823
:10020800C00B0008C80B000870477047024B13B1B9
:10021800024800F005B870470000000035020008E9
:10022800002301461A46184600F014B838B5074DA1
:10023800074C641BA4101CB9BDE8384000F0B6BCDC
:10024800013C55F824309847F5E700BFC80B000873
:10025800CC0B00082DE9F047DFF874A00646DAF861
:10026800000098460F469146FFF7CEFF164B1C68D4
:100278000CB9164C1C606568DAF800001F2D05DD06
:10028800FFF7C3FF4FF0FF30BDE8F0879EB104EBE6
:1002980085010122C1F88890D4F88831AA40134317
:1002A800C4F88831022EC1F8088102BFD4F88C3115
:1002B8001343C4F88C316B1C0235636044F8257015
:1002C800FFF7A3FF0020DFE7380000203C000020F4
:1002D8000000002080B483B000AF0346FB71074BD9
:1002E8001B681968FA79054B1B680A431A6000BF36
:1002F8000C37BD465DF8047B704700BF0400002042
:1003080080B582B000AF7860084611461A460346A9
:10031800FB700B46BB7013467B70FA78BB781946A6
:10032800786800F01FF8FA787B781946786800F04A
:1003380031F8FA783B7C1946786800F042F8FA7888
:100348003B7D1946786800F054F8BB78022B05D13C
:100358003A7EFB781946786800F088F800BF0837BD
:10036800BD4680BD80B483B000AF78600B46FB709B
:100378001346BB707B681B68F978BA78520001FA9B
:1003880002F21A437B681A6000BF0C37BD465DF85D
:10039800047B704780B483B000AF78600B46FB7075
:1003A8001346BB707B685B68F978BA7801FA02F289
:1003B8001A437B685A6000BF0C37BD465DF8047B62
:1003C800704780B483B000AF78600B46FB7013466B
:1003D800BB707B689B68F978BA78520001FA02F220
:1003E8001A437B689A6000BF0C37BD465DF8047BF2
:1003F800704780B483B000AF78600B46FB7013463B
:10040800BB707B68DB68F978BA78520001FA02F2AF
:100418001A437B68DA6000BF0C37BD465DF8047B81
:10042800704780B483B000AF78600B46FB7013460A
:10043800BB70FB78012B09D17B689B69BA780121D5
:1004480001FA02F21A437B689A6109E07B689B69AA
:10045800BA781032012101FA02F21A437B689A61D4
:1004680000BF0C37BD465DF8047B704780B483B08D
:1004780000AF78600B46FB701346BB70FB78072B08
:100488000AD87B681B6AB978FA78920001FA02F2F6
:100498001A437B681A620DE0FB7803F00703FB70D0
:1004A8007B685B6AB978FA78920001FA02F21A431B
:1004B8007B685A6200BF0C37BD465DF8047B704705
:1004C80080B483B000AF78600B46FB70FB78012BDB
:1004D80006D17B681B6843F001027B681A6005E05F
:1004E8007B681B6823F001027B681A6000BF0C3729
:1004F800BD465DF8047B704780B483B000AF786078
:100508000B46FB70FB78012B02D80223FB7004E03A
:10051800FB78312B01D93223FB707B685A68FB7852
:100528001A437B685A6000BF0C37BD465DF8047BF0
:10053800704780B487B000AF786039607B685B68CB
:1005480003F03F037B617B694FF4FA7203FB02F20D
:100558003B68B2FBF3F33B610023FB607B68DA691D
:100568003B691A437B68DA617B690133FB607B680E
:10057800FA681A6200BF1C37BD465DF8047B7047F5
:1005880080B485B000AFF8607A601A460B46FB72FB
:100598001346BB72FB681B6843F48072FB681A60E1
:1005A80000BFFB685B6903F00103002BF9D0FB680F
:1005B8005B69FB7A5A00FB681A6100BFFB685B69DC
:1005C80003F00203002BF9D0FB685B69FB689B69A9
:1005D8000DE000BFFB685B6903F08003002BF9D0D6
:1005E8007B685A1C7A601B781A46FB681A61BB7ACA
:1005F8005A1EBA72002BECD100BFFB685B6903F08E
:100608008003002BF9D000BFFB685B6903F004038B
:10061800002BF9D0FB681B6843F40072FB681A6072
:1006280000BF1437BD465DF8047B704780B483B0C3
:1006380000AF0346FB71FB79022B18D0022B1FDC9D
:10064800002B02D0012B09D01AE0114B1B681A6845
:100658000F4B1B6842F001021A6012E00C4B1B683A
:100668001A680B4B1B6842F480321A6009E0084B89
:100678001B681A68064B1B6842F080721A6000E01B
:1006880000BF00BF0C37BD465DF8047B704700BF54
:100698000800002080B483B000AF0346FB71FB79EB
:1006A800022B18D0022B1FDC002B02D0012B09D003
:1006B8001AE000BF104B1B681B6803F00203002BF5
:1006C800F8D012E000BF0C4B1B681B6803F4003322
:1006D800002BF8D009E000BF074B1B681B6803F02C
:1006E8000073002BF8D000E000BF00BF0C37BD46F8
:1006F8005DF8047B704700BF0800002080B483B019
:1007080000AF0346FB710C4B1B689968FA790A4BDA
:100718001B680A439A6000BF074B1B689B689B08CD
:1007280003F00302FB799A42F6D100BF00BF0C37F1
:10073800BD465DF8047B70470800002080B483B094
:1007480000AF03460A46FB711346BB71BB79012B08
:100758000CD1104B1B681A6BFB79012101FA03F3CA
:1007680019460C4B1B680A431A630CE0094B1B68BB
:100778001A6BFB79012101FA03F3DB431946054B98
:100788001B680A401A6300BF0C37BD465DF8047B3E
:10079800704700BF0800002080B483B000AF034654
:1007A8000A46FB711346BB71BB79012B0CD1104B68
:1007B8001B681A6CFB79012101FA03F319460C4BEB
:1007C8001B680A431A640CE0094B1B681A6CFB7916
:1007D800012101FA03F3DB431946054B1B680A4064
:1007E8001A6400BF0C37BD465DF8047B704700BF34
:1007F8000800002090B482B000AF044608461146B5
:100808001A462346FB710346BB710B46BB80134651
:10081800FB70174B1B685B68154B1B6800225A60FE
:10082800134B1B685968FB799A05114B1B680A43DF
:100838005A600F4B1B685968BA790D4B1B680A43FD
:100848005A600B4B1B685968BB889A01084B1B6898
:100858000A435A60064B1B685968FB781A04044B14
:100868001B680A435A6000BF0837BD4690BC7047F2
:100878000800002080B400AF0A4B1B689A68094B37
:100888001B6842F400429A60064B1B689A68054B45
:100898001B6842F4A0529A6000BFBD465DF8047B15
:1008A800704700BF0800002080B483B000AF7860B4
:1008B8007B6800225A627B681B6843F001027B68F0
:1008C8001A6000BF0C37BD465DF8047B704780B4E2
:1008D80083B000AF78607B681B6823F001027B68F7
:1008E8001A6000BF0C37BD465DF8047B704780B4C2
:1008F80083B000AF78600B467B807A887B689A6209
:1009080000BF0C37BD465DF8047B704780B483B0E8
:1009180000AF78600B467B807A887B68DA6200BF1C
:100928000C37BD465DF8047B7047000080B584B085
:1009380000AF7860134B1B681846FFF7B5FF00231C
:10094800FB6012E00F4B1B681A690E4B1B6822F004
:1009580001021A6100BF0B4B1B681B6903F00103FE
:10096800002BF8D0FB680133FB60FA687B689A4279
:10097800E8D3044B1B681846FFF7A9FF00BF1037E0
:10098800BD4680BD0C00002080B500AF00F008F81F
:1009980000F096F800F0A4F800F040F800BF80BD21
:1009A80080B500AF00F034F80023A822042101200C
:1009B800FFF720FF0120FFF739FE0120FFF76AFE4D
:1009C8000520FFF787FC0220FFF730FE0220FFF723
:1009D80061FE0220FFF792FE00F002F800BF80BD22
:1009E80080B500AF01210120FFF7A8FE01211520E5
:1009F800FFF7D2FE01210220FFF7A0FE012103200C
:100A0800FFF79CFE01210420FFF7C6FE00BF80BD52
:100A180080B500AFFFF72EFF00BF80BD80B584B062
:100A280004AF0023029300230193002300930023C3
:100A380001220C212048FFF763FC002302930023C6
:100A4800019300230093002301220D211A48FFF788
:100A580057FC0023029300230193002300930023F3
:100A680001220E211448FFF74BFC002302930023B8
:100A7800019300230093002301220F210E48FFF762
:100A88003FFC0423029301230193002300930123D5
:100A9800022208210948FFF733FC042302930123AB
:100AA8000193002300930123022207210348FFF743
:100AB80027FC00BFBD4680BD000C02400004024078
:100AC80080B500AF53210548FFF711FF40F2E73129
:100AD8000248FFF71BFF00BF80BD00BF00100040A9
:100AE80080B500AF2A210648FFF706FD64210448B7
:100AF800FFF71FFD01210248FFF7E2FC00BF80BDA0
:100B08000054004080B500AFFFF73EFF05230C4AB4
:100B180027210C48FFF734FD0C2201210A48FFF772
:100B280080FC4FF4FA70FFF701FF0C220021064801
:100B3800FFF777FC4FF4FA70FFF7F8FE00BFEBE71A
:100B48001000002000540040000C02400D4885466B
:100B5800AFF300800C480D490D4A002302E0D45839
:100B6800C4500433C4188C42F9D30A4A0A4C0023EF
:100B780001E013600432A242FBD3FFF721FBFFF729
:100B8800C1FFFEE70000022000000020180000203E
:100B9800CC0B000818000020CC010020FEE7000064
:100BA800F8B500BFF8BC08BC9E467047F8B500BF52
:080BB800F8BC08BC9E46704722
:080BC00015020008AD01000858
:040BC8008901000897
:100BCC0034000020003C024000380240001000407D
:080BDC00010203040500000002
:0400000508000B558F
:00000001FF
