:020000040800F2
:1000000000000220E90E0008390F0008390F00082F
:10001000390F0008390F0008390F000800000000F0
:10002000000000000000000000000000390F000880
:100030000000000000000000390F0008390F000820
:10004000390F0008390F0008390F0008390F000870
:1000500000000000390F0008390F0008390F0008B0
:10006000390F0008390F0008390F0008390F000850
:10007000390F0008390F0008390F0008390F000840
:10008000390F0008390F0008390F0008390F000830
:10009000390F0008390F0008390F0008390F000820
:1000A000390F0008390F0008390F0008390F000810
:1000B000390F0008390F0008390F0008390F000800
:1000C000390F0008390F0008390F0008390F0008F0
:1000D000390F0008390F0008390F0008390F0008E0
:1000E000390F0008390F0008390F0008390F0008D0
:1000F000390F0008390F0008390F0008390F0008C0
:10010000390F0008390F0008390F0008390F0008AF
:10011000390F0008390F0008390F0008390F00089F
:10012000390F0008390F0008390F0008390F00088F
:10013000390F0008390F0008390F0008390F00087F
:10014000390F0008390F0008390F0008390F00086F
:10015000390F0008390F0008390F0008390F00085F
:10016000390F0008390F0008390F0008390F00084F
:10017000390F0008390F0008390F0008390F00083F
:08018000390F0008390F0008D7
:1001880010B5054C237833B9044B13B10448AFF3C9
:1001980000800123237010BD5C00002000000000D7
:1001A8003C0F000808B5034B1BB103490348AFF3E4
:1001B800008008BD00000000600000203C0F00081F
:1001C80070B50D4D0D4C641BA4100026A64209D134
:1001D8000B4D0C4C00F0AEFE641BA4100026A6428A
:1001E80005D170BD55F8043B98470136EEE755F840
:1001F800043B98470136F2E7840F0008840F000893
:10020800840F00088C0F000870477047024B13B129
:10021800024800F005B870470000000035020008E9
:10022800002301461A46184600F014B838B5074DA1
:10023800074C641BA4101CB9BDE8384000F080BE10
:10024800013C55F824309847F5E700BF8C0F0008AB
:10025800900F00082DE9F047DFF874A00646DAF899
:10026800000098460F469146FFF7CEFF164B1C68D4
:100278000CB9164C1C606568DAF800001F2D05DD06
:10028800FFF7C3FF4FF0FF30BDE8F0879EB104EBE6
:1002980085010122C1F88890D4F88831AA40134317
:1002A800C4F88831022EC1F8088102BFD4F88C3115
:1002B8001343C4F88C316B1C0235636044F8257015
:1002C800FFF7A3FF0020DFE77C000020800000206C
:1002D8000000002080B483B000AF0346FB71074BD9
:1002E8001B681968FA79054B1B680A431A6000BF36
:1002F8000C37BD465DF8047B704700BF0400002042
:1003080080B582B000AF7860084611461A460346A9
:10031800FB700B46BB7013467B70FA78BB781946A6
:10032800786800F01FF8FA787B781946786800F04A
:1003380031F8FA783B7C1946786800F042F8FA7888
:100348003B7D1946786800F054F8BB78022B05D13C
:100358003A7EFB781946786800F088F800BF0837BD
:10036800BD4680BD80B483B000AF78600B46FB709B
:100378001346BB707B681B68F978BA78520001FA9B
:1003880002F21A437B681A6000BF0C37BD465DF85D
:10039800047B704780B483B000AF78600B46FB7075
:1003A8001346BB707B685B68F978BA7801FA02F289
:1003B8001A437B685A6000BF0C37BD465DF8047B62
:1003C800704780B483B000AF78600B46FB7013466B
:1003D800BB707B689B68F978BA78520001FA02F220
:1003E8001A437B689A6000BF0C37BD465DF8047BF2
:1003F800704780B483B000AF78600B46FB7013463B
:10040800BB707B68DB68F978BA78520001FA02F2AF
:100418001A437B68DA6000BF0C37BD465DF8047B81
:10042800704780B483B000AF78600B46FB7013460A
:10043800BB70FB78012B09D17B689B69BA780121D5
:1004480001FA02F21A437B689A6109E07B689B69AA
:10045800BA781032012101FA02F21A437B689A61D4
:1004680000BF0C37BD465DF8047B704780B483B08D
:1004780000AF78600B46FB701346BB70FB78072B08
:100488000AD87B681B6AB978FA78920001FA02F2F6
:100498001A437B681A620DE0FB7803F00703FB70D0
:1004A8007B685B6AB978FA78920001FA02F21A431B
:1004B8007B685A6200BF0C37BD465DF8047B704705
:1004C80080B483B000AF78600B46FB70FB78012BDB
:1004D80006D17B681B6843F001027B681A6005E05F
:1004E8007B681B6823F001027B681A6000BF0C3729
:1004F800BD465DF8047B704780B483B000AF786078
:100508000B46FB70FB78012B02D80223FB7004E03A
:10051800FB78312B01D93223FB707B685A68FB7852
:100528001A437B685A6000BF0C37BD465DF8047BF0
:10053800704780B487B000AF786039607B685B68CB
:1005480003F03F037B617B694FF4FA7203FB02F20D
:100558003B68B2FBF3F33B610023FB607B68DA691D
:100568003B691A437B68DA617B690133FB607B680E
:10057800FA681A6200BF1C37BD465DF8047B7047F5
:1005880080B483B000AF78600B46FB701346BB7035
:100598007B681B6843F480727B681A6000BF7B68C5
:1005A8005B6903F00103002BF9D07B685B69FB787A
:1005B8005A007B681A6100BF7B685B6903F002031D
:1005C800002BF9D07B685B697B689B6900BF7B68FF
:1005D8005B6903F08003002BF9D0BA787B681A6155
:1005E80000BF7B685B6903F08003002BF9D000BF74
:1005F8007B685B6903F00403002BF9D07B681B68F8
:1006080043F400727B681A6000BF0C37BD465DF882
:10061800047B704780B483B000AF0346FB71FB795D
:10062800022B18D0022B1FDC002B02D0012B09D083
:100638001AE0114B1B681A680F4B1B6842F0010245
:100648001A6012E00C4B1B681A680B4B1B6842F4CB
:1006580080321A6009E0084B1B681A68064B1B6851
:1006680042F080721A6000E000BF00BF0C37BD4640
:100678005DF8047B704700BF0800002080B483B099
:1006880000AF0346FB71FB79022B18D0022B1FDC4D
:10069800002B02D0012B09D01AE000BF104B1B68B9
:1006A8001B6803F00203002BF8D012E000BF0C4BCC
:1006B8001B681B6803F40033002BF8D009E000BF67
:1006C800074B1B681B6803F00073002BF8D000E091
:1006D80000BF00BF0C37BD465DF8047B704700BF04
:1006E8000800002080B483B000AF0346FB710C4BB8
:1006F8001B689968FA790A4B1B680A439A6000BF1D
:10070800074B1B689B689B0803F00302FB799A421E
:10071800F6D100BF00BF0C37BD465DF8047B7047BB
:100728000800002080B483B000AF03460A46FB717E
:100738001346BB71BB79012B0CD1104B1B681A6B8C
:10074800FB79012101FA03F319460C4B1B680A4394
:100758001A630CE0094B1B681A6BFB79012101FA3B
:1007680003F3DB431946054B1B680A401A6300BFB5
:100778000C37BD465DF8047B704700BF08000020B9
:1007880080B483B000AF03460A46FB711346BB71C1
:10079800BB79012B0CD1104B1B681A6CFB7901211A
:1007A80001FA03F319460C4B1B680A431A640CE060
:1007B800094B1B681A6CFB79012101FA03F3DB432F
:1007C8001946054B1B680A401A6400BF0C37BD4622
:1007D8005DF8047B704700BF0800002090B482B029
:1007E80000AF0446084611461A462346FB710346E5
:1007F800BB710B46BB801346FB70174B1B685B68CD
:10080800154B1B6800225A60134B1B685968FB790B
:100818009A05114B1B680A435A600F4B1B685968AD
:10082800BA790D4B1B680A435A600B4B1B68596811
:10083800BB889A01084B1B680A435A60064B1B6821
:100848005968FB781A04044B1B680A435A6000BFB6
:100858000837BD4690BC70470800002080B400AF40
:100868000A4B1B689A68094B1B6842F400429A605D
:10087800064B1B689A68054B1B6842F4A0529A60A5
:1008880000BFBD465DF8047B704700BF080000202C
:1008980080B483B000AF78607B6800225A627B68BE
:1008A8001B6843F001027B681A6000BF0C37BD4625
:1008B8005DF8047B704780B483B000AF78607B68D4
:1008C8001B6823F001027B681A6000BF0C37BD4625
:1008D8005DF8047B704780B483B000AF78600B4646
:1008E8007B807A887B689A6200BF0C37BD465DF8CA
:1008F800047B704780B483B000AF78600B467B8080
:100908007A887B68DA6200BF0C37BD465DF8047BE5
:100918007047000080B584B000AF7860134B1B6847
:100928001846FFF7B5FF0023FB6012E00F4B1B686A
:100938001A690E4B1B6822F001021A6100BF0B4BAB
:100948001B681B6903F00103002BF8D0FB68013317
:10095800FB60FA687B689A42E8D3044B1B68184628
:10096800FFF7A9FF00BF1037BD4680BD0C0000206F
:1009780080B500AF00F008F800F096F800F0A4F891
:1009880000F040F800BF80BD80B500AF00F034F83B
:100998000023A82204210120FFF720FF0120FFF7F0
:1009A80039FE0120FFF76AFE0520FFF793FC0220BD
:1009B800FFF730FE0220FFF761FE0220FFF792FEEC
:1009C80000F002F800BF80BD80B500AF0121012012
:1009D800FFF7A8FE01211520FFF7D2FE0121022012
:1009E800FFF7A0FE01210320FFF79CFE0121042050
:1009F800FFF7C6FE00BF80BD80B500AFFFF72EFF32
:100A080000BF80BD80B584B004AF002302930023EB
:100A1800019300230093002301220C212048FFF7B3
:100A28006FFC00230293002301930023009300230B
:100A380001220D211A48FFF763FC002302930023CB
:100A4800019300230093002301220E211448FFF78D
:100A580057FC0023029300230193002300930023F3
:100A680001220F210E48FFF74BFC042302930123B8
:100A78000193002300930123022208210948FFF76C
:100A88003FFC0423029301230193002300930123D5
:100A9800022207210348FFF733FC00BFBD4680BD93
:100AA800000C02400004024080B500AF5321054805
:100AB800FFF711FF40F2E7310248FFF71BFF00BFC5
:100AC80080BD00BF0010004080B500AF2A21064855
:100AD800FFF712FD64210448FFF72BFD01210248AE
:100AE800FFF7EEFC00BF80BD0054004080B500AFAA
:100AF8001020FFF70FFF032227215C4800F0CEF8F3
:100B08000620FFF707FF03222721584800F0C6F800
:100B18000120FFF7FFFE03222721544800F0BEF80A
:100B28000220FFF7F7FE02222721504800F0B6F80E
:100B38000220FFF7EFFE022227214C4800F0AEF812
:100B48000C222721494800F0A9F80220FFF7E2FE0D
:100B580000222721454800F0A1F808222721434810
:100B680000F09CF80220FFF7D5FE002227213F481D
:100B780000F094F8012227213C4800F08FF8022069
:100B8800FFF7C8FE00222721384800F087F8062220
:100B98002721364800F082F80220FFF7BBFE00222A
:100BA8002721324800F07AF80C2227212F4800F03C
:100BB80075F802232E4A27212C4800F092F80223C8
:100BC8002C4A2721294800F08CF802232A4A272199
:100BD800264800F086F80223284A2721234800F0F7
:100BE80080F80223264A2721204800F07AF80223B9
:100BF800244A27211D4800F074F80223224A27219D
:100C08001A4800F06EF802231F4A2721174800F0FF
:100C180068F802231D4A2721144800F062F80223CD
:100C28001A4A2721114800F05CF80223184A2721A4
:100C38000E4800F056F80223164A27210B4800F008
:100C480050F80223114A2721084800F04AF80223E5
:100C58000E4A2721054800F044F802230E4A2721AE
:100C6800024800F03EF800BF80BD00BF00540040BD
:100C78004800002044000020500000204C000020C4
:100C88005800002054000020100000201C00002004
:100C980014000020200000201800002080B584B037
:100CA80000AF78600B46FB701346BB70BB781B0126
:100CB8005BB243F00C035BB2FB73FA7BFB7819461B
:100CC8007868FFF75DFCFB7B23F00403FB73FA7B7A
:100CD800FB7819467868FFF753FC00BF1037BD460C
:100CE80080BD80B586B000AFF8607A601A460B46C2
:100CF800FB721346BB7219E07B685A1C7A601B783A
:100D08001B015BB243F00D035BB2FB75FA7DFB7A06
:100D18001946F868FFF734FCFB7D23F00403FB75E4
:100D2800FA7DFB7A1946F868FFF72AFCBB7A5A1E47
:100D3800BA72002BE0D100BF00BF1837BD4680BD96
:100D4800B0B58EB000AF0346FB710B46BB711346BE
:100D58007B71234B07F110041D460FCD0FC40FCD37
:100D68000FC495E8030084E803001E4A07F108034E
:100D780092E8030083E80300082227211A48FFF7B6
:100D88008DFF072227211848FFF788FF7B79174A2C
:100D9800A2FB03235B09DBB29B0038333B4453F8C7
:100DA800302C022327211048FFF79BFFBB799B00BB
:100DB80038333B4453F8282C022327210A48FFF7ED
:100DC80090FFFB799B0038333B4453F8282C0223CF
:100DD80027210548FFF785FF00BF3837BD46B0BD5E
:100DE800540F00087C0F0008005400401F85EB5189
:100DF80080B500AFFFF7BCFDFFF778FE134B1B78FB
:100E08000133DAB2114B1A70104B1B78642B02D9DC
:100E18000E4B00221A700D4B1A780D4BA3FB0213D0
:100E2800D9080B469B000B445B00D31AD8B2074B7A
:100E38001B78074AA2FB0323DB08DBB2034A1278BC
:100E48001946FFF77DFF00F005F8D7E710020020EC
:100E5800CDCCCCCC80B500AF0C2201211F48FFF7C8
:100E6800E0FA6420FFF756FD0C2200211B48FFF72B
:100E7800D8FA6420FFF74EFD0D2201211748FFF72D
:100E8800D0FA6420FFF746FD0D2200211348FFF732
:100E9800C8FA6420FFF73EFD0E2201210F48FFF734
:100EA800C0FA6420FFF736FD0E2200210B48FFF739
:100EB800B8FA6420FFF72EFD0F2201210748FFF73B
:100EC800B0FA6420FFF726FD0F2200210348FFF740
:100ED800A8FA6420FFF71EFD00BF80BD000C024089
:100EE8000D488546AFF300800C480D490D4A002394
:100EF80002E0D458C4500433C4188C42F9D30A4AC7
:100F08000A4C002301E013600432A242FBD3FFF72E
:100F180057F9FFF76DFFFEE70000022000000020F0
:100F28005C000020900F00085C00002014020020E4
:100F3800FEE70000F8B500BFF8BC08BC9E46704745
:0C0F4800F8B500BFF8BC08BC9E4670471E
:100F54001C00002020000020240000202800002085
:100F64002C00002030000020340000203800002035
:100F74003C00002040000020100000202000002041
:080F840015020008AD01000890
:040F8C0089010008CF
:100F900078000020003C0240003802400010004071
:100FA00002000000020F0000020500000300000024
:100FB000030100000302000003030000030400001B
:100FC00003050000030600000307000003080000FB
:100FD00003090000040400000503000006010000EE
:0C0FE000060300000604000007020000E9
:0400000508000EE9F8
:00000001FF
