:020000040800F2
:1000000000000220A90A0008F90A0008F90A0008FD
:10001000F90A0008F90A0008F90A000800000000BF
:10002000000000000000000000000000F90A0008C5
:100030000000000000000000F90A0008F90A0008AA
:10004000F90A0008F90A0008F90A0008F90A000884
:1000500000000000F90A0008F90A0008F90A00087F
:10006000F90A0008F90A0008F90A0008F90A000864
:10007000F90A0008F90A0008F90A0008F90A000854
:10008000F90A0008F90A0008F90A0008F90A000844
:10009000F90A0008F90A0008F90A0008F90A000834
:1000A000F90A0008F90A0008F90A0008F90A000824
:1000B000F90A0008F90A0008F90A0008F90A000814
:1000C000F90A0008F90A0008F90A0008F90A000804
:1000D000F90A0008F90A0008F90A0008F90A0008F4
:1000E000F90A0008F90A0008F90A0008F90A0008E4
:1000F000F90A0008F90A0008F90A0008F90A0008D4
:10010000F90A0008F90A0008F90A0008F90A0008C3
:10011000F90A0008F90A0008F90A0008F90A0008B3
:10012000F90A0008F90A0008F90A0008F90A0008A3
:10013000F90A0008F90A0008F90A0008F90A000893
:10014000F90A0008F90A0008F90A0008F90A000883
:10015000F90A0008F90A0008F90A0008F90A000873
:10016000F90A0008F90A0008F90A0008F90A000863
:10017000F90A0008F90A0008F90A0008F90A000853
:08018000F90A0008F90A000861
:1001880010B5054C237833B9044B13B10448AFF3C9
:1001980000800123237010BD5C00002000000000D7
:1001A800FC0A000808B5034B1BB103490348AFF329
:1001B800008008BD0000000060000020FC0A000864
:1001C80070B50D4D0D4C641BA4100026A64209D134
:1001D8000B4D0C4C00F08EFC641BA4100026A642AC
:1001E80005D170BD55F8043B98470136EEE755F840
:1001F800043B98470136F2E7440B0008440B00081B
:10020800440B00084C0B000870477047024B13B1B1
:10021800024800F005B870470000000035020008E9
:10022800002301461A46184600F014B838B5074DA1
:10023800074C641BA4101CB9BDE8384000F060BC32
:10024800013C55F824309847F5E700BF4C0B0008EF
:10025800500B00082DE9F047DFF874A00646DAF8DD
:10026800000098460F469146FFF7CEFF164B1C68D4
:100278000CB9164C1C606568DAF800001F2D05DD06
:10028800FFF7C3FF4FF0FF30BDE8F0879EB104EBE6
:1002980085010122C1F88890D4F88831AA40134317
:1002A800C4F88831022EC1F8088102BFD4F88C3115
:1002B8001343C4F88C316B1C0235636044F8257015
:1002C800FFF7A3FF0020DFE77C000020800000206C
:1002D80000000020024B1B681A6810431860704722
:1002E800040000200368520091400B4303607047EC
:1002F800436891400B4343607047836852009140C4
:100308000B4383607047C368520091400B43C3603E
:100318007047012907D083691032012101FA02F2DE
:10032800134383617047836901FA02F213438361BF
:100338007047072905D8036A89008A401343036276
:10034800704701F00701436A89008A4013434362FA
:100358007047F8B505460C4616461F460A4631460C
:10036800FFF7C0FF224639462846FFF7C1FF22465D
:100378009DF818102846FFF7C0FF22469DF81C106C
:100388002846FFF7C0FF022E00D0F8BD9DF82020B8
:1003980021462846FFF7CDFFF7E7012904D0036877
:1003A80023F0010303607047036843F0010303600F
:1003B8007047012903D9312902D9322100E00221ED
:1003C80043680B4343607047436803F03F034FF4AF
:1003D800FA7203FB02F2B2FBF1F2C1690A43C2618D
:1003E800013303627047036843F480730360436911
:1003F80013F0010FFBD0436949000161436913F011
:10040800020FFBD043698369436913F0800FFBD067
:100418000261436913F0800FFBD0436913F0040FA6
:10042800FBD0036843F400730360704701280AD0C7
:1004380002280FD000B170470A4B1A68136843F0BE
:10044800010313607047074B1A68136843F480333D
:1004580013607047034B1A68136843F08073136086
:10046800E9E700BF0800002001280AD002280FD0C1
:1004780000B170470A4B1B681B6813F0020FF9D0D4
:100488007047074B1B681B6813F4003FF9D070478F
:10049800034B1B681B6813F0007FF9D0E9E700BF26
:1004A80008000020054B1A6893680343936093681B
:1004B800C3F381039842FAD1704700BF08000020B7
:1004C800012908D0084B19680B6B0122824023EAE6
:1004D80002030B637047044B19680B6B01228240BF
:1004E80013430B63704700BF08000020012908D0A0
:1004F800084B19680B6C0122824023EA02030B6443
:100508007047044B19680B6C0122824013430B643B
:10051800704700BF0800002030B40B4C24686568A1
:1005280000256560656845EA805565606068084330
:100538006060616841EA82116160626842EA034270
:10054800626030BC704700BF08000020054B1B6884
:100558009A6842F400429A609A6842F4A0529A60FB
:10056800704700BF0800002000234362036843F07F
:10057800010303607047036823F0010303607047B9
:1005880081627047C162704710B504460B4B18680A
:10059800FFF7EAFF00210AE0084B1A68136923F005
:1005A80001031361136913F0010FFBD00131A1425C
:1005B800F2D3024B1868FFF7DEFF10BD0C000020D5
:1005C80008B501210846FFF77BFF01211520FFF739
:1005D8008DFF01210220FFF773FF01210320FFF7A0
:1005E8006FFF01210420FFF781FF08BD08B5FFF761
:1005F800ADFF08BD08B5FFF7F9FF0023A8220421C5
:100608000120FFF789FF0120FFF710FF0120FFF706
:100618002BFF0520FFF75EFE0220FFF707FF0220F1
:10062800FFF722FF0220FFF73DFFFFF7C9FF08BDD4
:10063800F0B585B01E4D0024029401940094234621
:1006480001220C212846FFF784FE029401940094AD
:10065800234601220D212846FFF77BFE02940194D0
:100668000094234601220E212846FFF772FE0294C9
:1006780001940094234601220F212846FFF769FEC2
:100688000C4E042702970125019500942B4602225F
:1006980008213046FFF75DFE0297019500942B462E
:1006A800022207213046FFF754FE05B0F0BD00BF17
:1006B800000C02400004024010B5054C53212046AE
:1006C800FFF75EFF40F2E7312046FFF75BFF10BD02
:1006D8000010004010B5074C2A212046FFF769FE9C
:1006E80064212046FFF770FE01212046FFF755FEE2
:1006F80010BD00BF0054004008B5FFF77BFFFFF7AF
:10070800DBFFFFF7E7FFFFF793FF08BD70B505466E
:100718000E46140164B244F00C0202F0FC02FFF72A
:1007280062FE44F0080202F0F80231462846FFF75C
:100738005AFE70BD2DE9F04180460F46154614E07B
:1007480015F8014B240164B244F00D0202F0FD02D9
:1007580039464046FFF747FE44F0090202F0F90225
:1007680039464046FFF73FFE33465E1EF6B2002B81
:10077800E6D1BDE8F081000038B51020FFF704FF8E
:100788005D4C032227212046FFF7C0FF0620FFF714
:10079800FBFE032227212046FFF7B8FF0120FFF7C1
:1007A800F3FE032227212046FFF7B0FF0220FFF7C0
:1007B800EBFE022227212046FFF7A8FF0220FFF7C1
:1007C800E3FE022227212046FFF7A0FF0C22272163
:1007D8002046FFF79BFF0220FFF7D6FE00222721C5
:1007E8002046FFF793FF082227212046FFF78EFFB8
:1007F8000220FFF7C9FE002227212046FFF786FFC7
:10080800012227212046FFF781FF0220FFF7BCFEC7
:10081800002227212046FFF779FF062227212046BC
:10082800FFF774FF0220FFF7AFFE002227212046C2
:10083800FFF76CFF0C2227212046FFF767FF0223F2
:100848002E4A27212046FFF775FF02232C4A27212D
:100858002046FFF76FFF02232A4A27212046FFF789
:1008680069FF0223284A27212046FFF763FF022356
:10087800264A27212046FFF75DFF0223244A272125
:100888002046FFF757FF234D02232A4627212046FB
:10089800FFF750FF02232A4627212046FFF74AFF89
:1008A8001D4D02232A4627212046FFF743FF022336
:1008B8002A4627212046FFF73DFF0223174A272112
:1008C8002046FFF737FF0223154A27212046FFF766
:1008D80031FF02232A4627212046FFF72BFF022358
:1008E8002A4627212046FFF725FF02230D4A272104
:1008F8002046FFF71FFF38BD0054004020000020AD
:1009080024000020180000201C00002010000020F7
:1009180014000020580000204C0000205400002043
:100928004800002050000020F0B58DB005460E4666
:100938001446224F0DF1080CBE46BEE80F00ACE885
:100948000F00BEE80F00ACE80F009EE803008CE83B
:1009580003006B46283797E8030083E80300184F25
:10096800082227213846FFF7D1FE072227213846DB
:10097800FFF7CCFE134BA3FB043464090CAB03EB69
:100988008404022354F8302C27213846FFF7D2FE7E
:100998000CAB03EB8606022356F8282C2721384691
:1009A800FFF7C8FE0CAB03EB8505022355F8282C8E
:1009B80027213846FFF7BEFE0DB0F0BD140B000826
:1009C800005400401F85EB5108B5FFF795FEFFF76F
:1009D800D3FE12E0134600221A700C4B1A780C4909
:1009E800A1FB0231CB0803EB83035800101AC90896
:1009F800C0B2FFF799FF00F00DF8044A13780133ED
:100A0800DBB21370632BE5D8E7E700BF10020020C4
:100A1800CDCCCCCC10B5214C0C2201212046FFF7BF
:100A280078FC6420FFF7B0FD0C2200212046FFF778
:100A380070FC6420FFF7A8FD0D2201212046FFF776
:100A480068FC6420FFF7A0FD0D2200212046FFF777
:100A580060FC6420FFF798FD0E2201212046FFF775
:100A680058FC6420FFF790FD0E2200212046FFF776
:100A780050FC6420FFF788FD0F2201212046FFF774
:100A880048FC6420FFF780FD0F2200212046FFF775
:100A980040FC6420FFF778FD10BD00BF000C024049
:100AA8000D488546AFF300800C480D490D4A0023D8
:100AB80002E0D458C4500433C4188C42F9D30A4A0B
:100AC8000A4C002301E013600432A242FBD3FFF773
:100AD80077FBFFF779FFFEE7000002200000002007
:100AE8005C000020500B00085C000020140200206D
:100AF800FEE70000F8B500BFF8BC08BC9E4670478A
:0C0B0800F8B500BFF8BC08BC9E46704762
:100B14004C00002048000020440000204000002039
:100B24003C00002038000020340000203000002069
:100B34002C0000202800002058000020480000203D
:080B440015020008AD010008D4
:040B4C008901000813
:100B500078000020003C02400038024000100040B5
:100B60000702000006040000060300000601000062
:100B7000050300000404000003090000030800004E
:100B80000307000003060000030500000304000043
:100B90000303000003020000030100000300000043
:0C0BA00002050000020F0000020000002F
:0400000508000AA93C
:00000001FF
