:020000040800F2
:100000000000022071070008C1070008C1070008AE
:10001000C1070008C1070008C10700080000000070
:10002000000000000000000000000000C107000800
:100030000000000000000000C1070008C107000820
:10004000C1070008C1070008C1070008C107000870
:1000500000000000C1070008C1070008C107000830
:10006000C1070008C1070008C1070008C107000850
:10007000C1070008C1070008C1070008C107000840
:10008000C1070008C1070008C1070008C107000830
:10009000C1070008C1070008C1070008C107000820
:1000A000C1070008C1070008C1070008C107000810
:1000B000C1070008C1070008C1070008C107000800
:1000C000C1070008C1070008C1070008C1070008F0
:1000D000C1070008C1070008C1070008C1070008E0
:1000E000C1070008C1070008C1070008C1070008D0
:1000F000C1070008C1070008C1070008C1070008C0
:10010000C1070008C1070008C1070008C1070008AF
:10011000C1070008C1070008C1070008C10700089F
:10012000C1070008C1070008C1070008C10700088F
:10013000C1070008C1070008C1070008C10700087F
:10014000C1070008C1070008C1070008C10700086F
:10015000C1070008C1070008C1070008C10700085F
:10016000C1070008C1070008C1070008C10700084F
:10017000C1070008C1070008C1070008C10700083F
:08018000C1070008C1070008D7
:1001880010B5054C237833B9044B13B10448AFF3C9
:1001980000800123237010BD18000020000000001B
:1001A800C407000808B5034B1BB103490348AFF364
:1001B800008008BD000000001C000020C4070008E3
:1001C80070B50D4D0D4C641BA4100026A64209D134
:1001D8000B4D0C4C00F0F2FA641BA4100026A6424A
:1001E80005D170BD55F8043B98470136EEE755F840
:1001F800043B98470136F2E7DC070008DC070008F3
:10020800DC070008E407000870477047024B13B189
:10021800024800F005B870470000000035020008E9
:10022800002301461A46184600F014B838B5074DA1
:10023800074C641BA4101CB9BDE8384000F0C4BAD0
:10024800013C55F824309847F5E700BFE40700085B
:10025800E80700082DE9F047DFF874A00646DAF849
:10026800000098460F469146FFF7CEFF164B1C68D4
:100278000CB9164C1C606568DAF800001F2D05DD06
:10028800FFF7C3FF4FF0FF30BDE8F0879EB104EBE6
:1002980085010122C1F88890D4F88831AA40134317
:1002A800C4F88831022EC1F8088102BFD4F88C3115
:1002B8001343C4F88C316B1C0235636044F8257015
:1002C800FFF7A3FF0020DFE7380000203C000020F4
:1002D80000000020024B1B681A6810431860704722
:1002E800040000200368520091400B4303607047EC
:1002F800436891400B4343607047836852009140C4
:100308000B4383607047C368520091400B43C3603E
:100318007047012907D083691032012101FA02F2DE
:10032800134383617047836901FA02F213438361BF
:100338007047072905D8036A89008A401343036276
:10034800704701F00701436A89008A4013434362FA
:100358007047F8B505460C4616461F460A4631460C
:10036800FFF7C0FF224639462846FFF7C1FF22465D
:100378009DF818102846FFF7C0FF22469DF81C106C
:100388002846FFF7C0FF022E00D0F8BD9DF82020B8
:1003980021462846FFF7CDFFF7E7012904D0036877
:1003A80023F0010303607047036843F0010303600F
:1003B8007047012903D9312902D9322100E00221ED
:1003C80043680B4343607047436803F03F034FF4AF
:1003D800FA7203FB02F2B2FBF1F2C1690A43C2618D
:1003E8000133036270478C46016841F480710160F3
:1003F800416911F0010FFBD041694FEA4C010161DD
:10040800416911F0020FFBD04169816907E0436936
:1004180013F0800FFBD012F8013B03610B46591E05
:10042800C9B2002BF3D1436913F0800FFBD04369A5
:1004380013F0040FFBD0036843F4007303607047A4
:1004480001280AD002280FD000B170470A4B1A6859
:10045800136843F0010313607047074B1A68136869
:1004680043F4803313607047034B1A68136843F0F2
:1004780080731360E9E700BF0800002001280AD054
:1004880002280FD000B170470A4B1B681B6813F095
:10049800020FF9D07047074B1B681B6813F4003F25
:1004A800F9D07047034B1B681B6813F0007FF9D025
:1004B800E9E700BF08000020054B1A68936803436A
:1004C80093609368C3F381039842FAD1704700BFE1
:1004D80008000020012908D0084B19680B6B01227D
:1004E800824023EA02030B637047044B19680B6BC5
:1004F8000122824013430B63704700BF08000020AD
:10050800012908D0084B19680B6C0122824023EAA4
:1005180002030B647047044B19680B6C012282407C
:1005280013430B64704700BF0800002030B40B4C25
:100538002468656800256560656845EA80556560DA
:10054800606808436060616841EA821161606268BE
:1005580042EA0342626030BC704700BF08000020D6
:10056800054B1B689A6842F400429A609A6842F404
:10057800A0529A60704700BF080000200023436221
:10058800036843F0010303607047036823F0010325
:100598000360704781627047C162704710B50446B6
:1005A8000B4B1868FFF7EAFF00210AE0084B1A68AE
:1005B800136923F001031361136913F0010FFBD0D2
:1005C8000131A142F2D3024B1868FFF7DEFF10BDDC
:1005D8000C00002008B501210846FFF77BFF012128
:1005E8001520FFF78DFF01210220FFF773FF01217E
:1005F8000320FFF76FFF01210420FFF781FF08BDEB
:1006080008B5FFF7ADFF08BD08B5FFF7F9FF0023F0
:10061800A82204210120FFF789FF0120FFF710FF1E
:100628000120FFF72BFF0520FFF754FE0220FFF7FC
:1006380007FF0220FFF722FF0220FFF73DFFFFF729
:10064800C9FF08BDF0B585B01E4D00240294019481
:100658000094234601220C212846FFF77AFE0294D3
:1006680001940094234601220D212846FFF771FECC
:10067800029401940094234601220E212846FFF794
:1006880068FE029401940094234601220F21284613
:10069800FFF75FFE0C4E0427029701250195009491
:1006A8002B46022208213046FFF753FE0297019598
:1006B80000942B46022207213046FFF74AFE05B078
:1006C800F0BD00BF000C02400004024010B5054C0C
:1006D80053212046FFF75EFF40F2E7312046FFF73F
:1006E8005BFF10BD0010004010B5074C2A212046C2
:1006F800FFF75FFE64212046FFF766FE01212046D2
:10070800FFF74BFE10BD00BF0054004008B5FFF7CF
:100718007BFFFFF7DBFFFFF7E7FFFFF793FF08BD5E
:1007280008B5FFF7F3FF05230C4A27210C48FFF70C
:100738005AFE0C4C0C2201212046FFF7EAFD4FF42B
:10074800FA70FFF72BFF0C2200212046FFF7E1FD8E
:100758004FF4FA70FFF722FFEBE700BF100000200C
:1007680000540040000C02400D488546AFF300805D
:100778000C480D490D4A002302E0D458C4500433F4
:10078800C4188C42F9D30A4A0A4C002301E01360CA
:100798000432A242FBD3FFF713FDFFF7C1FFFEE7C8
:1007A800000002200000002018000020E8070008D0
:1007B80018000020CC010020FEE70000F8B500BFBB
:1007C800F8BC08BC9E467047F8B500BFF8BC08BC2A
:0407D8009E46704782
:0807DC0015020008AD01000840
:0407E400890100087F
:1007E80034000020003C0240003802400010004065
:0807F8000102030405000000EA
:040000050800077177
:00000001FF
