:020000040800F2
:100000000000022061070008B1070008B1070008DE
:10001000B1070008B1070008B107000800000000A0
:10002000000000000000000000000000B107000810
:100030000000000000000000B1070008B107000840
:10004000B1070008B1070008B1070008B1070008B0
:1000500000000000B1070008B1070008B107000860
:10006000B1070008B1070008B1070008B107000890
:10007000B1070008B1070008B1070008B107000880
:10008000B1070008B1070008B1070008B107000870
:10009000B1070008B1070008B1070008B107000860
:1000A000B1070008B1070008B1070008B107000850
:1000B000B1070008B1070008B1070008B107000840
:1000C000B1070008B1070008B1070008B107000830
:1000D000B1070008B1070008B1070008B107000820
:1000E000B1070008B1070008B1070008B107000810
:1000F000B1070008B1070008B1070008B107000800
:10010000B1070008B1070008B1070008B1070008EF
:10011000B1070008B1070008B1070008B1070008DF
:10012000B1070008B1070008B1070008B1070008CF
:10013000B1070008B1070008B1070008B1070008BF
:10014000B1070008B1070008B1070008B1070008AF
:10015000B1070008B1070008B1070008B10700089F
:10016000B1070008B1070008B1070008B10700088F
:10017000B1070008B1070008B1070008B10700087F
:08018000B1070008B1070008F7
:1001880010B5054C237833B9044B13B10448AFF3C9
:1001980000800123237010BD18000020000000001B
:1001A800B407000808B5034B1BB103490348AFF374
:1001B800008008BD000000001C000020B4070008F3
:1001C80070B50D4D0D4C641BA4100026A64209D134
:1001D8000B4D0C4C00F0EAFA641BA4100026A64252
:1001E80005D170BD55F8043B98470136EEE755F840
:1001F800043B98470136F2E7CC070008CC07000813
:10020800CC070008D407000870477047024B13B1A9
:10021800024800F005B870470000000035020008E9
:10022800002301461A46184600F014B838B5074DA1
:10023800074C641BA4101CB9BDE8384000F0BCBAD8
:10024800013C55F824309847F5E700BFD40700086B
:10025800D80700082DE9F047DFF874A00646DAF859
:10026800000098460F469146FFF7CEFF164B1C68D4
:100278000CB9164C1C606568DAF800001F2D05DD06
:10028800FFF7C3FF4FF0FF30BDE8F0879EB104EBE6
:1002980085010122C1F88890D4F88831AA40134317
:1002A800C4F88831022EC1F8088102BFD4F88C3115
:1002B8001343C4F88C316B1C0235636044F8257015
:1002C800FFF7A3FF0020DFE7380000203C000020F4
:1002D80000000020024B1B681A6810431860704722
:1002E800040000200368520091400B4303607047EC
:1002F800436891400B4343607047836852009140C4
:100308000B4383607047C368520091400B43C3603E
:100318007047012907D083691032012101FA02F2DE
:10032800134383617047836901FA02F213438361BF
:100338007047072905D8036A89008A401343036276
:10034800704701F00701436A89008A4013434362FA
:100358007047F8B505460C4616461F460A4631460C
:10036800FFF7C0FF224639462846FFF7C1FF22465D
:100378009DF818102846FFF7C0FF22469DF81C106C
:100388002846FFF7C0FF022E00D0F8BD9DF82020B8
:1003980021462846FFF7CDFFF7E7012904D0036877
:1003A80023F0010303607047036843F0010303600F
:1003B8007047012903D9312902D9322100E00221ED
:1003C80043680B4343607047436803F03F034FF4AF
:1003D800FA7203FB02F2B2FBF1F2C1690A43C2618D
:1003E8000133036270478C46016841F480710160F3
:1003F800416911F0010FFBD041694FEA4C010161DD
:10040800416911F0020FFBD0816906E012F8011B67
:100418000161416911F0800FFBD01946013BDBB245
:100428000029F3D1036843F40073036070470000A8
:1004380001280AD002280FD000B170470A4B1A6869
:10044800136843F0010313607047074B1A68136879
:1004580043F4803313607047034B1A68136843F002
:1004680080731360E9E700BF0800002001280AD064
:1004780002280FD000B170470A4B1B681B6813F0A5
:10048800020FF9D07047074B1B681B6813F4003F35
:10049800F9D07047034B1B681B6813F0007FF9D035
:1004A800E9E700BF08000020054B1A68936803437A
:1004B80093609368C3F381039842FAD1704700BFF1
:1004C80008000020012908D0084B19680B6B01228D
:1004D800824023EA02030B637047044B19680B6BD5
:1004E8000122824013430B63704700BF08000020BD
:1004F800012908D0084B19680B6C0122824023EAB5
:1005080002030B647047044B19680B6C012282408C
:1005180013430B64704700BF0800002030B40B4C35
:100528002468656800256560656845EA80556560EA
:10053800606808436060616841EA821161606268CE
:1005480042EA0342626030BC704700BF08000020E6
:10055800054B1B689A6842F400429A609A6842F414
:10056800A0529A60704700BF080000200023436231
:10057800036843F0010303607047036823F0010335
:100588000360704781627047C162704710B50446C6
:100598000B4B1868FFF7EAFF00210AE0084B1A68BE
:1005A800136923F001031361136913F0010FFBD0E2
:1005B8000131A142F2D3024B1868FFF7DEFF10BDEC
:1005C8000C00002008B501210846FFF77BFF012138
:1005D8001520FFF78DFF01210220FFF773FF01218E
:1005E8000320FFF76FFF01210420FFF781FF08BDFB
:1005F80008B5FFF7ADFF08BD08B5FFF7F9FF002301
:10060800A82204210120FFF789FF0120FFF710FF2E
:100618000120FFF72BFF0520FFF75CFE0220FFF704
:1006280007FF0220FFF722FF0220FFF73DFFFFF739
:10063800C9FF08BDF0B585B01E4D00240294019491
:100648000094234601220C212846FFF782FE0294DB
:1006580001940094234601220D212846FFF779FED4
:10066800029401940094234601220E212846FFF7A4
:1006780070FE029401940094234601220F2128461B
:10068800FFF767FE0C4E0427029701250195009499
:100698002B46022208213046FFF75BFE02970195A0
:1006A80000942B46022207213046FFF752FE05B080
:1006B800F0BD00BF000C02400004024010B5054C1C
:1006C80053212046FFF75EFF40F2E7312046FFF74F
:1006D8005BFF10BD0010004010B5074C2A212046D2
:1006E800FFF767FE64212046FFF76EFE01212046D2
:1006F800FFF753FE10BD00BF0054004008B5FFF7D8
:100708007BFFFFF7DBFFFFF7E7FFFFF793FF08BD6E
:1007180008B5FFF7F3FF05230C4A27210C48FFF71C
:1007280062FE0C4C0C2201212046FFF7F2FD4FF42B
:10073800FA70FFF72BFF0C2200212046FFF7E9FD96
:100748004FF4FA70FFF722FFEBE700BF100000201C
:1007580000540040000C02400D488546AFF300806D
:100768000C480D490D4A002302E0D458C450043304
:10077800C4188C42F9D30A4A0A4C002301E01360DA
:100788000432A242FBD3FFF71BFDFFF7C1FFFEE7D0
:10079800000002200000002018000020D8070008F0
:1007A80018000020CC010020FEE70000F8B500BFCB
:1007B800F8BC08BC9E467047F8B500BFF8BC08BC3A
:0407C8009E46704792
:0807CC0015020008AD01000850
:0407D400890100088F
:1007D80034000020003C0240003802400010004075
:0807E8000102030405000000FA
:040000050800076187
:00000001FF
