:020000040800F2
:1000000000000220150600086506000865060008C5
:100010006506000865060008650600080000000087
:10002000000000000000000000000000650600085D
:1000300000000000000000006506000865060008DA
:1000400065060008650600086506000865060008E4
:100050000000000065060008650600086506000847
:1000600065060008650600086506000865060008C4
:1000700065060008650600086506000865060008B4
:1000800065060008650600086506000865060008A4
:100090006506000865060008650600086506000894
:1000A0006506000865060008650600086506000884
:1000B0006506000865060008650600086506000874
:1000C0006506000865060008650600086506000864
:1000D0006506000865060008650600086506000854
:1000E0006506000865060008650600086506000844
:1000F0006506000865060008650600086506000834
:100100006506000865060008650600086506000823
:100110006506000865060008650600086506000813
:100120006506000865060008650600086506000803
:1001300065060008650600086506000865060008F3
:1001400065060008650600086506000865060008E3
:1001500065060008650600086506000865060008D3
:1001600065060008650600086506000865060008C3
:1001700065060008650600086506000865060008B3
:08018000650600086506000891
:1001880010B5054C237833B9044B13B10448AFF3C9
:1001980000800123237010BD100000200000000023
:1001A8006806000808B5034B1BB103490348AFF3C1
:1001B800008008BD00000000140000206806000848
:1001C80070B50D4D0D4C641BA4100026A64209D134
:1001D8000B4D0C4C00F044FA641BA4100026A642F8
:1001E80005D170BD55F8043B98470136EEE755F840
:1001F800043B98470136F2E78006000880060008AD
:10020800800600088806000870477047024B13B143
:10021800024800F005B870470000000035020008E9
:10022800002301461A46184600F014B838B5074DA1
:10023800074C641BA4101CB9BDE8384000F016BA7E
:10024800013C55F824309847F5E700BF88060008B8
:100258008C0600082DE9F047DFF874A00646DAF8A6
:10026800000098460F469146FFF7CEFF164B1C68D4
:100278000CB9164C1C606568DAF800001F2D05DD06
:10028800FFF7C3FF4FF0FF30BDE8F0879EB104EBE6
:1002980085010122C1F88890D4F88831AA40134317
:1002A800C4F88831022EC1F8088102BFD4F88C3115
:1002B8001343C4F88C316B1C0235636044F8257015
:1002C800FFF7A3FF0020DFE7300000203400002004
:1002D80000000020024B1B681A6810431860704722
:1002E800040000200368520091400B4303607047EC
:1002F800436891400B4343607047836852009140C4
:100308000B4383607047C368520091400B43C3603E
:10031800704770B505460C4611461E462246FFF743
:10032800E1FF224631462846FFF7E2FF22469DF8C4
:1003380010102846FFF7E1FF22469DF814102846C2
:10034800FFF7E1FF70BD012907D083691032012151
:1003580001FA02F2134383617047836901FA02F2DA
:10036800134383617047000001280AD002280FD088
:1003780000B170470A4B1A68136843F00103136011
:100388007047074B1A68136843F48033136070474B
:10039800034B1A68136843F080731360E9E700BFE2
:1003A8000800002001280AD002280FD000B17047A9
:1003B8000A4B1B681B6813F0020FF9D07047074BF4
:1003C8001B681B6813F4003FF9D07047034B1B6888
:1003D8001B6813F0007FF9D0E9E700BF0800002090
:1003E800054B1A689368034393609368C3F38103CA
:1003F8009842FAD1704700BF08000020012908D0B0
:10040800084B19680B6B0122824023EA02030B6335
:100418007047044B19680B6B0122824013430B632E
:10042800704700BF08000020012908D0084B196850
:100438000B6C0122824023EA02030B647047044BD1
:1004480019680B6C0122824013430B64704700BF8C
:100458000800002030B40B4C2468656800256560EE
:10046800656845EA80556560606808436060616852
:1004780041EA82116160626842EA0342626030BC0C
:10048800704700BF08000020054B1B689A6842F4BB
:1004980000429A609A6842F4A0529A60704700BF7E
:1004A8000800002000234362036843F0010303604F
:1004B8007047036823F00103036070478162704747
:1004C800C162704710B504460B4B1868FFF7EAFF86
:1004D80000210AE0084B1A68136923F0010313612D
:1004E800136913F0010FFBD00131A142F2D3024B83
:1004F8001868FFF7DEFF10BD0C00002008B50121C9
:100508000220FFF77BFF01210320FFF777FF01217E
:100518000420FFF789FF08BD08B5FFF7B5FF08BD40
:1005280008B5FFF7F9FF0023A82204210120FFF7EF
:1005380091FF0120FFF718FF0120FFF733FF052087
:10054800FFF7C8FE0220FFF70FFF0220FFF72AFF80
:100558000220FFF745FFFFF7D1FF08BD30B583B094
:10056800114D002401940094234601220C212846B1
:10057800FFF7CFFE01940094234601220D2128465F
:10058800FFF7C7FE01940094234601220E21284656
:10059800FFF7BFFE01940094234601220F2128464D
:1005A800FFF7B7FE03B030BD000C024010B5054C94
:1005B80053212046FFF782FF40F2E7312046FFF73C
:1005C8007FFF10BD0010004008B5FFF7A9FFFFF737
:1005D800C5FFFFF7EBFF08BD08B5FFF7F5FF0A4CAD
:1005E8000C2201212046FFF7AEFE4FF4FA70FFF708
:1005F80069FF0C2200212046FFF7A5FE4FF4FA7090
:10060800FFF760FFEBE700BF000C02400D4885468E
:10061800AFF300800C480D490D4A002302E0D4587E
:10062800C4500433C4188C42F9D30A4A0A4C002334
:1006380001E013600432A242FBD3FFF7C1FDFFF7CC
:10064800CBFFFEE700000220000000201000002081
:100658008C06000810000020C4010020FEE70000FE
:10066800F8B500BFF8BC08BC9E467047F8B500BF97
:08067800F8BC08BC9E46704767
:0806800015020008AD0100089D
:0406880089010008DC
:10068C002C000020003C02400038024000100040CA
:0400000508000615D4
:00000001FF
