:020000040800F2
:1000000000000220F508000845090008450900081D
:1000100045090008450900084509000800000000DE
:10002000000000000000000000000000450900087A
:100030000000000000000000450900084509000814
:100040004509000845090008450900084509000858
:10005000000000004509000845090008450900089E
:100060004509000845090008450900084509000838
:100070004509000845090008450900084509000828
:100080004509000845090008450900084509000818
:100090004509000845090008450900084509000808
:1000A00045090008450900084509000845090008F8
:1000B00045090008450900084509000845090008E8
:1000C00045090008450900084509000845090008D8
:1000D00045090008450900084509000845090008C8
:1000E00045090008450900084509000845090008B8
:1000F00045090008450900084509000845090008A8
:100100004509000845090008450900084509000897
:100110004509000845090008450900084509000887
:100120004509000845090008450900084509000877
:100130004509000845090008450900084509000867
:100140004509000845090008450900084509000857
:100150004509000845090008450900084509000847
:100160004509000845090008450900084509000837
:100170004509000845090008450900084509000827
:080180004509000845090008CB
:1001880010B5054C237833B9044B13B10448AFF3C9
:1001980000800123237010BD100000200000000023
:1001A8004809000808B5034B1BB103490348AFF3DE
:1001B800008008BD00000000140000204809000865
:1001C80070B50D4D0D4C641BA4100026A64209D134
:1001D8000B4D0C4C00F0B4FB641BA4100026A64287
:1001E80005D170BD55F8043B98470136EEE755F840
:1001F800043B98470136F2E76009000860090008E7
:10020800600900086809000870477047024B13B17D
:10021800024800F005B870470000000035020008E9
:10022800002301461A46184600F014B838B5074DA1
:10023800074C641BA4101CB9BDE8384000F086BB0D
:10024800013C55F824309847F5E700BF68090008D5
:100258006C0900082DE9F047DFF874A00646DAF8C3
:10026800000098460F469146FFF7CEFF164B1C68D4
:100278000CB9164C1C606568DAF800001F2D05DD06
:10028800FFF7C3FF4FF0FF30BDE8F0879EB104EBE6
:1002980085010122C1F88890D4F88831AA40134317
:1002A800C4F88831022EC1F8088102BFD4F88C3115
:1002B8001343C4F88C316B1C0235636044F8257015
:1002C800FFF7A3FF0020DFE7300000203400002004
:1002D8000000002080B483B000AF0346FB71074BD9
:1002E8001B681968FA79054B1B680A431A6000BF36
:1002F8000C37BD465DF8047B704700BF0400002042
:1003080080B582B000AF7860084611461A460346A9
:10031800FB700B46BB7013467B70FA78BB781946A6
:10032800786800F016F8FA787B781946786800F053
:1003380028F8FA783B7C1946786800F039F8FA789A
:100348003B7D1946786800F04BF800BF0837BD467A
:1003580080BD80B483B000AF78600B46FB70134655
:10036800BB707B681B68F978BA78520001FA02F210
:100378001A437B681A6000BF0C37BD465DF8047BE2
:10038800704780B483B000AF78600B46FB701346AB
:10039800BB707B685B68F978BA7801FA02F21A4395
:1003A8007B685A6000BF0C37BD465DF8047B704718
:1003B80080B483B000AF78600B46FB701346BB7007
:1003C8007B689B68F978BA78520001FA02F21A43FE
:1003D8007B689A6000BF0C37BD465DF8047B7047A8
:1003E80080B483B000AF78600B46FB701346BB70D7
:1003F8007B68DB68F978BA78520001FA02F21A438E
:100408007B68DA6000BF0C37BD465DF8047B704737
:1004180080B483B000AF78600B46FB701346BB70A6
:10042800FB78012B09D17B689B69BA78012101FA15
:1004380002F21A437B689A6109E07B689B69BA7883
:100448001032012101FA02F21A437B689A6100BF57
:100458000C37BD465DF8047B7047000080B483B05C
:1004680000AF0346FB71FB79022B18D0022B1FDC6F
:10047800002B02D0012B09D01AE0114B1B681A6817
:100488000F4B1B6842F001021A6012E00C4B1B680C
:100498001A680B4B1B6842F480321A6009E0084B5B
:1004A8001B681A68064B1B6842F080721A6000E0ED
:1004B80000BF00BF0C37BD465DF8047B704700BF26
:1004C8000800002080B483B000AF0346FB71FB79BD
:1004D800022B18D0022B1FDC002B02D0012B09D0D5
:1004E8001AE000BF104B1B681B6803F00203002BC7
:1004F800F8D012E000BF0C4B1B681B6803F40033F4
:10050800002BF8D009E000BF074B1B681B6803F0FD
:100518000073002BF8D000E000BF00BF0C37BD46C9
:100528005DF8047B704700BF0800002080B483B0EA
:1005380000AF0346FB710C4B1B689968FA790A4BAC
:100548001B680A439A6000BF074B1B689B689B089F
:1005580003F00302FB799A42F6D100BF00BF0C37C3
:10056800BD465DF8047B70470800002080B483B066
:1005780000AF03460A46FB711346BB71BB79012BDA
:100588000CD1104B1B681A6BFB79012101FA03F39C
:1005980019460C4B1B680A431A630CE0094B1B688D
:1005A8001A6BFB79012101FA03F3DB431946054B6A
:1005B8001B680A401A6300BF0C37BD465DF8047B10
:1005C800704700BF0800002080B483B000AF034626
:1005D8000A46FB711346BB71BB79012B0CD1104B3A
:1005E8001B681A6CFB79012101FA03F319460C4BBD
:1005F8001B680A431A640CE0094B1B681A6CFB79E8
:10060800012101FA03F3DB431946054B1B680A4035
:100618001A6400BF0C37BD465DF8047B704700BF05
:100628000800002090B482B000AF04460846114686
:100638001A462346FB710346BB710B46BB80134623
:10064800FB70174B1B685B68154B1B6800225A60D0
:10065800134B1B685968FB799A05114B1B680A43B1
:100668005A600F4B1B685968BA790D4B1B680A43CF
:100678005A600B4B1B685968BB889A01084B1B686A
:100688000A435A60064B1B685968FB781A04044BE6
:100698001B680A435A6000BF0837BD4690BC7047C4
:1006A8000800002080B400AF0A4B1B689A68094B09
:1006B8001B6842F400429A60064B1B689A68054B17
:1006C8001B6842F4A0529A6000BFBD465DF8047BE7
:1006D800704700BF0800002080B483B000AF786086
:1006E8007B6800225A627B681B6843F001027B68C2
:1006F8001A6000BF0C37BD465DF8047B704780B4B4
:1007080083B000AF78607B681B6823F001027B68C8
:100718001A6000BF0C37BD465DF8047B704780B493
:1007280083B000AF78600B467B807A887B689A62DA
:1007380000BF0C37BD465DF8047B704780B483B0BA
:1007480000AF78600B467B807A887B68DA6200BFEE
:100758000C37BD465DF8047B7047000080B584B057
:1007680000AF7860134B1B681846FFF7B5FF0023EE
:10077800FB6012E00F4B1B681A690E4B1B6822F0D6
:1007880001021A6100BF0B4B1B681B6903F00103D0
:10079800002BF8D0FB680133FB60FA687B689A424B
:1007A800E8D3044B1B681846FFF7A9FF00BF1037B2
:1007B800BD4680BD0C00002080B500AF00F006F8F3
:1007C80000F03AF800F068F800BF80BD80B500AFCF
:1007D80000F02CF80023A82204210120FFF722FFB3
:1007E8000120FFF73BFE0120FFF76CFE0520FFF715
:1007F80071FD0220FFF732FE0220FFF763FE0220A0
:10080800FFF794FE00F002F800BF80BD80B500AF8E
:1008180001210220FFF7AAFE01210320FFF7A6FE0F
:1008280001210420FFF7D0FE00BF80BD80B500AFD6
:10083800FFF738FF00BF80BD80B582B002AF00234C
:10084800019300230093002301220C211148FFF794
:1008580057FD0023019300230093002301220D215B
:100868000C48FFF74DFD002301930023009300235C
:1008780001220E210748FFF743FD002301930023BF
:100888000093002301220F210248FFF739FD00BF22
:10089800BD4680BD000C024080B500AF532105481D
:1008A800FFF73DFF40F2E7310248FFF747FF00BF7F
:1008B80080BD00BF0010004080B500AFFFF77CFF8F
:1008C8000C2201210848FFF7A3FD4FF4FA70FFF747
:1008D80045FF0C2200210448FFF79AFD4FF4FA70F7
:1008E800FFF73CFF00BFEBE7000C02400D488546D0
:1008F800AFF300800C480D490D4A002302E0D4589C
:10090800C4500433C4188C42F9D30A4A0A4C002351
:1009180001E013600432A242FBD3FFF751FCFFF75A
:10092800CBFFFEE70000022000000020100000209E
:100938006C09000810000020C4010020FEE7000038
:10094800F8B500BFF8BC08BC9E467047F8B500BFB4
:08095800F8BC08BC9E46704784
:0809600015020008AD010008BA
:0409680089010008F9
:10096C002C000020003C02400038024000100040E7
:04000005080008F5F2
:00000001FF
