:020000040800F2
:1000000000000220094C0008594C0008594C000817
:10001000594C0008594C0008594C000800000000D9
:10002000000000000000000000000000810E000839
:100030000000000000000000E11000084911000865
:10004000594C0008594C0008594C0008594C0008FC
:1000500000000000594C0008594C0008594C000899
:10006000594C0008594C0008594C0008594C0008DC
:10007000594C0008594C0008594C0008594C0008CC
:10008000594C0008594C0008594C0008594C0008BC
:10009000594C0008594C0008594C0008594C0008AC
:1000A000594C0008594C0008594C0008594C00089C
:1000B000594C0008594C0008594C0008594C00088C
:1000C000594C0008594C0008594C0008594C00087C
:1000D000594C0008594C0008594C0008594C00086C
:1000E000594C0008594C0008594C0008594C00085C
:1000F000594C0008594C0008594C0008594C00084C
:10010000594C0008594C0008594C0008594C00083B
:10011000594C0008594C0008594C0008594C00082B
:10012000594C0008594C0008594C0008594C00081B
:10013000594C0008594C0008594C0008594C00080B
:10014000594C0008594C0008594C0008594C0008FB
:10015000594C0008594C0008594C0008594C0008EB
:10016000594C0008594C0008594C0008594C0008DB
:10017000594C0008594C0008594C0008594C0008CB
:08018000594C0008594C00081D
:1001900010B5054C237833B9044B13B10448AFF3C1
:1001A00000800123237010BD20000020000000000B
:1001B000984C000808B5034B1BB103490348AFF343
:1001C000008008BD0000000024000020984C0008BA
:1001D000F0B400EB4003DFF8880000EBC30000F14F
:1001E00018063069F7687568874232D3B368DC1B3C
:1001F000631E934214D37D19D01900BF11F8013B3F
:1002000005F8013B013A05D011F8013B05F8013B27
:10021000013AF3D1BFF35F8FF0600120F0BC70476B
:10022000C018904219D37819121B11F8013B00F83D
:10023000013B013CF9D1141C05D011F8013B05F834
:10024000013B013AF9D1BFF35F8FF4600120F0BCAC
:100250007047C01B01389042CDD20020F0BC7047DF
:100260004030012002440346934200D1704703F816
:10027000011BF9E770B50D4D0D4C641BA410002651
:10028000A64209D10B4D0C4C04F006FD641BA410D2
:100290000026A64205D170BD55F8043B98470136AB
:1002A000EEE755F8043B98470136F2E7484E000860
:1002B000484E0008484E0008504E000870477047EE
:1002C000024B13B1024800F005B87047000000006F
:1002D000E1020008002301461A46184600F014B84F
:1002E00038B5074D074C641BA4101CB9BDE8384055
:1002F00004F0D8BC013C55F824309847F5E700BF1E
:10030000504E0008544E00082DE9F047DFF874A065
:100310000646DAF8000098460F469146FFF7CEFFF2
:10032000164B1C680CB9164C1C606568DAF80000A6
:100330001F2D05DDFFF7C3FF4FF0FF30BDE8F0874D
:100340009EB104EB85010122C1F88890D4F8883170
:10035000AA401343C4F88831022EC1F8088102BFB5
:10036000D4F88C311343C4F88C316B1C02356360B4
:1003700044F82570FFF7A3FF0020DFE740000020CE
:10038000440000200000002080B483B000AF03468A
:10039000FB71074B1B681968FA79054B1B680A4308
:1003A0001A6000BF0C37BD465DF8047B704700BF84
:1003B0000400002080B582B000AF78600846114686
:1003C0001A460346FB700B46BB7013467B70FA78E7
:1003D000BB781946786800F01FF8FA787B781946E0
:1003E000786800F031F8FA783B7C1946786800F0BC
:1003F00042F8FA783B7D1946786800F054F8BB78EB
:10040000022B05D13A7EFB781946786800F088F80F
:1004100000BF0837BD4680BD80B483B000AF7860B0
:100420000B46FB701346BB707B681B68F978BA7883
:10043000520001FA02F21A437B681A6000BF0C37BF
:10044000BD465DF8047B704780B483B000AF786030
:100450000B46FB701346BB707B685B68F978BA7813
:1004600001FA02F21A437B685A6000BF0C37BD469E
:100470005DF8047B704780B483B000AF78600B46B2
:10048000FB701346BB707B689B68F978BA785200A2
:1004900001FA02F21A437B689A6000BF0C37BD462E
:1004A0005DF8047B704780B483B000AF78600B4682
:1004B000FB701346BB707B68DB68F978BA78520032
:1004C00001FA02F21A437B68DA6000BF0C37BD46BE
:1004D0005DF8047B704780B483B000AF78600B4652
:1004E000FB701346BB70FB78012B09D17B689B69BD
:1004F000BA78012101FA02F21A437B689A6109E095
:100500007B689B69BA781032012101FA02F21A4322
:100510007B689A6100BF0C37BD465DF8047B70476D
:1005200080B483B000AF78600B46FB701346BB709D
:10053000FB78072B0AD87B681B6AB978FA78920097
:1005400001FA02F21A437B681A620DE0FB7803F0AD
:100550000703FB707B685B6AB978FA78920001FA4E
:1005600002F21A437B685A6200BF0C37BD465DF841
:10057000047B704780B485B000AF78600B46FB7099
:100580000023FB737B681B69DAB2FB78012101FA57
:1005900003F3DBB21340FB73FB7B18461437BD46F5
:1005A0005DF8047B7047000080B483B000AF034661
:1005B000FB71FB79022B18D0022B1FDC002B02D021
:1005C000012B09D01AE0114B1B681A680F4B1B68EE
:1005D00042F001021A6012E00C4B1B681A680B4BC8
:1005E0001B6842F480321A6009E0084B1B681A68E5
:1005F000064B1B6842F080721A6000E000BF00BF2B
:100600000C37BD465DF8047B704700BF0800002032
:1006100080B483B000AF0346FB71FB79022B18D086
:10062000022B1FDC002B02D0012B09D01AE000BFE7
:10063000104B1B681B6803F00203002BF8D012E07C
:1006400000BF0C4B1B681B6803F40033002BF8D071
:1006500009E000BF074B1B681B6803F00073002B09
:10066000F8D000E000BF00BF0C37BD465DF8047B4A
:10067000704700BF0800002080B483B000AF03467D
:10068000FB710C4B1B689968FA790A4B1B680A438B
:100690009A6000BF074B1B689B689B0803F003022E
:1006A000FB799A42F6D100BF00BF0C37BD465DF81A
:1006B000047B70470800002080B483B000AF03467D
:1006C0000A46FB711346BB71BB79012B0CD1104B51
:1006D0001B681A6BFB79012101FA03F319460C4BD5
:1006E0001B680A431A630CE0094B1B681A6BFB7901
:1006F000012101FA03F3DB431946054B1B680A404D
:100700001A6300BF0C37BD465DF8047B704700BF1D
:100710000800002080B483B000AF03460A46FB7196
:100720001346BB71BB79012B0CD1104B1B681A6CA3
:10073000FB79012101FA03F319460C4B1B680A43AC
:100740001A640CE0094B1B681A6CFB79012101FA51
:1007500003F3DB431946054B1B680A401A6400BFCC
:100760000C37BD465DF8047B704700BF08000020D1
:1007700090B482B000AF0446084611461A4623469C
:10078000FB710346BB710B46BB801346FB70174BD6
:100790001B685B68154B1B6800225A60134B1B6873
:1007A0005968FB799A05114B1B680A435A600F4B35
:1007B0001B685968BA790D4B1B680A435A600B4B8A
:1007C0001B685968BB889A01084B1B680A435A602A
:1007D000064B1B685968FB781A04044B1B680A43D4
:1007E0005A6000BF0837BD4690BC70470800002023
:1007F00080B400AF0A4B1B689A68094B1B6842F42F
:1008000000429A60064B1B689A68054B1B6842F4CD
:10081000A0529A6000BFBD465DF8047B704700BFE0
:100820000800002080B483B000AF78607B680022AD
:100830005A627B681B6843F001027B681A6000BF44
:100840000C37BD465DF8047B704780B483B000AFC1
:1008500078607B681B6823F001027B681A6000BF28
:100860000C37BD465DF8047B7047000080B584B04E
:1008700000AF7860134B1B681846FFF7D3FF0023C7
:10088000FB6012E00F4B1B681A690E4B1B6822F0CD
:1008900001021A6100BF0B4B1B681B6903F00103C7
:1008A000002BF8D0FB680133FB60FA687B689A4242
:1008B000E8D3044B1B681846FFF7C7FF00BF10378B
:1008C000BD4680BD0C00002080B500AF00F004F8EC
:1008D00000F044F800BF80BD80B500AF00F038F8EC
:1008E0000023A82204210120FFF742FF0120FFF787
:1008F0005BFE0120FFF78CFE0520FFF745FD02207F
:10090000FFF752FE0220FFF783FE0220FFF7B4FE3E
:1009100000F002F800BF80BD80B500AF01210120CA
:10092000FFF7CAFE01211520FFF7F4FE0121022086
:10093000FFF7C2FE01210320FFF7BEFE01210420C4
:10094000FFF7E8FE01210020FFF7B6FE00BF80BDE3
:1009500080B500AFFFF74CFF00BF80BD80B584B00D
:1009600004AF00230293002301930023009300238C
:1009700001220C212648FFF71DFD002302930023CE
:10098000019300230093002301220D212048FFF74B
:1009900011FD002302930023019300230093002301
:1009A00001220E211A48FFF705FD002302930023C0
:1009B000019300230093002301220F211448FFF725
:1009C000F9FC0423029301230193002300930123E4
:1009D000022208210F48FFF7EDFC042302930123B4
:1009E0000193002300930123022207210948FFF706
:1009F000E1FC0023029300230193002300930023D2
:100A0000002200210448FFF7D5FC00BFBD4680BD91
:100A1000000C0240000402400000024080B582B099
:100A200000AF78600C2201211848FFF754FD002127
:100A30001748FFF79FFD03461A46164B1A70154BD1
:100A40001B78012B0ED1144B1B78002B0AD1124BB3
:100A500001221A7001210320FFF72EFE6420FFF708
:100A600005FF11E00B4B1B78012BDBD10A4B1B78E8
:100A7000012BD7D1084B00221A7000210320FFF769
:100A80001BFE6420FFF7F2FECCE700BF000C024023
:100A900000000240F80100201000002080B582B064
:100AA00000AF78600D2201210148FFF714FDF9E73E
:100AB000000C024080B582B000AF78600E220121A8
:100AC0000148FFF708FDF9E7000C024080B582B04D
:100AD00000AF78600F2201210148FFF7FCFCF9E725
:100AE000000C024080B582B000AF78600C2200217B
:100AF0000148FFF7F0FCF9E7000C024080B582B036
:100B000000AF78600D2200210148FFF7E4FCF9E70F
:100B1000000C024080B582B000AF78600E22002148
:100B20000148FFF7D8FCF9E7000C024080B582B01D
:100B300000AF78600F2200210148FFF7CCFCF9E7F5
:100B4000000C024080B58AB002AFFFF7BDFE7B4BC0
:100B50001B687A4A43F00103136002F089FB03F03B
:100B6000E7FA774B019302230093764BC82276492C
:100B7000764801F01DF90346754A1360744B1B68F3
:100B8000012B0BD04FF0500383F31188BFF36F8F0D
:100B9000BFF34F8FFB6100BF00BFFDE76D4B0193BB
:100BA000022300936C4BC8226C496D4801F000F998
:100BB0000346674A1360664B1B68012B0BD04FF04E
:100BC000500383F31188BFF36F8FBFF34F8FBB6167
:100BD00000BF00BFFDE7634B019302230093624B0C
:100BE000C8226249624801F0E3F80346584A13609C
:100BF000574B1B68012B0BD04FF0500383F3118828
:100C0000BFF36F8FBFF34F8F7B6100BF00BFFDE766
:100C1000584B019302230093574BC8225749584819
:100C200001F0C6F803464A4A1360494B1B68012B82
:100C30000BD04FF0500383F31188BFF36F8FBFF3D6
:100C40004F8F3B6100BF00BFFDE74E4B0193022376
:100C500000933C4BC8224C494C4801F0A9F803468C
:100C60003B4A13603A4B1B68012B0BD04FF05003EB
:100C700083F31188BFF36F8FBFF34F8FFB6000BF0B
:100C800000BFFDE7424B019302230093324BC82281
:100C90004049414801F08CF803462D4A13602C4B23
:100CA0001B68012B0BD04FF0500383F31188BFF367
:100CB0006F8FBFF34F8FBB6000BF00BFFDE7374BA7
:100CC000019302230093284BC8223549354801F08F
:100CD0006FF803461E4A13601D4B1B68012B0BD097
:100CE0004FF0500383F31188BFF36F8FBFF34F8F23
:100CF0007B6000BF00BFFDE72B4B019302230093F5
:100D00001D4BC82229492A4801F052F80346104ACF
:100D100013600F4B1B68012B0BD04FF0500383F374
:100D20001188BFF36F8FBFF34F8F3B6000BF00BFD1
:100D3000FDE701F0C7F900BFFDE700BF001000E0CC
:100D4000D4010020B04C0008C84C00081D0A00085F
:100D5000F4010020D8010020D04C0008E84C000825
:100D60009D0A0008DC010020F04C0008084D000836
:100D7000B50A0008E0010020104D0008284D0008C9
:100D8000CD0A0008E4010020304D0008E50A000803
:100D9000E8010020384D0008FD0A0008EC010020A1
:100DA000404D0008150B0008F0010020484D0008D8
:100DB0002D0B000880B485B000AFF860B9607A6090
:100DC000FB68043BFB60FB684FF080721A60FB68B5
:100DD000043BFB60BB6823F00102FB681A60FB6800
:100DE000043BFB600C4AFB681A60FB68143BFB6029
:100DF0007A68FB681A60FB68043BFB60FB686FF075
:100E000002021A60FB68203BFB60FB68184614373F
:100E1000BD465DF8047B70471D0E000880B485B0A8
:100E200000AF00237B60134B1B68B3F1FF3F0BD077
:100E30004FF0500383F31188BFF36F8FBFF34F8FD1
:100E4000FB6000BF00BFFDE74FF0500383F3118844
:100E5000BFF36F8FBFF34F8FBB6000BF00BF7B68D6
:100E6000002BFCD000BF00BF1437BD465DF8047BEB
:100E7000704700BF180000200000000000000000C4
:100E8000074B19680868B0E8F04F80F30988BFF392
:100E90006F8F4FF0000080F311887047AFF3008030
:100EA0005C2E012000BF00BF08480068006880F386
:100EB00008884FF0000080F3148862B661B6BFF373
:100EC0004F8FBFF36F8F00DF00BF000008ED00E021
:100ED00000BF00BF80B586B000AF474B1B68474AD4
:100EE00093420BD14FF0500383F31188BFF36F8F00
:100EF000BFF34F8F3B6100BF00BFFDE73E4B1B6858
:100F00003F4A93420BD14FF0500383F31188BFF354
:100F10006F8FBFF34F8FFB6000BF00BFFDE7394B02
:100F20007B617B691B78DBB27B607B69FF221A7077
:100F30007B691B78DBB2FB70FB78DBB203F05003FC
:100F4000DAB2314B1A70314B07221A6009E02F4B8D
:100F50001B68013B2D4A1360FB78DBB25B00DBB200
:100F6000FB70FB78DBB203F08003802BEFD0274BC4
:100F70001B68C3F10703042B0BD04FF0500383F31E
:100F80001188BFF36F8FBFF34F8FBB6000BF00BFEF
:100F9000FDE71E4B1B681B021C4A13601B4B1B68A2
:100FA00003F4E063194A13607B68DAB27B691A7054
:100FB000174B1B68164A43F470031360144B1B68ED
:100FC000134A43F07043136000F0E8F8114B00221D
:100FD0001A6000F007F9104B1B680F4A43F04043BA
:100FE0001360FFF761FF01F01BFBFFF717FF002302
:100FF00018461837BD4680BD00ED00E071C20F41B4
:1010000070C20F4100E400E0F9010020FC01002063
:1010100020ED00E01800002034EF00E080B483B041
:1010200000AF4FF0500383F31188BFF36F8FBFF30E
:101030004F8F7B6000BF104B1B6801330E4A13605B
:101040000D4B1B68012B10D10C4B1B68DBB2002B26
:101050000BD04FF0500383F31188BFF36F8FBFF3B2
:101060004F8F3B6000BF00BFFDE700BF0C37BD46A0
:101070005DF8047B704700BF1800002004ED00E01D
:1010800080B483B000AF124B1B68002B0BD14FF024
:10109000500383F31188BFF36F8FBFF34F8F7B60D3
:1010A00000BF00BFFDE70A4B1B68013B084A136005
:1010B000074B1B68002B05D100233B603B6883F383
:1010C000118800BF00BF0C37BD465DF8047B704738
:1010D00018000020000000000000000000000000D8
:1010E000EFF30980BFF36F8F154B1A681EF0100FD6
:1010F00008BF20ED108A20E9F04F10602DE90900AB
:101100004FF0500080F31188BFF34F8FBFF36F8F04
:1011100001F086FA4FF0000080F3118809BC1968CD
:101120000868B0E8F04F1EF0100F08BFB0EC108A4E
:1011300080F30988BFF36F8F704700BFAFF3008063
:101140005C2E012000BF00BF80B582B000AF4FF021
:10115000500383F31188BFF36F8FBFF34F8F7B6012
:1011600000BF03F0ADFA01F03FF90346002B06D0B3
:1011700003F004FB084B4FF080521A6001E003F0CB
:10118000E1FA00233B603B6883F3118800BF00BF96
:101190000837BD4680BD00BF04ED00E080B400AF5D
:1011A0000B4B00221A600B4B00221A600A4B1B6883
:1011B0000A4AA2FB03239B08094A013B1360044B24
:1011C00007221A6000BFBD465DF8047B704700BF70
:1011D00010E000E018E000E014000020CDCCCCCC02
:1011E00014E000E0DFF80C00016841F470010160D8
:1011F0007047000088ED00E000BF00BF80B485B0FC
:1012000000AFEFF30583FB60FB680F2B15D9184A7D
:10121000FB6813441B78FB72164B1B78FA7A9A42D0
:101220000BD24FF0500383F31188BFF36F8FBFF3DE
:101230004F8F7B6000BF00BFFDE70F4B1B6803F4BF
:10124000E0620E4B1B689A420BD94FF0500383F3B8
:101250001188BFF36F8FBFF34F8F3B6000BF00BF9C
:10126000FDE700BF1437BD465DF8047B704700BF43
:10127000F0E300E0F90100200CED00E0FC010020AB
:1012800080B58AB000AF78600023FB6100F07CFF7E
:10129000544B1B68002B01D100F00CF97B68002B2C
:1012A00012D008227B6803F00703D31A0833BB610E
:1012B000BB69DB437A689A4204D87A68BB691344F5
:1012C0007B6001E000237B607B68002B71DB7B6827
:1012D000002B6ED0444B1B687A689A4269D8434B06
:1012E0003B62424B1B687B6204E07B6A3B627B6A29
:1012F0001B687B627B6A5B687A689A4203D97B6A67
:101300001B68002BF1D1374B1B687A6A9A4250D088
:101310003B6A1B6808221344FB617B6A1A683B6ABC
:101320001A607B6A5A687B68D21A08235B009A426B
:1013300020D97A6A7B6813447B617B6903F00703D9
:10134000002B0BD04FF0500383F31188BFF36F8F46
:10135000BFF34F8F3B6100BF00BFFDE77B6A5A6858
:101360007B68D21A7B695A607B6A7A685A607869AE
:1013700000F0FCF81C4B1A687B6A5B68D31A1A4AA7
:101380001360194B1A681A4B1B689A4203D2164B0A
:101390001B68174A13607B6A5B6843F000427B6AF4
:1013A0005A607B6A00221A60124B1B680133114A93
:1013B000136000F0F7FEFB6903F00703002B0BD06E
:1013C0004FF0500383F31188BFF36F8FBFF34F8F3C
:1013D000FB6000BF00BFFDE7FB6918462837BD462C
:1013E00080BD00BF082E01200C2E0120002E012000
:1013F000102E0120142E012080B586B000AF786039
:101400007B687B617B68002B4BD008235B427A6949
:1014100013447B617B693B613B695B68002B0BDBA1
:101420004FF0500383F31188BFF36F8FBFF34F8FDB
:10143000FB6000BF00BFFDE73B691B68002B0BD0C2
:101440004FF0500383F31188BFF36F8FBFF34F8FBB
:10145000BB6000BF00BFFDE73B695B68DB0F03F0CB
:101460000103DBB2002B1CD03B691B68002B18D199
:101470003B695B6823F000423B695A6000F084FEE0
:101480003B695A68094B1B681344084A1360386962
:1014900000F06CF8064B1B680133054A136000F03E
:1014A00081FE00BF1837BD4680BD00BF0C2E012055
:1014B000182E012080B485B000AF4FF49633BB6086
:1014C000254BFB60FB6803F00703002B0CD0FB6887
:1014D0000733FB60FB6823F00703FB60BA68FB6817
:1014E000D31A1D4A1344BB60FB687B601B4A7B68B0
:1014F00013601A4B00225A607B68BA681344FB6081
:101500000822FB689B1AFB60FB6823F00703FB6063
:10151000FB68134A1360124B1B6800225A60104B81
:101520001B6800221A607B683B603B68FA68D21A2D
:101530003B685A600A4B1A683B681A603B685B68F4
:10154000084A13603B685B68074A136000BF1437A2
:10155000BD465DF8047B704700020020002E01208C
:10156000082E0120102E01200C2E012080B485B001
:1015700000AF7860284BFB6002E0FB681B68FB60F3
:10158000FB681B687A689A42F7D8FB68BB60FB6807
:101590005B68BA6813447A689A4208D1FB685A6853
:1015A0007B685B681A44FB685A60FB687B607B68F9
:1015B000BB607B685B68BA681A44FB681B689A4228
:1015C00018D1FB681A68154B1B689A420DD07B68CE
:1015D0005A68FB681B685B681A447B685A60FB6842
:1015E0001B681A687B681A6008E00C4B1A687B68F5
:1015F0001A6003E0FB681A687B681A60FA687B6807
:101600009A4202D0FB687A681A6000BF1437BD4660
:101610005DF8047B704700BF002E0120082E0120DA
:1016200080B483B000AF78607B6803F108027B6808
:101630005A607B684FF0FF329A607B6803F10802C2
:101640007B68DA607B6803F108027B681A617B685B
:1016500000221A6000BF0C37BD465DF8047B70475E
:1016600080B483B000AF78607B6800221A6100BF4D
:101670000C37BD465DF8047B704780B485B000AF81
:10168000786039603B681B68BB60BB68B3F1FF3FA3
:1016900003D17B681B69FB600CE07B680833FB604F
:1016A00002E0FB685B68FB60FB685B681B68BA680C
:1016B0009A42F6D2FB685A683B685A603B685B689E
:1016C0003A689A603B68FA689A60FB683A685A60C0
:1016D0003B687A681A617B681B685A1C7B681A60D1
:1016E00000BF1437BD465DF8047B704780B485B0F9
:1016F00000AF78607B681B69FB607B685B687A6819
:1017000092689A607B689B687A6852685A60FB6846
:101710005B687A689A4203D17B689A68FB685A6072
:101720007B6800221A61FB681B685A1EFB681A60FE
:10173000FB681B6818461437BD465DF8047B70478C
:1017400080B586B000AF7860396001237B617B682B
:101750003B613B69002B0BD14FF0500383F31188A1
:10176000BFF36F8FBFF34F8FFB6000BF00BFFDE77C
:101770003B69002B5DD03B69DB6B002B59D03B698B
:101780001A6C3B69DB6B0021A3FB0223002B00D00A
:1017900001210B46002B4CD1FFF740FC3B691A6836
:1017A0003B69DB6B3969096C01FB03F31A443B6944
:1017B0009A603B6900229A633B691A683B695A60E8
:1017C0003B691A683B69DB6B013B3969096C01FBBA
:1017D00003F31A443B69DA603B69FF2283F8442033
:1017E0003B69FF2283F845203B68002B14D13B69FD
:1017F0001B69002B1AD03B691033184600F0EAFF32
:101800000346002B12D0164B4FF080521A60BFF3E4
:101810004F8FBFF36F8F09E03B6910331846FFF716
:10182000FFFE3B6924331846FFF7FAFEFFF728FC5A
:1018300001E000237B617B69002B0BD14FF050034B
:1018400083F31188BFF36F8FBFF34F8FBB6000BF6F
:1018500000BFFDE77B6918461837BD4680BD00BF55
:1018600004ED00E080B58AB002AFF860B9601346BD
:10187000FB710023FB61FB68002B2ED00021BA68AE
:10188000FB68A3FB0223002B00D001210B46002B99
:1018900023D1FB68BA6802FB03F313F1510F1CD884
:1018A000FB68BA6802FB03F3BB61BB69503318469F
:1018B000FFF7E6FCF861FB69002B1DD0FB697B613B
:1018C0007B6950337B61FA79FB69009313467A692F
:1018D000B968F86800F015F80EE0FB69002B0BD131
:1018E0004FF0500383F31188BFF36F8FBFF34F8F17
:1018F0003B6100BF00BFFDE7FB6918462037BD46CE
:1019000080BD80B584B000AFF860B9607A60FB70CC
:10191000BB68002B03D1BB69BA691A6002E0BB69DE
:101920007A681A60BB69FA68DA63BB69BA681A64D4
:101930000121B869FFF704FFBB69FA7883F84C20EE
:10194000FB78BA68F968732002F0EAFA00BF103732
:10195000BD4680BD90B58FB002AFF860B9607A60C7
:101960000023FB62FB68BB62BB6A002B0BD14FF00C
:10197000500383F31188BFF36F8FBFF34F8F3B6228
:1019800000BF00BFFDE7BB68002B03D1BB6A1B6C27
:10199000002B01D1012300E00023002B0BD14FF0DD
:1019A000500383F31188BFF36F8FBFF34F8FFB6139
:1019B00000BF00BFFDE701F023F90346002B02D171
:1019C0007B68002B01D1012300E00023002B0BD109
:1019D0004FF0500383F31188BFF36F8FBFF34F8F26
:1019E000BB6100BF00BFFDE7FFF718FBBB6A9B6B45
:1019F0007B627B6A002B2FD0B968B86A00F0BEF812
:101A0000BB6A184602F0B8FF0446002002F0B4FF9B
:101A100002467B680121009121465C2002F0F6FA23
:101A20007B6A5A1EBB6A9A63BB6A1B69002B0FD084
:101A3000BB6A1033184600F0CDFE0346002B07D0DA
:101A40004D4B4FF080521A60BFF34F8FBFF36F8F33
:101A5000FFF716FB01238AE07B68002B13D1FFF709
:101A60000FFBBB6A184602F087FF0446002002F015
:101A700083FF02467B680121009121465C2002F031
:101A8000C5FA002373E0FB6A002B06D107F11003AF
:101A9000184600F079FF0123FB62FFF7F1FA00F02E
:101AA00073FBFFF7BBFABB6A93F844305BB2B3F148
:101AB000FF3F03D1BB6A002283F84420BB6A93F83E
:101AC00045305BB2B3F1FF3F03D1BB6A002283F81C
:101AD0004520FFF7D5FA3A1D07F1100311461846C5
:101AE00000F068FF0346002B24D1B86A00F0BEF86E
:101AF0000346002B18D0BB6A24337A681146184677
:101B000000F0F8FDB86A00F05FF800F04BFB034608
:101B1000002B7FF469AF184B4FF080521A60BFF36F
:101B20004F8FBFF36F8F5FE7B86A00F04DF800F09A
:101B300039FB59E7B86A00F047F800F033FBB86AA0
:101B400000F094F80346002B3FF44EAFBB6A1846F2
:101B500002F012FF0446002002F00EFF02467B68EE
:101B60000121009121465C2002F050FA0023184622
:101B70003437BD4690BD00BF04ED00E080B582B0B3
:101B800000AF786039607B681B6C002B18D07B68D5
:101B9000DA687B681B6C1A447B68DA607B68DA68F9
:101BA0007B689B689A4203D37B681A687B68DA601B
:101BB0007B68D9687B681B6C1A46386803F05DF84F
:101BC00000BF0837BD4680BD80B584B000AF7860E7
:101BD000FFF724FA7B6893F84530FB7311E07B68CC
:101BE0005B6A002B12D07B682433184600F0F2FDAC
:101BF0000346002B01D000F045FFFB7B013BDBB22D
:101C0000FB7397F90F30002BE9DC00E000BF7B6825
:101C1000FF2283F84520FFF733FAFFF7FFF97B68CF
:101C200093F84430BB7311E07B681B69002B12D022
:101C30007B681033184600F0CDFD0346002B01D021
:101C400000F020FFBB7B013BDBB2BB7397F90E308A
:101C5000002BE9DC00E000BF7B68FF2283F8442012
:101C6000FFF70EFA00BF1037BD4680BD80B584B0C7
:101C700000AF7860FFF7D2F97B689B6B002B02D135
:101C80000123FB6001E00023FB60FFF7F9F9FB682B
:101C900018461037BD4680BD80B586B000AF78606D
:101CA000396000233B617B68002B0BD14FF0500360
:101CB00083F31188BFF36F8FBFF34F8FFB6000BFBB
:101CC00000BFFDE73B68002B24D000237B611EE0B2
:101CD0001C4A7B69DB0013445B687A689A4205D131
:101CE0007B69DB00174A13443B6113E03B69002B1F
:101CF0000AD1144A7B6952F83330002B04D17B6936
:101D0000DB00104A13443B617B6901337B617B69D3
:101D1000072BDDD93B69002B0FD03B693A681A606D
:101D20003B697A685A607B68184602F025FE0146D6
:101D30003B681A46712002F099F800BF1837BD467B
:101D400080BD00BF1C2E012080B586B000AFF860BA
:101D5000B9607A60FB687B61FFF760F97B6993F893
:101D600044305BB2B3F1FF3F03D17B69002283F8BB
:101D700044207B6993F845305BB2B3F1FF3F03D158
:101D80007B69002283F84520FFF77AF97B699B6B1A
:101D9000002B06D17B6924337A68B968184600F0B5
:101DA000CFFC7869FFF710FF00BF1837BD4680BD34
:101DB00080B58CB004AFF860B9603B601346FB801F
:101DC000FB889B001846FFF75BFA78617B69002B64
:101DD00013D05820FFF754FAF861FB69002B08D0A4
:101DE00058220021F869FEF73DFAFB697A691A6307
:101DF00005E07869FFF700FB01E00023FB61FB6968
:101E0000002B13D0FA8800230393FB690293FB6A2B
:101E10000193BB6A00933B68B968F86800F00EF85C
:101E2000F86900F09BF80123BB6102E04FF0FF333B
:101E3000BB61BB6918462037BD4680BD80B588B000
:101E400000AFF860B9607A603B603B6B186B7B68F1
:101E50009B001A46A521FEF705FA3B6B1A6B7B68BF
:101E600003F18043013B9B001344BB61BB6923F03A
:101E70000703BB61BB6903F00703002B0BD04FF0D6
:101E8000500383F31188BFF36F8FBFF34F8F7B61D4
:101E900000BF00BFFDE7BB68002B1ED00023FB6125
:101EA00012E0BA68FB69134419783A6BFB69134472
:101EB00034330A461A70BA68FB6913441B78002B46
:101EC00006D0FB690133FB61FB69092BE9D900E00E
:101ED00000BF3B6B002283F83D20BB6A042B0BD96B
:101EE0004FF0500383F31188BFF36F8FBFF34F8F11
:101EF0003B6100BF00BFFDE7BB6A042B01D904238F
:101F0000BB623B6BBA6ADA623B6BBA6A9A643B6B40
:101F100004331846FFF7A4FB3B6B18331846FFF752
:101F20009FFB3B6B3A6B1A61BB6AC3F105023B6BCB
:101F30009A613B6B3A6B5A623A68F968B869FEF786
:101F400039FF02463B6B1A60FB6A002B02D0FB6A2A
:101F50003A6B1A6000BF2037BD4680BDB0B586B071
:101F600002AF7860FFF75AF84F4B1B6801334E4AB7
:101F700013604E4B1B68002B09D14C4A7B681360E1
:101F8000494B1B68012B10D100F0A0FD0DE0484B20
:101F90001B68002B09D1454B1B68DA6A7B68DB6A3A
:101FA0009A4202D8414A7B681360424B1B68013356
:101FB000404A13603F4B1A687B681A647B68002BA9
:101FC00016D07B68184602F011FC78687B6803F134
:101FD00034017B68DA6A7B681B6B1D467B681B6873
:101FE0001C467B681B6BE31A00932B4601F012FA28
:101FF0007B68184602F07EFC7B68DB6A01229A400F
:102000002D4B1B6813432C4A13607B68DA6A2B49FB
:1020100013469B0013449B000B4404331B68FB6076
:102020007B68FA689A60FB689A687B68DA60FB688C
:102030009B687A6804325A607B681A1DFB689A6054
:102040007B68DA6A13469B0013449B001B4A1A44C0
:102050007B685A617B68DA6A184913469B0013440F
:102060009B000B441B68591C144813469B001344E7
:102070009B0003441960FFF703F80D4B1B68002B0E
:102080000ED00A4B1B68DA6A7B68DB6A9A4207D279
:102090000B4B4FF080521A60BFF34F8FBFF36F8F1F
:1020A00000BF1037BD46B0BD342F01205C2E01208B
:1020B000402F0120502F01203C2F0120602E0120B5
:1020C00004ED00E080B586B002AF274B01930023FA
:1020D00000930023822225492548FFF769FEF86016
:1020E000FB68012B02D100F029FEF860FB68012B90
:1020F00024D14FF0500383F31188BFF36F8FBFF3E8
:102100004F8FBB6000BF1B4B4FF0FF321A601A4B62
:1021100001221A60194B00221A60194B1A68124BDF
:102120001B689A4202D102F045FB04E0144B1B6885
:10213000184602F09DFBFEF7CDFE0FE0FB68B3F101
:10214000FF3F0BD14FF0500383F31188BFF36F8F24
:10215000BFF34F8F7B6000BF00BFFDE7094B1B68DB
:1021600000BF1037BD4680BD582F0120504D0008DC
:102170009D2A0008542F0120402F0120382F0120D4
:102180005C2E01201C00002080B400AF044B1B68B3
:102190000133034A136000BFBD465DF8047B7047FE
:1021A0005C2F012080B588B000AF0023FB610023C5
:1021B000BB61734B1B68002B0BD14FF0500383F3B3
:1021C0001188BFF36F8FBFF34F8F7B6000BF00BFDD
:1021D000FDE7FEF723FF6A4B1B68013B684A13606B
:1021E000674B1B68002B40F0C480664B1B68002BBC
:1021F00000F0BF808EE0644BDB68DB68FB61FB694D
:102200009B6A3B61FB69DB69FA69126A9A60FB6948
:102210001B6AFA69D2695A603B695A68FB691833CC
:102220009A4203D1FB691A6A3B695A60FB69002232
:102230009A623B691B685A1E3B691A60FB695B69BD
:10224000FB60FB699B68FA69D2689A60FB69DB688E
:10225000FA6992685A60FB685A68FB6904339A42CB
:1022600003D1FB69DA68FB685A60FB6900225A6196
:10227000FB681B685A1EFB681A60FB69184602F06F
:1022800039FBFB69DB6A01229A40404B1B68134310
:102290003E4A1360FB69DA6A3D4913469B001344CA
:1022A0009B000B4404331B68BB60FB69BA689A60EF
:1022B000BB689A68FB69DA60BB689B68FA6904329C
:1022C0005A60FB691A1DBB689A60FB69DA6A13469B
:1022D0009B0013449B002E4A1A44FB695A61FB6918
:1022E000DA6A2B4913469B0013449B000B441B687E
:1022F000591C274813469B0013449B000344196054
:10230000FB69DA6A234B1B68DB6A9A4202D3224BD1
:1023100001221A601C4B1B68002B7FF46CAFFB6919
:10232000002B01D000F050FC1C4B1B687B617B69CB
:10233000002B10D000F058F80346002B02D0164BAB
:1023400001221A607B69013B7B617B69002BF1D123
:10235000124B00221A60104B1B68002B09D001237E
:10236000BB610F4B4FF080521A60BFF34F8FBFF32A
:102370006F8FFEF785FEBB6918462037BD4680BDCE
:102380005C2F0120342F0120F42E01203C2F01204E
:10239000602E01205C2E0120482F0120442F0120B7
:1023A00004ED00E080B483B000AF054B1B687B6098
:1023B0007B6818460C37BD465DF8047B704700BF4C
:1023C000382F012080B582B000AFFEF717FF002341
:1023D0007B60044B1B683B603B6818460837BD4672
:1023E00080BD00BF382F012080B58AB000AF002328
:1023F0007B62804B1B68002B40F0F1807E4B1B689A
:1024000001333B627C4A3B6A13603B6A002B21D15B
:102410007A4B1B681B68002B0BD04FF0500383F3E3
:102420001188BFF36F8FBFF34F8F7B6000BF00BF7A
:10243000FDE7724B1B68FB61714B1B686F4A1360B1
:102440006F4AFB6913606F4B1B6801336D4A136061
:1024500000F0BAFB6C4B1B683A6A9A42C0F0AA8043
:10246000664B1B681B68002B04D1674B4FF0FF3293
:102470001A609FE0614B1B68DB68DB68BB61BB696E
:102480005B687B613A6A7B699A4203D25E4A7B69E8
:1024900013608FE0BB695B693B61BB699B68BA698C
:1024A000D2689A60BB69DB68BA6992685A603B6916
:1024B0005A68BB6904339A4203D1BB69DA683B6945
:1024C0005A60BB6900225A613B691B685A1E3B690E
:1024D0001A60BB699B6A002B1ED0BB699B6AFB60BC
:1024E000BB69DB69BA69126A9A60BB691B6ABA691F
:1024F000D2695A60FB685A68BB6918339A4203D1A3
:10250000BB691A6AFB685A60BB6900229A62FB6861
:102510001B685A1EFB681A60BB69184602F0EAF98C
:10252000BB69DB6A01229A40384B1B681343374A68
:102530001360BB69DA6A364913469B0013449B005B
:102540000B4404331B68BB60BB69BA689A60BB6804
:102550009A68BB69DA60BB689B68BA6904325A60E2
:10256000BB691A1DBB689A60BB69DA6A13469B0097
:1025700013449B00264A1A44BB695A61BB69DA6A54
:10258000234913469B0013449B000B441B68591CB2
:102590001F4813469B0013449B0003441960BB690A
:1025A000DA6A1C4B1B68DB6A9A427FF659AF01233B
:1025B0007B6255E7174B1B68DA6A154913469B0087
:1025C00013449B000B441B68012B01D901237B6240
:1025D000114B1B68002B07D001237B6204E00F4BDB
:1025E0001B6801330D4A13607B6A18462837BD46C5
:1025F00080BD00BF5C2F0120382F0120EC2E012070
:10260000F02E01204C2F0120542F01203C2F0120BF
:10261000602E01205C2E0120482F0120442F012034
:1026200080B586B000AF2D4B1B68002B03D02C4B20
:1026300001221A604EE02A4B00221A60294B1B68C7
:10264000FB60FB68B3FA83F3FB72FB7AC3F11F03F1
:102650007B6125497A6913469B0013449B000B4418
:102660001B68002B0BD14FF0500383F31188BFF38D
:102670006F8FBFF34F8F7B6000BF00BFFDE77A69AC
:1026800013469B0013449B00174A13443B613B696C
:102690005B685A683B695A603B695A683B69083312
:1026A0009A4204D13B695B685A683B695A603B694E
:1026B0005B68DB680D4A13600C4B1A680C4B1B6897
:1026C0009A4202D102F076F804E0084B1B681846E3
:1026D00002F0CEF800BF1837BD4680BD5C2F012048
:1026E000482F01203C2F0120602E01205C2E01206C
:1026F000582F012080B584B000AF786039607B68C6
:10270000002B0BD14FF0500383F31188BFF36F8F71
:10271000BFF34F8FFB6000BF00BFFDE7074B1B6897
:10272000183319467868FEF7A8FF0121386800F0D1
:1027300085FA00BF1037BD4680BD00BF5C2E01206A
:1027400080B586B000AFF860B9607A60FB68002B96
:102750000BD14FF0500383F31188BFF36F8FBFF39A
:102760004F8F3B6100BF00BFFDE7FB685B687B618B
:10277000174B1B687A69DA61154B1B687A69926896
:102780001A62134B1A687B699B6818325A60104BA7
:102790001B6803F118027B699A600D4B1B68FA688D
:1027A0009A62FB681B685A1CFB681A607B68002BE6
:1027B00002D04FF0FF33BB60242001F0FDFA7968AE
:1027C000B86800F03BFA00BF1837BD4680BD00BFB7
:1027D0005C2E012080B58AB000AF78607B68DB6832
:1027E000DB683B623B6A002B0BD14FF0500383F355
:1027F0001188BFF36F8FBFF34F8FFB6000BF00BF27
:10280000FDE73B6A9B6AFB613B6ADB693A6A126AD5
:102810009A603B6A1B6A3A6AD2695A60FB695A68D5
:102820003B6A18339A4203D13B6A1A6AFB695A60C1
:102830003B6A00229A62FB691B685A1EFB691A6098
:102840004B4B1B68002B62D13B6A5B697B613B6A27
:102850009B683A6AD2689A603B6ADB683A6A926817
:102860005A607B695A683B6A04339A4203D13B6AD7
:10287000DA687B695A603B6A00225A617B691B688F
:102880005A1E7B691A603B6A184602F033F83B6AAD
:10289000DB6A01229A40374B1B681343354A1360A9
:1028A0003B6ADA6A344913469B0013449B000B448D
:1028B00004331B683B613B6A3A699A603B699A68DA
:1028C0003B6ADA603B699B683A6A04325A603B6A49
:1028D0001A1D3B699A603B6ADA6A13469B001344EF
:1028E0009B00254A1A443B6A5A613B6ADA6A2249CC
:1028F00013469B0013449B000B441B68591C1E4845
:1029000013469B0013449B00034419601BE01B4BC0
:102910005B68BB613B6ABA69DA61BB699A683B6A0A
:102920001A62BB699B683A6A18325A603B6A03F1C3
:102930001802BB699A603B6A104A9A620F4B1B6887
:1029400001330E4A13603B6ADA6A0D4B1B68DB6A7F
:102950009A4205D901237B620A4B01221A6001E0E9
:1029600000237B627B6A18462837BD4680BD00BFC6
:102970005C2F01203C2F0120602E0120F42E01202D
:102980005C2E0120482F012080B483B000AF786016
:10299000064B1A687B681A60054B1A687B685A6098
:1029A00000BF0C37BD465DF8047B70474C2F0120FB
:1029B000382F012080B588B000AF786039607B681F
:1029C000002B0BD14FF0500383F31188BFF36F8FAF
:1029D000BFF34F8F3B6100BF00BFFDE73B68002B9B
:1029E0000BD14FF0500383F31188BFF36F8FBFF308
:1029F0004F8FFB6000BF00BFFDE7FEF70FFB1F4BD3
:102A00001B68BB617B685B68BA69D31A7B613B68F2
:102A10001B68B3F1FF3F02D10023FB6126E07B6816
:102A20001A68174B1B689A420AD07B685B68BA69C0
:102A30009A4205D30123FB613B6800221A6015E02E
:102A40003B681B687A699A420BD23B681A687B69BB
:102A5000D21A3B681A607868FFF796FF0023FB6183
:102A600004E03B6800221A600123FB61FEF708FBCB
:102A7000FB6918462037BD4680BD00BF382F0120B6
:102A80004C2F012080B400AF034B01221A6000BF1D
:102A9000BD465DF8047B7047482F012080B582B0A9
:102AA00000AF786000F052F8064B1B68012BF9D993
:102AB000054B4FF080521A60BFF34F8FBFF36F8FFB
:102AC000F0E700BF602E012004ED00E080B582B089
:102AD00000AF00237B600CE07A6813469B00134430
:102AE0009B00124A13441846FEF79AFD7B68013397
:102AF0007B607B68042BEFD90D48FEF791FD0D48F4
:102B0000FEF78EFD0C48FEF78BFD0C48FEF788FDA6
:102B10000B48FEF785FD0B4B054A1A600A4B054A28
:102B20001A6000BF0837BD4680BD00BF602E01207F
:102B3000C42E0120D82E0120F42E0120082F0120C0
:102B4000202F0120EC2E0120F02E012080B582B034
:102B500000AF19E0FEF762FA104BDB68DB687B60C0
:102B60007B6804331846FEF7C1FD0D4B1B68013B23
:102B70000B4A13600B4B1B68013B0A4A1360FEF7BC
:102B80007FFA786800F010F8064B1B68002BE1D143
:102B900000BF00BF0837BD4680BD00BF082F012021
:102BA000342F01201C2F012080B582B000AF786047
:102BB0007B681B6B1846FEF71FFC7868FEF71CFC51
:102BC00000BF0837BD4680BD80B400AF0A4B1B680C
:102BD0001B68002B04D1094B4FF0FF321A6005E04F
:102BE000054B1B68DB681B68044A136000BFBD46C9
:102BF0005DF8047B704700BFEC2E0120542F0120AC
:102C000080B483B000AF0B4B1B68002B02D10123B3
:102C10007B6008E0084B1B68002B02D102237B601D
:102C200001E000237B607B6818460C37BD465DF8E9
:102C3000047B7047402F01205C2F012080B586B0B7
:102C400000AF78603960364B1B687B61354B1B6881
:102C500004331846FEF74AFD0346002B0BD1314BD7
:102C60001B68DB6A012202FA03F3DA432E4B1B686E
:102C700013402D4A13607B68B3F1FF3F24D13B68BA
:102C8000002B21D0294B5B683B61264B1B683A69BE
:102C90009A60244B1B683A699268DA60214B1A6883
:102CA0003B699B6804325A601E4B1B681A1D3B69C6
:102CB0009A601C4B1B681D4A5A611C4B1B680133F0
:102CC0001A4A136000BF26E07A697B681344FB60F0
:102CD000144B1B68FA685A60FA687B699A4209D2F9
:102CE000134B1A680F4B1B68043319461046FEF746
:102CF000C4FC10E00F4B1A680A4B1B6804331946DA
:102D00001046FEF7BAFC0C4B1B68FA689A4202D2D6
:102D1000094AFB68136000BF1837BD4680BD00BF7D
:102D2000382F01205C2E01203C2F0120202F012074
:102D3000F02E0120EC2E0120542F012080B584B00C
:102D400002AF00237B6000F04FFA124B1B68002B90
:102D50000BD0114B01930223009300234FF4827296
:102D60000E490F48FFF724F878607B68002B0BD1E1
:102D70004FF0500383F31188BFF36F8FBFF34F8F72
:102D80003B6000BF00BFFDE77B6818460837BD46C3
:102D900080BD00BF902F0120942F0120584D0008C6
:102DA000492E000880B584B000AFF860B9607A6041
:102DB00008E0FB689B69BA681344BB60FB681B6A48
:102DC000F8689847FB689A69BB68D118BB687A684D
:102DD000F86800F0DFF80346002BEAD100BF00BF1F
:102DE0001037BD4680BD000080B584B000AF78606C
:102DF0003960144B1B68DB68DB68FB60FB680433DD
:102E00001846FEF773FCFB6893F8283003F00403C0
:102E1000002B05D03A687968F868FFF7C3FF08E02F
:102E2000FB6893F8283023F00103DAB2FB6883F8DB
:102E30002820FB681B6AF868984700BF1037BD461A
:102E400080BD00BF882F012080B584B000AF7860BE
:102E500007F10803184600F059F8F860BB681946F6
:102E6000F86800F005F800F0D7F800BFF0E70000C0
:102E700080B584B000AF78603960FFF785F907F15D
:102E80000803184600F066F8F860BB68002B30D1E4
:102E90003B68002B0AD17A68FB689A4206D8FFF794
:102EA00081F9F9687868FFF79FFF24E03B68002B01
:102EB00008D0134B1B681B68002B01D1012300E0D5
:102EC00000233B600F4B18687A68FB68D31A3A6896
:102ED0001946FEF739FFFFF765F90346002B0AD1C3
:102EE000094B4FF080521A60BFF34F8FBFF36F8FC3
:102EF00001E0FFF757F900BF1037BD4680BD00BFA6
:102F00008C2F0120902F012004ED00E080B485B0CB
:102F100000AF78600E4B1B681B68002B01D10122AB
:102F200000E000227B681A607B681B68002B05D1DB
:102F3000074B1B68DB681B68FB6001E00023FB603C
:102F4000FB6818461437BD465DF8047B704700BF28
:102F5000882F012080B584B000AF7860FFF722FA97
:102F6000F8600B4B1B68FA689A4205D200F016F91C
:102F70007B6801221A6002E07B6800221A60044A22
:102F8000FB681360FB6818461037BD4680BD00BF64
:102F9000982F012080B586B000AFF860B9607A60E4
:102FA0003B6000237B61FB68BA685A60FB68FA6883
:102FB0001A61BA687B689A4212D87A683B68D21A5A
:102FC000FB689B699A4202D301237B611BE0104B93
:102FD0001A68FB68043319461046FEF74EFB12E0F0
:102FE0007A683B689A4206D2BA683B689A4202D332
:102FF00001237B6107E0074B1A68FB68043319461D
:103000001046FEF73AFB7B6918461837BD4680BD6F
:103010008C2F0120882F012080B588B000AFA9E057
:10302000BB68002BC0F2A6803B69FB61FB695B6952
:10303000002B04D0FB6904331846FEF757FB3B1DF9
:103040001846FFF787FFB861BB68013B082B00F209
:103050008E8001A252F823F07D3000087D300008F8
:10306000E5300008F9300008453100087D300008DF
:103070007D300008E5300008F9300008FB6993F85E
:10308000283043F00103DAB2FB6983F82820FA689C
:10309000FB699B69D118FB68BA69F869FFF77AFF89
:1030A0000346002B65D0FB6993F8283003F0040336
:1030B000002B09D0FA68FB699B691344BA69194669
:1030C000F869FFF76FFE08E0FB6993F8283023F0FA
:1030D0000103DAB2FB6983F82820FB691B6AF869EF
:1030E000984746E0FB6993F8283023F00103DAB2F1
:1030F000FB6983F828203DE0FB6993F8283043F012
:103100000103DAB2FB6983F82820FA68FB699A6147
:10311000FB699B69002B0BD14FF0500383F311889F
:10312000BFF36F8FBFF34F8F7B6100BF00BFFDE721
:10313000FB699A69BB69D118BB69BA69F869FFF77D
:1031400029FF17E0FB6993F8283003F00203002BF6
:1031500003D1F869FEF750F90CE0FB6993F82830C9
:1031600023F00103DAB2FB6983F8282002E000BFF4
:1031700000E000BF084B1B6807F108010022184659
:10318000FEF7E8FB0346002B7FF44AAF00BF00BF09
:103190002037BD4680BD00BF902F012080B582B092
:1031A00000AF09E00E4B1B68DB681B683B604FF00B
:1031B000FF313868FFF718FE094B1B681B68002BAE
:1031C000F0D1074B1B687B60064B1B68044A1360F9
:1031D000044A7B68136000BF0837BD4680BD00BF4E
:1031E000882F01208C2F012080B500AFFDF716FF3E
:1031F000124B1B68002B1DD11148FEF711FA114824
:10320000FEF70EFA104B0E4A1A60104B0D4A1A6068
:1032100000220C210A20FEF725FB0346074A136013
:10322000064B1B68002B05D0044B1B680849184649
:10323000FEF732FDFDF724FF00BF80BD902F012077
:10324000602F0120742F0120882F01208C2F012056
:10325000604D000880B500AF034801F0DBF903487A
:1032600001F0D8F900BF80BD684D0008AC4D0008E2
:1032700080B500AF064B1868054B1968054B064A28
:1032800000F046FD4FF0805000F086FD00BF80BD8D
:103290001400002055320008344E0008F0B585B007
:1032A00002AF00237B6033E01E497A6813469B001F
:1032B00013449B000B4418681A497A6813469B0014
:1032C00013449B000B4404331968164C7A68134668
:1032D0009B0013449B00234408331C68114D7A68FB
:1032E00013469B0013449B002B440C331D680D4E6A
:1032F0007A6813469B0013449B00334410331B68C9
:1033000000932B46224600F0EDF87B6801337B608A
:10331000054B1B687A689A42C6D300BF00BF0C37C2
:10332000BD46F0BD9C2F01203C3001202DE9F04F1F
:1033300089B000AFFFF746F8034600223B617A618F
:10334000D7E90423C7E90623D7E9060102460B465D
:103350009618BE605B41FB60D7E90223141843EB6B
:1033600001054FF000024FF00003EB0043EA5473F5
:10337000E20014461D4623183B6045EB01037B60C9
:103380004FF000024FF00003D7E900452946CB007B
:10339000214643EA51732146CA001C461346C7E939
:1033A0000634D7E9060102460B464FF000044FF001
:1033B00000055D0145EAD265540122462B46B2EB79
:1033C000000863EB01094FF000024FF000034FEAE1
:1033D000890343EA98734FEA88029046994618EBAE
:1033E000000A49EB010B4FF000024FF000034FEAD7
:1033F000CB0343EA5A734FEACA0292469B46C7E997
:1034000006ABD7E90623104619462437BD46BDE86A
:10341000F08F000080B586B002AFF860B9607A60C6
:103420003B6005222B49B86801F017FC0346002BCE
:103430004BD0294B1B68072B03D9284801F088FB88
:1034400044E0254B1A68264913469B0013449B0011
:103450000B44FA681A60204B1A68214913469B00F6
:1034600013449B000B440433BA681A601A4B1A6861
:103470001B4913469B0013449B000B4408337A6896
:103480001A60154B1A68164913469B0013449B009B
:103490000B440C333A681A600F4B1A6810491346F4
:1034A0009B0013449B000B441033BA691A600A4B0B
:1034B0001B680133084A1360BB6900933B687A6854
:1034C000B968F86800F00EF800E000BF1037BD469C
:1034D00080BD00BFBC4D00083C300120C44D000839
:1034E0009C2F012080B58AB000AFF860B9607A6087
:1034F0003B6007F11403142200211846FCF7B2FECA
:10350000FB687B61BB68BB617B68FB613B683B62BE
:103510003B6B7B6207F11403184600F083FF00BF8A
:103520002837BD4680BD000080B483B000AF244B77
:103530007B607B6803221A617B6803225A617B6887
:10354000204A9A617B68204ADA617B684FF4806286
:103550001A627B6800229A627B6800225A627B684A
:103560000022DA627B68174A1A667B68174A5A6635
:103570007B6810229A667B6800221A677B680022AB
:10358000DA667B6800225A677B680733104A106846
:103590001860BFF35F8F7B680E4A106818609188CF
:1035A000927999809A71BFF35F8F7B6820229A711C
:1035B000BFF35F8F00BF0C37BD465DF8047B7047DB
:1035C00040300120144E0008E8300120E83401208A
:1035D000204E0008244E000880B58CB000AFF86083
:1035E000B9607A603E4B3B623B6A1B78DBB2002BD2
:1035F00001D1FFF799FFFA6813465B001344DB0023
:103600006033374A1344FB61BB687B62FB691B690B
:10361000BB62FB69DB68BB610023FB62BA6ABB6902
:103620009A422BD9FB699A68BB6AD31A7B617A6983
:103630007B68934228BF13467B61FB695A68BB6A6B
:1036400013443B617A693969786A01F016FBFA6ABA
:103650007B691344FB627A6A7B6913447B627A68F4
:103660007B69D31A7B60BA6A7B691344BB62FB69CE
:103670009B68BA6A9A4201D10023BB62BA69BB6AED
:10368000D31A7B617A697B68934228BF13467B61BA
:103690007B69002B19D0FB695A68BB6A13443B61F4
:1036A0007A693969786A01F0E8FAFA6A7B69134441
:1036B000FB627A6A7B6913447B627A687B69D31AFE
:1036C0007B60BA6A7B691344BB62FB6A002B02D041
:1036D000FB69BA6A1A61FB6A18463037BD4680BD7D
:1036E0004030012080B588B000AFF860B9607A60E2
:1036F0003B603D4BBB61BB691B78DBB2002B01D14A
:10370000FFF712FFEFF311834FF0200181F31188CF
:103710007B61354B3B610023FB613969FB695A1CB6
:1037200013465B001344DB000B4404331B68002B7F
:1037300008D0FB690133FB613B691B69FA699A4256
:10374000EBDB00E000BF3B691B69FA699A423FDA94
:103750003969FB695A1C13465B001344DB000B44B8
:10376000FA681A603969FB695A1C13465B001344F6
:10377000DB000B440433BA681A603969FA691346EE
:103780005B001344DB000B4420337A681A6039690C
:10379000FA6913465B001344DB000B442833002214
:1037A0001A603969FA6913465B001344DB000B4465
:1037B000243300221A603969FA6913465B00134406
:1037C000DB000B442C333A681A60BFF35F8F02E0D2
:1037D0004FF0FF33FB617B6983F31188FB69184667
:1037E0002037BD4680BD00BF4030012080B588B085
:1037F00000AFF860B9607A603B60334BBB61BB6976
:103800001B78DBB2002B01D1FFF78EFE2E4B7B61C4
:103810007B695B691A46FB6893424DD2EFF31183D3
:103820004FF0200181F311883B61FB68002B31D000
:103830007969FA6813465B001344DB000B4460337C
:10384000BA681A607969FA6813465B001344DB00B2
:103850000B4464337A681A607969FA6813465B002E
:103860001344DB000B4468333A681A607969FA68DC
:1038700013465B001344DB000B44703300221A60D4
:103880007969FA6813465B001344DB000B446C3320
:1038900000221A607969FA6813465B001344DB0062
:1038A0000B447433BA6A1A60BFF35F8F3B6983F3CA
:1038B00011880023FB6102E04FF0FF33FB61FB69DD
:1038C00018462037BD4680BD4030012080B487B007
:1038D00000AFF860B9607A6000233B6102E03B69A9
:1038E00001333B61BA683B6913441B78002BF6D166
:1038F0003A697B689A4201D97B683B613B69FE2B40
:1039000006D8FB685A1CFA603A69D2B21A7011E004
:10391000FB685A1CFA60FF221A70FB685A1CFA6096
:103920003A69D2B21A703B69190AFB685A1CFA60EC
:10393000CAB21A7000237B610AE0BA68531CBB60EC
:10394000FB68591CF96012781A707B6901337B613E
:103950007A693B699A42F0D3FB6818461C37BD462A
:103960005DF8047B704780B483B000AF78607B68FB
:10397000043318460C37BD465DF8047B70470000E1
:1039800080B582B000AF354B1B7E1846FB1C012270
:103990001946FFF721FE03467B607B68002B59DD4B
:1039A000FB78802B32D0802B42DC072B16DC002BDF
:1039B0003EDD013B062B3BD801A252F823F000BFAD
:1039C000E3390008E9390008EF390008F539000843
:1039D000FB390008013A0008073A00087F2B34D071
:1039E00026E000F0A5FB35E000F05CFC32E000F0E2
:1039F00035FE2FE000F0FAFD2CE000F079FC29E024
:103A000001F068F826E001F047F823E0134B1B7E35
:103A10001846FB1C01221946FFF7DEFD03467B60BA
:103A20007B68002B13DDFB78184600F0B5FF0EE035
:103A3000FB785BB2002B0CDA084B1B7E1846FB1C94
:103A400001221946FFF7C8FD03E000BF02E000BFF6
:103A500000E000BF00BF0837BD4680BD0045012023
:103A600080B58CB000AF01233B713B1D0133FB617E
:103A7000FB69FB62314B5B69BB620BE0BB6ADAB28C
:103A8000FB6A591CF96262F07F02D2B21A70BB6AFB
:103A9000DB09BB62BB6A7F2BF0D8FB6A5A1CFA6257
:103AA000BA6AD2B21A70FB6AFB61254B1B68BB6114
:103AB000224BDB68BA69D31A7B61FB697B627B6945
:103AC0003B620BE03B6ADAB27B6A591C796262F0B6
:103AD0007F02D2B21A703B6ADB093B623B6A7F2BE2
:103AE000F0D87B6A5A1C7A623A6AD2B21A707B6A40
:103AF000FB61124B5B7818463B1DFA69D31A1A46D4
:103B00003B1D1946FCF764FB03463B613B69002BF8
:103B100009D00A4ABB69D360084B1B78013BDAB273
:103B2000064B1A7004E0054B5B690133034A53618D
:103B30003B6918463037BD4680BD00BF00450120B7
:103B4000041000E080B58AB000AFF860B9607A6018
:103B50006C4B1B78012B10D06A4B1B78002B00F0AC
:103B6000A380684B1B78022B09D1FFF779FF654BC7
:103B70001B78012B40F09A8001E000BF00E000BFFD
:103B80007B681F2B09D85F4BDA697B6822FA03F345
:103B900003F00103002B40F08B807B68172B07D8C4
:103BA000FB68013BFB607B68DAB2FB681A703DE0A2
:103BB000BA68FB68D31AFB61FB697F2B12D9FB69DA
:103BC000DA09FB68013BFB60D2B2FB681A70FB6943
:103BD000DBB2FA68013AFA6063F07F03DAB2FB689D
:103BE0001A7006E0FB68013BFB60FB69DAB2FB6818
:103BF0001A707B687F2B12D97B68DA09FB68013B5E
:103C0000FB60D2B2FB681A707B68DBB2FA68013ADB
:103C1000FA6063F07F03DAB2FB681A7006E0FB68B3
:103C2000013BFB607B68DAB2FB681A70364B1B689D
:103C3000BB61344BDB68BA69D31A7B61BB687B62BA
:103C40007B693B620BE03B6ADAB27B6A591C7962A2
:103C500062F07F02D2B21A703B6ADB093B623B6AB8
:103C60007F2BF0D87B6A5A1C7A623A6AD2B21A70F9
:103C70007B6ABB60234B5B781846BA68FB68D31A33
:103C80001A46F968FCF7A4FA03463B613B69002B2E
:103C900003D01C4ABB69D3600BE01A4B1B7801337D
:103CA000DAB2184B1A7004E000BF02E000BF00E077
:103CB00000BF144B1B7E1946144A0B465B000B4495
:103CC000DB0013446C331A680E4B1B7E18460F49F9
:103CD00003465B000344DB000B4470331B689A42CD
:103CE0000BD0084B9B78002B07D1064B01229A7012
:103CF000FFF746FE034B00229A7000BF2837BD46EF
:103D000080BD00BF00450120041000E040300120CC
:103D100080B586B002AFF860B9607A603B6000237E
:103D20004FF4805217491848FFF7DCFC0346DAB21B
:103D3000164B5A70154B5A78144B1A76134B1B7E40
:103D40001846002300930823114A0F49FFF74EFD40
:103D50000E4B00221A610F4B1B680C4AD3600B4AB2
:103D60007B681362094AFB685360084ABB6893602A
:103D7000064A3B685362054B00221A7000BF103799
:103D8000BD4680BDF83401202C4E000800450120BE
:103D9000F8440120041000E080B483B000AF7860E4
:103DA000044A7B68136100BF0C37BD465DF8047B95
:103DB000704700BF0045012080B584B000AF786037
:103DC000EFF311834FF0200181F31188FB60084865
:103DD000FFF7C9FDB8607A68B968B868FFF7B2FE46
:103DE000FB6883F3118800BF1037BD4680BD00BF5C
:103DF0003045012080B588B000AF78603960EFF3BE
:103E000011834FF0200181F311887B611648FFF781
:103E1000AAFD38613B69FB60FB68FB613B68BB61E5
:103E20000BE0BB69DAB2FB69591CF96162F07F02F1
:103E3000D2B21A70BB69DB09BB61BB697F2BF0D8BA
:103E4000FB695A1CFA61BA69D2B21A70FB69FB604D
:103E50007A68F9683869FFF775FE7B6983F3118822
:103E600000BF2037BD4680BD3045012080B58CB0F5
:103E700000AFF860B9607A60EFF311834FF0200172
:103E800081F31188FB612548FFF76DFDB861BB69BF
:103E90007B617B69FB62BB68BB620BE0BB6ADAB229
:103EA000FB6A591CF96262F07F02D2B21A70BB6AD7
:103EB000DB09BB62BB6A7F2BF0D8FB6A5A1CFA6233
:103EC000BA6AD2B21A70FB6A7B617B697B627B68DB
:103ED0003B620BE03B6ADAB27B6A591C796262F0A2
:103EE0007F02D2B21A703B6ADB093B623B6A7F2BCE
:103EF000F0D87B6A5A1C7A623A6AD2B21A707B6A2C
:103F00007B61FA687969B869FFF71CFEFB6983F386
:103F1000118800BF3037BD4680BD00BF304501204D
:103F200080B58EB000AFF860B9607A603B60EFF3A7
:103F300011834FF0200181F31188FB613248FFF7B4
:103F400012FDB861BB697B617B697B63BB683B63C6
:103F50000BE03B6BDAB27B6B591C796362F07F023A
:103F6000D2B21A703B6BDB093B633B6B7F2BF0D803
:103F70007B6B5A1C7A633A6BD2B21A707B6B7B6193
:103F80007B69FB627B68BB620BE0BB6ADAB2FB6AEF
:103F9000591CF96262F07F02D2B21A70BB6ADB0967
:103FA000BB62BB6A7F2BF0D8FB6A5A1CFA62BA6A02
:103FB000D2B21A70FB6A7B617B697B623B683B62B1
:103FC0000BE03B6ADAB27B6A591C796262F07F02CD
:103FD000D2B21A703B6ADB093B623B6A7F2BF0D896
:103FE0007B6A5A1C7A623A6AD2B21A707B6A7B6127
:103FF000FA687969B869FFF7A5FDFB6983F3118851
:1040000000BF3837BD4680BD3045012080B590B037
:1040100000AFF860B9607A603B60EFF311834FF056
:10402000200181F31188FB614048FFF79CFCB861D7
:10403000BB697B617B69FB63BB68BB630BE0BB6BEC
:10404000DAB2FB6B591CF96362F07F02D2B21A70CC
:10405000BB6BDB09BB63BB6B7F2BF0D8FB6B5A1CC4
:10406000FA63BA6BD2B21A70FB6B7B617B697B63BC
:104070007B683B630BE03B6BDAB27B6B591C79636B
:1040800062F07F02D2B21A703B6BDB093B633B6B81
:104090007F2BF0D87B6B5A1C7A633A6BD2B21A70C2
:1040A0007B6B7B617B69FB623B68BB620BE0BB6A3D
:1040B000DAB2FB6A591CF96262F07F02D2B21A705E
:1040C000BB6ADB09BB62BB6A7F2BF0D8FB6A5A1C58
:1040D000FA62BA6AD2B21A70FB6A7B617B697B6250
:1040E000BB6C3B620BE03B6ADAB27B6A591C7962BB
:1040F00062F07F02D2B21A703B6ADB093B623B6A14
:104100007F2BF0D87B6A5A1C7A623A6AD2B21A7054
:104110007B6A7B61FA687969B869FFF713FDFB690F
:1041200083F3118800BF4037BD4680BD3045012074
:1041300080B58CB000AF584B01221A70EFF3118399
:104140004FF0200181F31188FB60534B5B780A220A
:1041500052491846FCF73CF8FB6883F311880A20A3
:10416000FFF72AFEEFF311834FF0200181F311884E
:10417000BB604B48FFF7F7FB78607B683B603B68B0
:10418000FB62454B5B68BB620BE0BB6ADAB2FB6A61
:10419000591CF96262F07F02D2B21A70BB6ADB0965
:1041A000BB62BB6A7F2BF0D8FB6A5A1CFA62BA6A00
:1041B000D2B21A70FB6A3B603B687B62364B9B68ED
:1041C0003B620BE03B6ADAB27B6A591C796262F0AF
:1041D0007F02D2B21A703B6ADB093B623B6A7F2BDB
:1041E000F0D87B6A5A1C7A623A6AD2B21A707B6A39
:1041F0003B603B68FB61284B1B69BB610BE0BB6903
:10420000DAB2FB69591CF96162F07F02D2B21A700E
:10421000BB69DB09BB61BB697F2BF0D8FB695A1C0A
:10422000FA61BA69D2B21A70FB693B603B687B6184
:1042300000233B610BE03B69DAB27B69591C796171
:1042400062F07F02D2B21A703B69DB093B613B69C5
:104250007F2BF0D87B695A1C7A613A69D2B21A7006
:104260007B693B60182239687868FFF76BFCBB6894
:1042700083F31188084B5B6A002B02D0064B5B6A04
:10428000984700F0EBF900F0B1F900F023FC00BF13
:104290003037BD4680BD00BF004501203C4E0008C0
:1042A0003045012080B582B000AFEFF311834FF0AD
:1042B000200181F311887B600B48FFF754FB3860C5
:1042C0000A4B1B78002B07D00B2239683868FFF7A0
:1042D00039FC064B00221A707B6883F3118800BFFB
:1042E0000837BD4680BD00BF304501200045012094
:1042F00080B58CB000AFEFF311834FF0200181F354
:104300001188FB604548FFF72EFBB860BB687B60F7
:104310007B68FB62424B5B68BB620BE0BB6ADAB254
:10432000FB6A591CF96262F07F02D2B21A70BB6A52
:10433000DB09BB62BB6A7F2BF0D8FB6A5A1CFA62AE
:10434000BA6AD2B21A70FB6A7B607B687B62344BBC
:104350009B683B620BE03B6ADAB27B6A591C79626C
:1043600062F07F02D2B21A703B6ADB093B623B6AA1
:104370007F2BF0D87B6A5A1C7A623A6AD2B21A70E2
:104380007B6A7B607B68FB61254B1B69BB610BE033
:10439000BB69DAB2FB69591CF96162F07F02D2B2E3
:1043A0001A70BB69DB09BB61BB697F2BF0D8FB6965
:1043B0005A1CFA61BA69D2B21A70FB697B607B68D9
:1043C0007B6100233B610BE03B69DAB27B69591CDE
:1043D000796162F07F02D2B21A703B69DB093B61FE
:1043E0003B697F2BF0D87B695A1C7A613A69D2B25B
:1043F0001A707B697B6018227968B868FFF7A2FBA6
:10440000FB6883F31188064B5B6A002B02D0044BD8
:104410005B6A984700BF3037BD4680BD30450120FC
:104420000045012080B592B000AF7860EFF31183B2
:104430004FF0200181F311887B616A48FFF793FAFE
:1044400038613B69FB60FB687B647B681A68664B7C
:104450001B69D31A3B640BE03B6CDAB27B6C591CD2
:10446000796462F07F02D2B21A703B6CDB093B6464
:104470003B6C7F2BF0D87B6C5A1C7A643A6CD2B2BE
:104480001A707B6CFB60FB68FB637B689B68BB639B
:104490000BE0BB6BDAB2FB6B591CF96362F07F0275
:1044A000D2B21A70BB6BDB09BB63BB6B7F2BF0D83E
:1044B000FB6B5A1CFA63BA6BD2B21A70FB6BFB60CF
:1044C0007B685B6820221946F868FFF7FFF9F860FF
:1044D0000922F9683869FFF735FB3B69FB60FB6827
:1044E0007B637B681A68404B1B69D31A3B630BE004
:1044F0003B6BDAB27B6B591C796362F07F02D2B2FC
:104500001A703B6BDB093B633B6B7F2BF0D87B6BFB
:104510005A1C7A633A6BD2B21A707B6BFB60FB68F1
:10452000FB627B68DB68BB620BE0BB6ADAB2FB6AEA
:10453000591CF96262F07F02D2B21A70BB6ADB09C1
:10454000BB62BB6A7F2BF0D8FB6A5A1CFA62BA6A5C
:10455000D2B21A70FB6AFB60FB687B627B681B69E6
:104560003B620BE03B6ADAB27B6A591C796262F00B
:104570007F02D2B21A703B6ADB093B623B6A7F2B37
:10458000F0D87B6A5A1C7A623A6AD2B21A707B6A95
:10459000FB60FB68FB610023BB610BE0BB69DAB227
:1045A000FB69591CF96162F07F02D2B21A70BB69D3
:1045B000DB09BB61BB697F2BF0D8FB695A1CFA6130
:1045C000BA69D2B21A70FB69FB601522F9683869C2
:1045D000FFF7B8FA7B6983F3118800BF4837BD46FF
:1045E00080BD00BF304501200045012080B500AFEF
:1045F000074B1B6A002B08D0054B1B6A5B68002B1E
:1046000003D0034B1B6A5B68984700BF80BD00BFA7
:104610000045012080B586B000AF7860EFF31183CC
:104620004FF0200181F311887B610B48FFF79BF964
:104630003861802279683869FFF748F9F8600E22FE
:10464000F9683869FFF77EFA7B6983F3118800BF48
:104650001837BD4680BD00BF3045012090B583B0FE
:1046600000AF154B1B6A002B1AD0134B1B6A1B683B
:10467000002B15D0104B1B6A1B689847C7E9000137
:104680003C68D7E900014FF000024FF000030A0038
:10469000002313461A4621460D20FFF7E7FB06E0EC
:1046A000064B1B6819460C20FFF7A4FB00BF00BF98
:1046B0000C37BD4690BD00BF00450120041000E04E
:1046C00080B586B000AFEFF311834FF0200181F386
:1046D0001188FB601948FFF746F9B860BB687B603A
:1046E000174B1B68C3F308033B607B687B613B6827
:1046F0003B610BE03B69DAB27B69591C796162F07E
:104700007F02D2B21A703B69DB093B613B697F2BA8
:10471000F0D87B695A1C7A613A69D2B21A707B6907
:104720007B6002227968B868FFF70CFAFB6883F3B4
:10473000118800BF1837BD4680BD00BF304501203D
:1047400004ED00E080B582B000AFEFF311834FF0CD
:10475000200181F311887B600748FFF704F9386076
:10476000032239683868FFF7EDF97B6883F3118815
:1047700000BF0837BD4680BD3045012080B582B0FE
:1047800000AFEFF311834FF0200181F311887B60BC
:104790000748FFF7E8F83860122239683868FFF7F1
:1047A000D1F97B6883F3118800BF0837BD4680BD0F
:1047B0003045012080B582B000AFEFF311834FF098
:1047C000200181F311887B600748FFF7CCF838603F
:1047D000112239683868FFF7B5F97B6883F31188CF
:1047E00000BF0837BD4680BD3045012080B588B088
:1047F00000AF7860EFF311834FF0200181F311884F
:104800007B611948FFF7AFF838613B69FB60174BD4
:104810001B697A68D31A7B60FB68FB617B68BB61AC
:104820000BE0BB69DAB2FB69591CF96162F07F02E7
:10483000D2B21A70BB69DB09BB61BB697F2BF0D8B0
:10484000FB695A1CFA61BA69D2B21A70FB69FB6043
:104850000822F9683869FFF775F97B6983F31188D5
:1048600000BF2037BD4680BD3045012000450120F6
:1048700080B588B000AF7860EFF311834FF020016E
:1048800081F311887B611948FFF76DF838613B6946
:10489000FB60174B1B697A68D31A7B60FB68FB616E
:1048A0007B68BB610BE0BB69DAB2FB69591CF9613B
:1048B00062F07F02D2B21A70BB69DB09BB61BB69CF
:1048C0007F2BF0D8FB695A1CFA61BA69D2B21A7010
:1048D000FB69FB600422F9683869FFF733F97B69EB
:1048E00083F3118800BF2037BD4680BD30450120CD
:1048F0000045012080B588B000AF7860EFF31183E8
:104900004FF0200181F311887B611948FFF72BF8E4
:1049100038613B69FB60174B1B697A68D31A7B606F
:10492000FB68FB617B68BB610BE0BB69DAB2FB69CA
:10493000591CF96162F07F02D2B21A70BB69DB09BF
:10494000BB61BB697F2BF0D8FB695A1CFA61BA695D
:10495000D2B21A70FB69FB600622F9683869FFF76A
:10496000F1F87B6983F3118800BF2037BD4680BD15
:10497000304501200045012080B483B000AF78604D
:10498000044B1B697A68D31A18460C37BD465DF88C
:10499000047B70470045012080B58CB000AF034612
:1049A000FB713B4B1B68002B6DD0394B1B68FB62C6
:1049B0000023BB6208E0FB6A1B69FB62FB6A002BF9
:1049C00007D0BB6A0133BB62FB79BA6A9A42F2D361
:1049D00000E000BFFB6A002B55D0EFF311834FF0CE
:1049E000200181F311887B612A48FEF7BCFF386102
:1049F0003B69FB60FB687B62FB793B620BE03B6AD7
:104A0000DAB27B6A591C796262F07F02D2B21A7004
:104A10003B6ADB093B623B6A7F2BF0D87B6A5A1CFE
:104A20007A623A6AD2B21A707B6AFB60FB68FB61F9
:104A3000FB6A9B68BB610BE0BB69DAB2FB69591C7E
:104A4000F96162F07F02D2B21A70BB69DB09BB6107
:104A5000BB697F2BF0D8FB695A1CFA61BA69D2B2E4
:104A60001A70FB69FB60FB6A1B6880221946F868B4
:104A7000FEF72CFFF8601622F9683869FFF762F834
:104A80007B6983F3118800BF3037BD4680BD00BF0E
:104A9000284501203045012080B582B000AF0C4B85
:104AA0001B68002B0FD00A4B1B687B607B68DB68A0
:104AB000002B02D07B68DB6898477B681B697B60B2
:104AC0007B68002BF2D100BF0837BD4680BD00BF18
:104AD0002845012080B586B000AFEFF311834FF079
:104AE000200181F31188FB601748FEF73CFFB86096
:104AF000BB687B607B687B61144B1B783B610BE080
:104B00003B69DAB27B69591C796162F07F02D2B2EB
:104B10001A703B69DB093B613B697F2BF0D87B69ED
:104B20005A1C7A613A69D2B21A707B697B601B2287
:104B30007968B868FFF706F8FB6883F3118800BF4F
:104B40001837BD4680BD00BF304501202C450120EF
:104B500080B58AB000AF7860EFF311834FF0200189
:104B600081F311887B612748FEF7FDFE38618022C2
:104B700079683869FEF7AAFEF860FB687B6201235A
:104B80003B620BE03B6ADAB27B6A591C796262F0E5
:104B90007F02D2B21A703B6ADB093B623B6A7F2B11
:104BA000F0D87B6A5A1C7A623A6AD2B21A707B6A6F
:104BB000FB60FB68FB610023BB610BE0BB69DAB201
:104BC000FB69591CF96162F07F02D2B21A70BB69AD
:104BD000DB09BB61BB697F2BF0D8FB695A1CFA610A
:104BE000BA69D2B21A70FB69FB601A22F968386997
:104BF000FEF7A8FF7B6983F3118800BF2837BD4605
:104C000080BD00BF304501200D488546AFF30080D0
:104C10000C480D490D4A002302E0D458C450043317
:104C2000C4188C42F9D30A4A0A4C002301E01360ED
:104C30000432A242FBD3FBF71DFBFBF783FFFEE729
:104C4000000002200000002020000020544E000838
:104C50002000002014460120FEE710B5013902446F
:104C6000904201D1002005E0037811F8014FA342E2
:104C700001D0181B10BD0130F2E70A44914200F147
:104C8000FF3300D1704710B511F8014B03F8014F05
:104C90009142F9D110BD0000F8B500BFF8BC08BCC6
:104CA0009E467047F8B500BFF8BC08BC9E467047EA
:104CB00048656C6C6F20776F726C642066726F6DE4
:104CC000205461736B2D31005461736B2D310000E2
:104CD00048656C6C6F20776F726C642066726F6DC4
:104CE000205461736B2D32005461736B2D320000C0
:104CF00048656C6C6F20776F726C642066726F6DA4
:104D0000205461736B2D33005461736B2D3300009D
:104D100048656C6C6F20776F726C642066726F6D83
:104D2000205461736B2D34005461736B2D3400007B
:104D30005461736B2D3500005461736B2D36000088
:104D40005461736B2D3700005461736B2D38000074
:104D500049444C4500000000546D722053766300B6
:104D6000546D7251000000004E3D4672656552540C
:104D70004F532048656C6C6F20576F726C642041F4
:104D800070706C69636174696F6E2C443D53544D4F
:104D90003332463430372D444953432D312C4F3D67
:104DA0004672656552544F53000000004923313567
:104DB0003D5379735469636B0000000049444C45CE
:104DC0000000000053595354454D564945573A2069
:104DD000436F756C64206E6F74207265636F7264CC
:104DE000207461736B20696E666F726D6174696F98
:104DF0006E2E204D6178696D756D206E756D6265E2
:104E000072206F66207461736B73207265616368D2
:104E100065642E005465726D696E616C000000005F
:104E20005254540053454747455200005379735636
:104E3000696577002D3300089D32000800000000EE
:084E400000000000000000006A
:084E4800C1020008B5010008D9
:044E500091010008C4
:104E54003C000020003C02400038024000100040AA
:104E64000100000000590001AAAAAAAA0400000037
:0400000508004C099A
:00000001FF
