:020000040800F2
:1000000000000220FD0C00084D0D00084D0D0008F9
:100010004D0D00084D0D00084D0D000800000000BA
:100020000000000000000000000000004D0D00086E
:1000300000000000000000004D0D00084D0D0008FC
:100040004D0D00084D0D00084D0D00084D0D000828
:10005000000000004D0D00084D0D00084D0D00087A
:100060004D0D00084D0D00084D0D00084D0D000808
:100070004D0D00084D0D00084D0D00084D0D0008F8
:100080004D0D00084D0D00084D0D00084D0D0008E8
:100090004D0D00084D0D00084D0D00084D0D0008D8
:1000A0004D0D00084D0D00084D0D00084D0D0008C8
:1000B0004D0D00084D0D00084D0D00084D0D0008B8
:1000C0004D0D00084D0D00084D0D00084D0D0008A8
:1000D0004D0D00084D0D00084D0D00084D0D000898
:1000E0004D0D00084D0D00084D0D00084D0D000888
:1000F0004D0D00084D0D00084D0D00084D0D000878
:100100004D0D00084D0D00084D0D00084D0D000867
:100110004D0D00084D0D00084D0D00084D0D000857
:100120004D0D00084D0D00084D0D00084D0D000847
:100130004D0D00084D0D00084D0D00084D0D000837
:100140004D0D00084D0D00084D0D00084D0D000827
:100150004D0D00084D0D00084D0D00084D0D000817
:100160004D0D00084D0D00084D0D00084D0D000807
:100170004D0D00084D0D00084D0D00084D0D0008F7
:080180004D0D00084D0D0008B3
:1001880010B5054C237833B9044B13B10448AFF3C9
:1001980000800123237010BD5C00002000000000D7
:1001A800500D000808B5034B1BB103490348AFF3D2
:1001B800008008BD0000000060000020500D00080D
:1001C80070B50D4D0D4C641BA4100026A64209D134
:1001D8000B4D0C4C00F0B8FD641BA4100026A64281
:1001E80005D170BD55F8043B98470136EEE755F840
:1001F800043B98470136F2E7900D0008900D00087F
:10020800900D0008980D000870477047024B13B115
:10021800024800F005B870470000000035020008E9
:10022800002301461A46184600F014B838B5074DA1
:10023800074C641BA4101CB9BDE8384000F08ABD07
:10024800013C55F824309847F5E700BF980D0008A1
:100258009C0D00082DE9F047DFF874A00646DAF88F
:10026800000098460F469146FFF7CEFF164B1C68D4
:100278000CB9164C1C606568DAF800001F2D05DD06
:10028800FFF7C3FF4FF0FF30BDE8F0879EB104EBE6
:1002980085010122C1F88890D4F88831AA40134317
:1002A800C4F88831022EC1F8088102BFD4F88C3115
:1002B8001343C4F88C316B1C0235636044F8257015
:1002C800FFF7A3FF0020DFE77C000020800000206C
:1002D80000000020024B1B681A6810431860704722
:1002E8000400002070B44FEA410C066802FA0CF5CD
:1002F80035430560456803FA01F42C4344609DF8D2
:100308000C30846803FA0CF3234383609DF81030A3
:10031800C46803FA0CF32343022AC3609DF814301F
:1003280001D070BC7047072907D80CB2026AA40034
:10033800A340134370BC0362704701F00701426A8F
:1003480089008B40134370BC43627047012906D073
:1003580081691032012393400B438361704783699D
:100368009140194381617047036801290CBF43F02C
:10037800010323F001030360704700BF436832297B
:1003880028BF322102292CBF0B4343F002034360EC
:10039800704700BF426810B4C46902F03F024FF4CE
:1003A800FA7302FB03F30132B3FBF1F32343C36196
:1003B8005DF8044B02627047036843F4807303607E
:1003C8004369DB07FCD549004369016143699B0721
:1003D800FCD54369836943691906FCD50261436901
:1003E8001A06FCD543695B07FCD5036843F4007320
:1003F80003607047012803D002280FD038B1704736
:100408000A4B1A68136843F4803313607047074B2C
:100418001A68136843F0010313607047034B1A68A6
:10042800136843F080731360704700BF0800002012
:10043800012803D002280DD030B17047084B1A6844
:1004480013689903FCD57047054B1A681368980719
:10045800FCD57047024B1A6813689B01FCD570479E
:1004680008000020054B1A6893680343936093685B
:10047800C3F381039842FAD1704700BF08000020F7
:10048800064A126801294FF00103116B03FA00F3C1
:100498000CBF0B4321EA03031363704708000020D5
:1004A800064A126801294FF00103116C03FA00F3A0
:1004B8000CBF0B4321EA03031364704708000020B4
:1004C80030B40B4C2468656800256560656845EAAA
:1004D80080556560606801436160616841EA821126
:1004E8006160626842EA0342626030BC704700BFE4
:1004F80008000020054B1B689A6842F400429A6085
:100508009A6842F4A0529A60704700BF0800002021
:1005180081627047C16270470B4B1A6800215162B3
:10052800136843F00103136048B1136923F0010312
:1005380013611369DB07FCD501318842F5D11368D3
:1005480023F00103136070470C00002008B5FFF783
:10055800D1FF0023A82204210120FFF7B1FF0120C9
:10056800FFF748FF0120FFF763FF0520FFF7B2FE02
:100578000220FFF73FFF0220FFF75AFF0220FFF794
:1005880071FF01210846FFF77BFF01211520FFF7C6
:1005980087FF01210220FFF773FF01210320FFF7E6
:1005A8006FFFBDE8084001210420FFF779BF00BFB5
:1005B800F0B51F4D1F4E85B0002423462846CDE9CF
:1005C800014401220C210094FFF78CFE23462846A3
:1005D800CDE9014401220D210094FFF783FE234653
:1005E8002846CDE9014401220E210094FFF77AFE46
:1005F80001222346284604271546CDE901440094E4
:100608000F21FFF76FFE2B463046CDE901570094C6
:1006180002220821FFF766FECDE9015700942B4618
:10062800022207213046FFF75DFE05B0F0BD00BF8E
:10063800000C02400004024038B50E4D0E4CFFF786
:1006480085FF28465321FFF763FF284640F2E7312C
:10065800FFF760FF20462A21FFF790FE204664211D
:10066800FFF798FE20460121FFF77EFEBDE83840DF
:10067800FFF79EBF00100040005400402DE9F041F4
:100688001020FFF749FFD048D04DCF4E3C222721FC
:10069800FFF792FE38222721CB48FFF78DFE062070
:1006A800FFF73AFFC8483C222721FFF785FE38228A
:1006B8002721C548FFF780FE0120FFF72DFFC2481C
:1006C8003C222721FFF778FE38222721BE48FFF772
:1006D80073FE0220FFF720FFBB482C222721FFF7DB
:1006E8006BFE28222721B848FFF766FE0220FFF795
:1006F80013FFB5482C222721FFF75EFEB2482822B7
:100708002721FFF759FEB048CC222721FFF754FED6
:10071800C8222721AC48FFF74FFE0220FFF7FCFE56
:10072800A9480C222721FFF747FEA74808222721BE
:10073800FFF742FEA4488C222721FFF73DFE8822BE
:100748002721A148FFF738FE0220FFF7E5FE9E4863
:100758000C222721FFF730FE9B4808222721FFF7AC
:100768002BFE99481C222721FFF726FE1822272155
:100778009548FFF721FE0220FFF7CEFE92480C2293
:100788002721FFF719FE904808222721FFF714FEBA
:100798008D486C222721FFF70FFE682227218A48FF
:1007A800FFF70AFE0220FFF7B7FE87480C22272131
:1007B800FFF702FE844808222721FFF7FDFD824843
:1007C800CC222721FFF7F8FD7F48C8222721FFF711
:1007D800F3FDAF1C15F8014B240164B244F00D027F
:1007E800272102F0FD023046FFF7E6FD44F009023A
:1007F80002F0F90227213046FFF7DEFDBD42E9D1BC
:10080800734D714EAF1C15F8014B240164B244F0CE
:100818000D02272102F0FD023046FFF7CDFD44F01E
:10082800090202F0F90227213046FFF7C5FDBD4253
:10083800E9D1684D644EAF1C15F8014B240164B230
:1008480044F00D02272102F0FD023046FFF7B4FD07
:1008580044F0090202F0F90227213046FFF7ACFD07
:10086800BD42E9D15C4D584EAF1C15F8014B24012F
:1008780064B244F00D02272102F0FD023046FFF772
:100888009BFD44F0090202F0F90227213046FFF7E8
:1008980093FDBD42E9D1514D4B4EAF1C15F8014BAC
:1008A800240164B244F00D02272102F0FD02304613
:1008B800FFF782FD44F0090202F0F90227213046D1
:1008C800FFF77AFDBD42E9D1454D3F4EAF1C15F803
:1008D800014B240164B244F00D02272102F0FD020D
:1008E8003046FFF769FD44F0090202F0F9022721BA
:1008F8003046FFF761FDBD42E9D13A4E324FB51C93
:1009080016F8014B240164B244F00D02272102F0CD
:10091800FD023846FFF750FD44F0090202F0F902E3
:1009280027213846FFF748FDAE42E9D12D4E264F24
:1009380016F8014B240164B244F00D02272102F09D
:10094800FD023846FFF738FD44F0090202F0F902CB
:1009580027213846FFF730FDAE42E9D1224E1A4F23
:10096800B51C16F8014B240164B244F00D0227218E
:1009780002F0FD023846FFF71FFD44F0090202F0BD
:10098800F90227213846FFF717FDAE42E9D1164E86
:100998000D4F16F8014B240164B244F00D022721D3
:1009A80002F0FD023846FFF707FD44F0090202F0A5
:1009B800F90227213846FFF7FFFCAE42E9D10B4E7A
:1009C800014F06F1020813E0005400402000002007
:1009D80024000020180000201C0000201000002027
:1009E80014000020580000204C0000205400002073
:1009F80016F8014B240164B244F00D02272102F0DD
:100A0800FD023846FFF7D8FC44F0090202F0F9026B
:100A180027213846FFF7D0FC4645E9D1324E334FFF
:100A280006F1020816F8014B240164B244F00D02E5
:100A3800272102F0FD023846FFF7BEFC44F0090208
:100A480002F0F90227213846FFF7B6FC4645E9D1FE
:100A5800274E264F16F8014B240164B244F00D02CC
:100A6800272102F0FD023846FFF7A6FC44F00902F0
:100A780002F0F90227213846FFF79EFCAE42E9D181
:100A88001B4E1A4F16F8014B240164B244F00D02B4
:100A9800272102F0FD023846FFF78EFC44F00902D8
:100AA80002F0F90227213846FFF786FCAE42E9D169
:100AB800104D0E4EAF1C15F8014B240164B244F0E2
:100AC8000D02272102F0FD023046FFF775FC44F0C5
:100AD800090202F0F90227213046FFF76DFCBD42FA
:100AE800E9D1BDE8F08100BF480000200054004073
:100AF8004C000020500000202DE9F0438DB0434BFE
:100B0800434F0093434B01939146054688460FCFC8
:100B180002AC0FC40FCF0FC497E803003E4E84E821
:100B280003008C2230462721FFF746FC88223046F6
:100B38002721FFF741FC7C2230462721FFF73CFCA8
:100B4800782230462721FFF737FC344BA3FB0939BD
:100B58004FEA59190CAB03EB890959F8309C09F194
:100B6800020719F8014B240164B244F00D02272151
:100B780002F0FD023046FFF71FFC44F0090202F0C4
:100B8800F90227213046FFF717FC4F45E9D10CAB96
:100B980003EB8808204F58F8286C06F1020816F86D
:100BA800014B240164B244F00D02272102F0FD023A
:100BB8003846FFF701FC44F0090202F0F902272148
:100BC8003846FFF7F9FB4645E9D10CAB03EB850541
:100BD800114E55F8285CAF1C15F8014B240164B27E
:100BE80044F00D02272102F0FD023046FFF7E4FB36
:100BF80044F0090202F0F90227213046FFF7DCFB36
:100C0800BD42E9D10DB0BDE8F08300BF5800002017
:100C1800680D000848000020005400401F85EB5173
:100C280008B5FFF709FD0E4D0E4CFFF727FD06E04E
:100C38000A4608462A70FFF75FFF00F015F82A7881
:100C48000132D2B2642A4FF00001F1D8A4FB02317C
:100C5800C90801EB8100A2EB4000C0B2C9B2E9E7C4
:100C680010020020CDCCCCCC10B5214C0C22012197
:100C78002046FFF76BFB6420FFF74EFC0C22002197
:100C88002046FFF763FB6420FFF746FC0D22012195
:100C98002046FFF75BFB6420FFF73EFC0D22002196
:100CA8002046FFF753FB6420FFF736FC0E22012194
:100CB8002046FFF74BFB6420FFF72EFC0E22002195
:100CC8002046FFF743FB6420FFF726FC0F22012193
:100CD8002046FFF73BFB6420FFF71EFC20460F224F
:100CE8000021FFF733FBBDE810406420FFF714BC78
:100CF800000C02400D488546AFF300800C480D49B2
:100D08000D4A002302E0D458C4500433C4188C425E
:100D1800F9D30A4A0A4C002301E013600432A242C4
:100D2800FBD3FFF74DFAFFF77BFFFEE70000022039
:100D3800000000205C0000209C0D00085C000020E2
:100D480014020020FEE70000F8B500BFF8BC08BC9C
:100D58009E467047F8B500BFF8BC08BC9E46704771
:100D68004C000020480000204400002040000020E3
:100D78003C00002038000020340000203000002013
:080D88002C00002028000020CF
:080D900015020008AD01000886
:040D980089010008C5
:100D9C0078000020003C0240003802400010004067
:100DAC000702000006040000060300000601000014
:100DBC000503000004040000030900000308000000
:100DCC0003070000030600000305000003040000F5
:100DDC0003030000030200000301000003000000F5
:0C0DEC0002050000020F000002000000E1
:0400000508000CFDE6
:00000001FF
