:020000040800F2
:1000000000000220492F0008992F0008992F0008AE
:10001000992F0008992F0008992F00080000000070
:10002000000000000000000000000000B10A00080D
:100030000000000000000000510B0008B50B000894
:10004000992F0008992F0008992F0008992F000870
:1000500000000000992F0008992F0008992F000830
:10006000992F0008992F0008992F0008992F000850
:10007000992F0008992F0008992F0008992F000840
:10008000992F0008992F0008992F0008992F000830
:10009000992F0008992F0008992F0008992F000820
:1000A000992F0008992F0008992F0008992F000810
:1000B000992F0008992F0008992F0008992F000800
:1000C000992F0008992F0008992F0008992F0008F0
:1000D000992F0008992F0008992F0008992F0008E0
:1000E000992F0008992F0008992F0008992F0008D0
:1000F000992F0008992F0008992F0008992F0008C0
:10010000992F0008992F0008992F0008992F0008AF
:10011000992F0008992F0008992F0008992F00089F
:10012000992F0008992F0008992F0008992F00088F
:10013000992F0008992F0008992F0008992F00087F
:10014000992F0008992F0008992F0008992F00086F
:10015000992F0008992F0008992F0008992F00085F
:10016000992F0008992F0008992F0008992F00084F
:10017000992F0008992F0008992F0008992F00083F
:08018000992F0008992F0008D7
:1001900010B5054C237833B9044B13B10448AFF3C1
:1001A00000800123237010BD20000020000000000B
:1001B000D82F000808B5034B1BB103490348AFF320
:1001C000008008BD0000000024000020D82F000897
:1001D000F0B400EB4003DFF8880000EBC30000F14F
:1001E00018063069F7687568874232D3B368DC1B3C
:1001F000631E934214D37D19D01900BF11F8013B3F
:1002000005F8013B013A05D011F8013B05F8013B27
:10021000013AF3D1BFF35F8FF0600120F0BC70476B
:10022000C018904219D37819121B11F8013B00F83D
:10023000013B013CF9D1141C05D011F8013B05F834
:10024000013B013AF9D1BFF35F8FF4600120F0BCAC
:100250007047C01B01389042CDD20020F0BC7047DF
:100260005434012002440346934200D1704703F8FE
:10027000011BF9E770B50D4D0D4C641BA410002651
:10028000A64209D10B4D0C4C02F0A6FE641BA41033
:100290000026A64205D170BD55F8043B98470136AB
:1002A000EEE755F8043B98470136F2E78031000845
:1002B000803100088031000888310008704770479D
:1002C000024B13B1024800F005B87047000000006F
:1002D000E1020008002301461A46184600F014B84F
:1002E00038B5074D074C641BA4101CB9BDE8384055
:1002F00002F078BE013C55F824309847F5E700BF7E
:10030000883100088C3100082DE9F047DFF874A02F
:100310000646DAF8000098460F469146FFF7CEFFF2
:10032000164B1C680CB9164C1C606568DAF80000A6
:100330001F2D05DDFFF7C3FF4FF0FF30BDE8F0874D
:100340009EB104EB85010122C1F88890D4F8883170
:10035000AA401343C4F88831022EC1F8088102BFB5
:10036000D4F88C311343C4F88C316B1C02356360B4
:1003700044F82570FFF7A3FF0020DFE740000020CE
:100380004400002000000020024B1B681A68104344
:1003900018607047040000200368520091400B432E
:1003A00003607047436891400B4343607047836824
:1003B000520091400B4383607047C36852009140E4
:1003C0000B43C3607047012907D0836910320121B4
:1003D00001FA02F2134383617047836901FA02F262
:1003E000134383617047072905D8036A89008A404F
:1003F00013430362704701F00701436A89008A4092
:10040000134343627047F8B505460C4616461F462F
:100410000A463146FFF7C0FF224639462846FFF715
:10042000C1FF22469DF818102846FFF7C0FF22465C
:100430009DF81C102846FFF7C0FF022E00D0F8BD23
:100440009DF8202021462846FFF7CDFFF7E70069F9
:1004500001238B40DBB218407047000001280AD00E
:1004600002280FD000B170470A4B1A68136843F096
:10047000010313607047074B1A68136843F4803315
:1004800013607047034B1A68136843F0807313605E
:10049000E9E700BF0800002001280AD002280FD099
:1004A00000B170470A4B1B681B6813F0020FF9D0AC
:1004B0007047074B1B681B6813F4003FF9D0704767
:1004C000034B1B681B6813F0007FF9D0E9E700BFFE
:1004D00008000020054B1A689368034393609368F3
:1004E000C3F381039842FAD1704700BF080000208F
:1004F000012908D0084B19680B6B0122824023EABE
:1005000002030B637047044B19680B6B0122824096
:1005100013430B63704700BF08000020012908D077
:10052000084B19680B6C0122824023EA02030B641A
:100530007047044B19680B6C0122824013430B6413
:10054000704700BF0800002030B40B4C2468656879
:1005500000256560656845EA805565606068084308
:100560006060616841EA82116160626842EA034248
:10057000626030BC704700BF08000020054B1B685C
:100580009A6842F400429A609A6842F4A0529A60D3
:10059000704700BF0800002000234362036843F057
:1005A000010303607047036823F001030360704791
:1005B00010B504460B4B1868FFF7EEFF00210AE068
:1005C000084B1A68136923F001031361136913F0D0
:1005D000010FFBD00131A142F2D3024B1868FFF7A3
:1005E000E2FF10BD0C00002008B501210846FFF70E
:1005F0007FFF01211520FFF791FF01210220FFF766
:1006000077FF01210320FFF773FF01210420FFF78B
:1006100085FF01210020FFF76BFF08BD08B5FFF73C
:10062000ADFF08BD08B5FFF7F9FF0023A82204219C
:100630000120FFF789FF0120FFF710FF0120FFF7DE
:100640002BFF0520FFF7A0FE0220FFF707FF022087
:10065000FFF722FF0220FFF73DFFFFF7C5FF08BDB0
:10066000F0B585B0224D00240294019400942346F5
:1006700001220C212846FFF7C6FE02940194009443
:10068000234601220D212846FFF7BDFE0294019466
:100690000094234601220E212846FFF7B4FE02945F
:1006A00001940094234601220F212846FFF7ABFE58
:1006B000104E042702970125019500942B46022233
:1006C00008213046FFF79FFE0297019500942B46C4
:1006D000022207213046FFF796FE0294019400940F
:1006E0002346224621460448FFF78DFE05B0F0BDA3
:1006F000000C0240000402400000024008B5FFF771
:1007000091FFFFF7ADFF08BD08B50F220021024899
:10071000FFF759FEF9E700BF000C024008B50E22B2
:1007200000210248FFF74FFEF9E700BF000C02402E
:1007300008B50D2200210248FFF745FEF9E700BF8A
:10074000000C024008B50C2200210248FFF73BFED6
:10075000F9E700BF000C024008B50F220121024852
:10076000FFF731FEF9E700BF000C024008B50E228A
:1007700001210248FFF727FEF9E700BF000C024005
:1007800008B50D2201210248FFF71DFEF9E700BF61
:10079000000C024008B50BE0144B1B78ABB90121EB
:1007A000124B19700320FFF7A3FE6420FFF700FF30
:1007B0000C2201210E48FFF706FE00210D48FFF72D
:1007C00046FE0D4B18700128E6D00128F0D1074BEA
:1007D0001B78012BECD10021044B19700320FFF78B
:1007E00087FE6420FFF7E4FEE2E700BF1000002070
:1007F000000C024000000240D401002000B583B08C
:10080000FFF77CFF614A136843F00103136001F0B6
:100810000FFD01F07BFF5E4B0193022300935D4BC4
:10082000C8225D495D4800F0C9FF5D4B1860012892
:1008300008D04FF0500383F31188BFF36F8FBFF3DD
:100840004F8FFEE7574B019302230093564BC8226C
:100850005649574800F0B2FF514B1860012808D0A4
:100860004FF0500383F31188BFF36F8FBFF34F8FA7
:10087000FEE7504B0193022300934F4BC8224F4990
:100880004F4800F09BFF464A1060012808D04FF007
:10089000500383F31188BFF36F8FBFF34F8FFEE7D1
:1008A000484B019302230093474BC82247494848CD
:1008B00000F084FF3A4A1060012808D04FF050033E
:1008C00083F31188BFF36F8FBFF34F8FFEE7414B68
:1008D0000193022300932F4BC8223F493F4800F069
:1008E0006DFF2F4A1060012808D04FF0500383F3AA
:1008F0001188BFF36F8FBFF34F8FFEE7384B019323
:1009000002230093284BC8223649374800F056FF8F
:10091000234A1060012808D04FF0500383F3118858
:10092000BFF36F8FBFF34F8FFEE7304B019302236E
:100930000093214BC8222E492E4800F03FFF184A51
:100940001060012808D04FF0500383F31188BFF3E3
:100950006F8FBFF34F8FFEE7274B01930223009366
:10096000194BC8222549264800F028FF0C4A106080
:10097000012808D04FF0500383F31188BFF36F8F25
:10098000BFF34F8FFEE700F04DFFFEE7001000E0E1
:10099000F8010020F02F0008083000089507000833
:1009A000D8010020F4010020103000082830000891
:1009B00081070008F00100203030000848300008AE
:1009C0006D070008EC010020503000086830000876
:1009D00059070008E80100207030000845070008AA
:1009E000E40100207830000831070008E001002011
:1009F000803000081D070008DC0100208830000856
:100A00000907000882B0002301930D4B1B68B3F166
:100A1000FF3F08D04FF0500383F31188BFF36F8F6F
:100A2000BFF34F8FFEE74FF0500383F31188BFF3FE
:100A30006F8FBFF34F8F019B002BFCD002B070472C
:100A40001800002008480068006880F308884FF00C
:100A5000000080F3148862B661B6BFF34F8FBFF316
:100A60006F8F00DF00BF000008ED00E0DFF80C0032
:100A7000016841F4700101607047000088ED00E0FA
:100A80004FF0807340F8043C21F0010140F8081C4D
:100A9000054B40F80C3C40F8202C6FF0020340F866
:100AA000243C4438704700BF050A000800000000DD
:100AB000074B19680868B0E8F04F80F30988BFF366
:100AC0006F8F4FF0000080F311887047AFF3008004
:100AD000602F01204FF0500383F31188BFF36F8F15
:100AE000BFF34F8F0B4A136801331360012B00D003
:100AF00070474FF0E023D3F8043D13F0FF0FF7D019
:100B00004FF0500383F31188BFF36F8FBFF34F8F04
:100B1000FEE700BF18000020094B1B6843B94FF0E7
:100B2000500383F31188BFF36F8FBFF34F8FFEE73E
:100B3000013B034A13600BB983F31188704700BF70
:100B4000180000200000000000000000000000006D
:100B5000EFF30980BFF36F8F154B1A681EF0100F6B
:100B600008BF20ED108A20E9F04F10602DE9090040
:100B70004FF0500080F31188BFF34F8FBFF36F8F9A
:100B800001F020F84FF0000080F3118809BC1968CB
:100B90000868B0E8F04F1EF0100F08BFB0EC108AE4
:100BA00080F30988BFF36F8F704700BFAFF30080F9
:100BB000602F012008B54FF0500383F31188BFF375
:100BC0006F8FBFF34F8F02F097F800F095FE58B18A
:100BD00002F0CAF84FF0E0234FF08052C3F8042D22
:100BE000002383F3118808BD02F0AAF8F8E700009B
:100BF0004FF0E022002313619361054B1B68054908
:100C0000A1FB03139B08013B53610723136170474A
:100C100014000020CDCCCCCC4FF0E023D3F8002D35
:100C20003D4B9A421CD04FF0E023D3F8002D3B4BB4
:100C30009A421ED030B583B0394B1A78D2B20192A5
:100C4000FF221A701B78DBB28DF803309DF8033059
:100C500003F05003334A1370334B07221A601BE032
:100C60004FF0500383F31188BFF36F8FBFF34F8FA3
:100C7000FEE74FF0500383F31188BFF36F8FBFF38C
:100C80004F8FFEE7284A1368013B13609DF803303D
:100C90005B00DBB28DF803309DF8033013F0800F5A
:100CA000F0D1214B1B68032B08D04FF0500383F386
:100CB0001188BFF36F8FBFF34F8FFEE71B021A4AF5
:100CC000136003F4E0631360019BDBB2144A1370FA
:100CD0004FF0E024D4F8203D43F47003C4F8203DE5
:100CE000D4F8203D43F07043C4F8203DFFF780FF67
:100CF00000250E4B1D60FFF7B9FED4F8343F43F0DA
:100D00004043C4F8343FFFF79DFE00F05BFFFFF760
:100D100079FE284603B030BD71C20F4170C20F4149
:100D200000E400E000020020FC0100201800002088
:100D3000EFF305830F2B0FD9114A9B5CDBB2114AED
:100D400012789A4208D94FF0500383F31188BFF309
:100D50006F8FBFF34F8FFEE74FF0E023D3F80C3DCA
:100D600003F4E063084A1268934208D94FF0500335
:100D700083F31188BFF36F8FBFF34F8FFEE7704788
:100D8000F0E300E000020020FC010020104A12F015
:100D9000070F1AD0D11D21F00701C1F59633134476
:100DA0000A460C480260002141601344083B23F0CE
:100DB00007030948036059601960991A516013606C
:100DC000064B1960064B196070474FF49633E8E7FD
:100DD0002002002018020020140200200C02002033
:100DE00010020020164B1A461B688342FBD3516841
:100DF00002EB010C844509D0416800EB010C63450E
:100E000009D00360904219D01060704740680144D7
:100E100051601046F0E710B40A4C2468A3420BD08E
:100E20005B681944416013681B680360904200D0FE
:100E300010605DF8044B70470460F7E7704700BF2F
:100E4000180200201402002070B5054600F03EFD97
:100E5000354B1B685BB175B105F00703C3F1100298
:100E6000113BAB4206D3AD1805D5002647E0FFF78E
:100E70008DFFF0E70025002D40D02C4B1B68AB42C6
:100E80004BD32B4A146801E022461C466368AB42F0
:100E900002D22368002BF7D1234B1B68A3423ED01C
:100EA000166808362368136063685B1B102B10D923
:100EB000601910F0070F08D04FF0500383F311882A
:100EC000BFF36F8FBFF34F8FFEE743606560FFF79F
:100ED00089FF626815490B689B1A0B601549096800
:100EE0008B4201D213490B6042F000426260002342
:100EF0002360114A13680133136000E0002600F0FC
:100F0000B7FD16F0070F0CD04FF0500383F3118894
:100F1000BFF36F8FBFF34F8FFEE70026EFE700268A
:100F2000EDE7304670BD00BF140200201002002023
:100F3000180200200C02002008020020A8B338B5D7
:100F40000446A0F1080550F8043C002B08DB4FF0E4
:100F5000500383F31188BFF36F8FBFF34F8FFEE70A
:100F600050F8082C42B14FF0500383F31188BFF3BF
:100F70006F8FBFF34F8FFEE7002B00DB38BD23F0F0
:100F8000004340F8043C00F0A1FC54F8041C074A5C
:100F900013680B4413602846FFF724FF044A1368C4
:100FA0000133136000F064FDE8E770471002002091
:100FB0000402002000F1080343604FF0FF3282601A
:100FC000C36003610023036070470023036170471F
:100FD00030B40D68B5F1FF3F11D000F108031C4695
:100FE0005B681A68AA42FAD963684B6099608C60A2
:100FF0006160086103680133036030BC70470469B5
:10100000F2E70369416882688A60416851605A6802
:10101000824206D0002202611A68013A1A601868FA
:10102000704782685A60F5E710B50446FFF752FD35
:10103000A36B23B90124FFF76FFD204610BD0024E8
:10104000F9E70346026C6AB110B50846D968114445
:10105000D9609C68A14201D31968D960D96801F0B0
:10106000ACFF10BD704738B50546FFF733FD95F866
:10107000454064B201E0013C64B2002C0ADD6B6AB9
:1010800043B105F1240000F03DFE0028F3D000F04C
:1010900003FFF0E7FF2385F84530FFF73DFDFFF73D
:1010A00019FD95F8444064B201E0013C64B2002CA3
:1010B0000ADD2B6943B105F1100000F023FE002882
:1010C000F3D000F0E9FEF0E7FF2385F84430FFF7A6
:1010D00023FD38BD38B590B10D460446C36B2BB126
:1010E000026C0021A2FB032393B999B14FF0500386
:1010F00083F31188BFF36F8FBFF34F8FFEE74FF07D
:10110000500383F31188BFF36F8FBFF34F8FFEE758
:101110000121EAE7FFF7DEFC2368E26B216C01FBAB
:101120000230A0600020A0636360013A02FB01333B
:10113000E360FF2384F8443084F84530B5B923696F
:101140001BB9FFF7E9FC012038BD04F1100000F0E5
:10115000D9FD0028F5D04FF0E0234FF08052C3F8BE
:10116000042DBFF34F8FBFF36F8FEAE704F1100038
:10117000FFF720FF04F12400FFF71CFFE1E7F8B5BB
:1011800005461E46069C0F4679B92460E563276430
:1011900001212046FFF79EFF84F84C6033463A4613
:1011A0002946732001F050FCF8BD2260EEE7F0B54F
:1011B00083B060B10C46174605460023A4FB00121D
:1011C00072B923B904FB05F010F1510F0AD94FF0A1
:1011D000500383F31188BFF36F8FBFF34F8FFEE788
:1011E0000123EEE75030FFF72FFE064638B100909E
:1011F0003B4600F1500221462846FFF7C0FF30462B
:1012000003B0F0BDF0B587B0039290B10F4604462D
:10121000C1B100F047FE064600BB039B002B7CD00B
:101220004FF0500383F31188BFF36F8FBFF34F8FDD
:10123000FEE74FF0500383F31188BFF36F8FBFF3C6
:101240004F8FFEE7036C002BE3D04FF0500383F386
:101250001188BFF36F8FBFF34F8FFEE700265CE06E
:1012600039462046FFF7EDFE204601F017FA064604
:10127000002001F013FA024601230093039B31463C
:101280005C2001F01BFC013DA563236923B9FFF736
:1012900043FC012007B0F0BD04F1100000F032FD66
:1012A0000028F4D04FF0E0234FF08052C3F8042D13
:1012B000BFF34F8FBFF36F8FE9E7FFF72DFC204699
:1012C00001F0ECF90446002001F0E8F902460123A0
:1012D0000093039B21465C2001F0F0FB0020D9E73E
:1012E00004A800F089FD012621E0002384F84430A1
:1012F00029E0002384F845302BE02046FFF7B3FEB9
:1013000000F0B6FB09E02046FFF7ADFE00F0B0FBB1
:101310002046FFF789FE00283FD1FFF7DBFBA56BD6
:10132000002D9DD1039B002BC7D0002ED8D0FFF7F6
:10133000F3FB00F0CBFAFFF7CDFB94F844305BB23F
:10134000B3F1FF3FD1D094F845305BB2B3F1FF3F2A
:10135000CFD0FFF7E1FB03A904A800F059FD002856
:10136000D1D12046FFF760FE0028C6D0039904F1D2
:10137000240000F081FC2046FFF775FE00F078FBAA
:101380000028CAD14FF0E0234FF08052C3F8042D5B
:10139000BFF34F8FBFF36F8FBFE7204601F07EF999
:1013A0000446002001F07AF9024601230093039BD2
:1013B00021465C2001F082FB00206BE738B528B1A4
:1013C0000C46054669B300210B460BE04FF0500375
:1013D00083F31188BFF36F8FBFF34F8FFEE7614632
:1013E00015E00133072B11D80E4A02EBC30CDCF8D1
:1013F0000420AA42F3D00029F3D10A4A52F833203C
:10140000002AEED1074901EBC301EAE749B10C60BC
:101410004D60284601F042F901462246712001F054
:10142000D1FA38BD202E012070B504460D4616466F
:10143000FFF750FB94F844305BB2B3F1FF3F0DD09F
:1014400094F845305BB2B3F1FF3F0BD0FFF764FB7C
:10145000A36B5BB12046FFF706FE70BD002384F846
:101460004430EDE7002384F84530EFE73246294663
:1014700004F1240000F018FCECE70000074B1B68A7
:101480001B6823B9064B4FF0FF321A607047034BBD
:101490001B68DB681A68024B1A607047D02E012067
:1014A000682E012010B50446006BFFF747FD20466B
:1014B000FFF744FD10BD2DE9F84380460D46164662
:1014C0009946089F0A9C9200A521206BFEF7CAFE50
:1014D000226B06F18043013B02EB830222F00706F8
:1014E00065B10022092A06D8AB5CA11881F8343016
:1014F0000BB10132F6E7002384F83D30042F08D900
:101500004FF0500383F31188BFF36F8FBFF34F8FFA
:10151000FEE7E762A764201DFFF757FD04F11800FE
:10152000FFF753FD2461C7F10507A76164624A46CE
:1015300041463046FFF7A4FA2060099B03B11C60C6
:10154000BDE8F88338B5002407E004EB840293007B
:101550000E481844FFF72EFD0134042CF5D90C4D2C
:101560002846FFF727FD0B4C2046FFF723FD0A48CE
:10157000FFF720FD0948FFF71DFD0948FFF71AFD99
:10158000084B1D60084B1C6038BD00BFFC2E0120BD
:10159000E82E0120D42E0120B82E0120A42E0120F7
:1015A0008C2E0120D02E0120CC2E012010B582B02F
:1015B0000446FFF78FFA324A136801331360314B48
:1015C0001B685BB1304B1B686BB92E4B1B68DA6A2A
:1015D000E36A9A4207D82B4B1C6004E0294B1C603D
:1015E0001368012B49D0294A13680133136023641F
:1015F00064B1204601F0E0FB236B2268D21A00920E
:10160000E26A04F13401204600F044FE204601F075
:101610001BFCE36A01229A401D49086802430A60E4
:101620001C4A03EB830302EB83035B68A3609868A7
:10163000E060211D41609960E36A03EB830188004B
:1016400002EB81016161115801311150FFF764FA19
:101650000D4B1B687BB10B4B1B68DA6AE36A9A423D
:1016600009D24FF0E0234FF08052C3F8042DBFF3AE
:101670004F8FBFF36F8F02B010BDFFF763FFB2E76C
:10168000882E0120602F01207C2E01206C2E01204D
:10169000802E0120FC2E01200F4B1B68D3B110B50A
:1016A000FFF718FA0D4BDB68DC68201DFFF7A9FC7B
:1016B0000B4A1368013B1360074A1368013B136030
:1016C000FFF72AFA2046FFF7EDFE034B1B68002BBD
:1016D000E6D110BD704700BFA02E0120A42E01202E
:1016E000882E012008B5FFF7D7FF074B1B68012B99
:1016F000F9D94FF0E0234FF08052C3F8042DBFF327
:101700004F8FBFF36F8FEEE7FC2E012070B50446BC
:101710000D46234B1E68234B18680430FFF771FCFD
:1017200048B9204B1B68DB6A01229A401E490B68AE
:1017300023EA02030B60B4F1FF3F0DD03444194B90
:101740001B685C60A6421DD9184B1868154B1968B8
:101750000431FFF73DFC70BD002DEFD0144A5168F5
:10176000104B1868816018688C68C4601868043071
:1017700060601868043088601B685A611368013320
:101780001360E8E70B4B1868064B19680431FFF744
:101790001FFC094B1B68A342DDD9074B1C60DAE72D
:1017A000842E0120602F0120802E0120CC2E0120CC
:1017B0008C2E0120D02E0120682E01202DE9F0432F
:1017C00085B00746884614461E469000FFF73CFB4E
:1017D00018B381465820FFF737FB0546B8B15822A9
:1017E0000021FEF73FFDC5F83090002303930295DA
:1017F0000D9B01930C9B009333462246414638468D
:10180000FFF759FE2846FFF7D1FE012007E04846C2
:10181000FFF794FB4FF0FF3001E04FF0FF3005B0D1
:10182000BDE8F08300B583B0204B01930023009303
:1018300082221F491F48FFF7C1FF012807D0B0F1DE
:10184000FF3F2AD01C4B1B6803B05DF804FB00F07F
:10185000BBFC0128F3D14FF0500383F31188BFF391
:101860006F8FBFF34F8F154B4FF0FF321A60144B41
:1018700001221A60134B00221A60134B1A680B4B9B
:101880001B689A4206D0104B186801F0B9FAFFF7AE
:10189000C3F9D7E701F07CFAF9E74FF0500383F37F
:1018A0001188BFF36F8FBFF34F8FFEE7642E0120C7
:1018B00090300008E51600081C000020682E01206A
:1018C0007C2E0120842E0120602F0120024A136803
:1018D00001331360704700BF602E0120014B186870
:1018E000704700BF842E012008B5FFF721FA014B95
:1018F000186808BD842E0120F8B5524B1B68002BD8
:1019000040F09980504B1D6801351D60C5B94F4BA3
:101910001B681B6843B14FF0500383F31188BFF37A
:101920006F8FBFF34F8FFEE7484A1168484B186826
:1019300010601960474A136801331360FFF79EFD7A
:10194000454B1B68AB4211D90026444B1B68DB6A30
:1019500003EB83039A00424B9B58012B00D90126CD
:10196000404B1B68002B6BD0012669E0002637E056
:10197000394B4FF0FF321A60E7E7374A1360E4E76C
:10198000E2685A6042E00022A2621A68013A1A60D4
:10199000204601F059FAE36A01229A403249086868
:1019A00002430A602E4A03EB8303990011444B68FB
:1019B000A3609968E1604F609F60E36A03EB830076
:1019C0008100881860615158013103EB830398004E
:1019D0001150E26A214B1B68DB6A9A4200D901264A
:1019E0001A4B1B681B68002BC2D0184B1B68DB68A6
:1019F000DC6863689D42C0D36369A168E2688A605D
:101A0000A16851605A68271DBA42B9D000226261AC
:101A10001A68013A1A60A36A002BB9D0E169226AF8
:101A20008A60E1695160596804F118029142AAD1B3
:101A3000226A5A60A7E70D4A136801331360002633
:101A40003046F8BD602E0120842E0120D02E0120CA
:101A5000CC2E0120702E0120682E0120602F012045
:101A6000FC2E0120742E0120802E0120782E0120D2
:101A700038B54C4B1B6843B94FF0500383F31188C2
:101A8000BFF36F8FBFF34F8FFEE7FFF723F8454B90
:101A90001A68013A1A601B68002B7DD1424B1B6803
:101AA0003BB9002479E0226A5A6015E0E2685A6086
:101AB00021E000243D4B1B68002B4AD03B4BDB68E8
:101AC000DC68A36AE169226A8A60E1695160596849
:101AD00004F118029142E6D00022A2621A68013A8B
:101AE0001A606369A168E2688A60A16851605A68F7
:101AF000251DAA42DAD0002262611A68013A1A60F2
:101B0000204601F0A1F9E36A01229A4028490868B9
:101B100002430A60274A03EB830302EB83035B68FB
:101B2000A3609968E1604D609D60E36A03EB830107
:101B3000880002EB81016161115801311150E26AA4
:101B40001D4B1B68DB6A9A42B4D31C4B01221A60FE
:101B5000B0E70CB1FFF792FC194B1C6884B9174B26
:101B60001C68D4B14FF0E0234FF08052C3F8042D2D
:101B7000BFF34F8FBFF36F8F01240EE0013C07D0FE
:101B8000FFF7BAFE0028F9D00C4B01221A60F5E7E6
:101B90000B4B00221A60E2E70024FEF7BDFF20464F
:101BA00038BD00BF602E0120882E0120B82E0120F4
:101BB000802E0120FC2E0120602F0120742E012098
:101BC000782E012008B5264B1B681BB1254B01223E
:101BD0001A6008BD234B00221A60234B1B68B3FA1E
:101BE00083F3DBB2C3F11F0303EB83018A001F49B8
:101BF0008A5842B94FF0500383F31188BFF36F8FB7
:101C0000BFF34F8FFEE7194803EB83018A000244BC
:101C100051684968516003EB830C4FEA8C0208322B
:101C20000244914212D003EB83039A000F4B1344FA
:101C30005B68DA680E4B1A601A680E4B1B689A4292
:101C40000BD00B4B186801F0DBF8C2E7486862461E
:101C50009100064A0A445060E5E701F099F8B8E7B8
:101C6000602E0120742E0120802E0120FC2E0120E8
:101C7000602F0120642E012058B110B50C46094A8E
:101C800011681831FFF7A4F901212046FFF73EFD46
:101C900010BD4FF0500383F31188BFF36F8FBFF374
:101CA0004F8FFEE7602F012000B370B50D4614463C
:101CB00002464168124B1868C16118688E68066256
:101CC0001868183070601868183088601B689A624D
:101CD0001368013313600CB14FF0FF35242000F07E
:101CE0003DFE21462846FFF711FD70BD4FF0500321
:101CF00083F31188BFF36F8FBFF34F8FFEE700BFF1
:101D0000602F012038B5C368DC68002C4BD0A36A73
:101D1000E169226A8A60E16951605A6804F1180138
:101D20008A4249D00022A2621A68013A1A602C4BFA
:101D30001B68002B46D16369A168E2688A60A168CC
:101D400051605A68251DAA4239D0002262611A6882
:101D5000013A1A60204601F077F8E36A01229A40BE
:101D60002049086802430A601F4A03EB830302EB21
:101D700083035B68A3609968E1604D609D60E36ADE
:101D800003EB8301880002EB81016161115801318D
:101D90001150E26A154B1B68DB6A9A421ED901207A
:101DA000134B186038BD4FF0500383F31188BFF315
:101DB0006F8FBFF34F8FFEE7226A5A60B2E7E26887
:101DC0005A60C2E70B4B5A68E2619068206241603A
:101DD0009160A3621A6801321A60DAE70020E1E735
:101DE000602E0120802E0120FC2E0120602F01207A
:101DF000742E0120B82E0120034B1B680360034B97
:101E00001B684360704700BF702E0120842E0120A4
:101E1000F8B5B8B10C460546E9B1FEF75BFE1C4BC0
:101E200019686B68C81A2268B2F1FF3F2AD0194EB0
:101E300036682F68B74217D08B4215D8002323602D
:101E4000012420E04FF0500383F31188BFF36F8F1C
:101E5000BFF34F8FFEE74FF0500383F31188BFF3BA
:101E60006F8FBFF34F8FFEE7824203D800232360BA
:101E7000012408E05B1A134423602846FFF7BCFFE7
:101E8000002400E00024FEF747FE2046F8BD00BF16
:101E9000842E0120702E0120014B01221A60704710
:101EA000742E0120054B1B6833B1054B1B680BB129
:101EB0000020704702207047012070477C2E0120CF
:101EC000602E0120064B1A6813682BB901230360AA
:101ED00023B9D368186870470023F8E700207047DB
:101EE000742F012008B54160006191420CD8D21ACC
:101EF00083699A4201D3012008BD011D094B18686E
:101F0000FFF766F80020F7E79A4201D2994206D21D
:101F1000011D054B1868FFF75BF80020ECE7012076
:101F2000EAE700BF702F0120742F012070B504462E
:101F30000D46164604E0A3691D44236A20469847CF
:101F4000A1692B46324629442046FFF7CBFF0028E3
:101F5000F1D170BD70B505460E460D4B1B68DB68B0
:101F6000DC68201DFFF74DF894F8283013F0040FBB
:101F700007D123F0010384F82830236A20469847CC
:101F800070BD324629462046FFF7D0FFF5E700BF77
:101F9000742F012008B505E0DB684FF0FF311868A9
:101FA000FFF7D8FF054B1B681A68002AF4D1044AD2
:101FB000106802490860136008BD00BF742F01203B
:101FC000702F012038B50546FFF788FC0446074B03
:101FD0001B68834205D800232B60044B1C602046FD
:101FE00038BDFFF7D7FF01232B60F6E7642F0120F0
:101FF00070B582B006460C46FFF768FC01A8FFF7F3
:10200000E1FF019B33BB0546E4B9B04213D222463F
:10201000711B124B1868FFF707FAFFF729FDD8B9B3
:102020004FF0E0234FF08052C3F8042DBFF34F8FE1
:10203000BFF36F8F10E0FFF71BFD29463046FFF717
:1020400089FF09E0064A126812680AB90124DEE72E
:102050001C46DCE7FFF70CFD02B070BD6C2F0120C1
:10206000702F012030B585B0002201A9384B1868C7
:10207000FFF7C8F8002869D0019B002BF4DB039C14
:10208000636913B1201DFEF7BCFF6846FFF79AFF96
:102090000546019B013B082BE6D8DFE803F0050568
:1020A000293049050529300094F8283043F0010310
:1020B00084F82830029BA169024619442046FFF7A4
:1020C00011FF0028D0D094F8283013F0040F07D166
:1020D00023F0010384F82830236A20469847C3E799
:1020E000A3692A46029919442046FFF71FFFF3E728
:1020F00094F8283023F0010384F82830B4E794F8EA
:10210000283043F0010384F828300299A16131B1ED
:102110000346024601442046FFF7E4FEA4E74FF0E1
:10212000500383F31188BFF36F8FBFF34F8FFEE728
:1021300094F8283013F0020F04D023F0010384F840
:10214000283091E72046FEF7F9FE8DE705B030BD57
:102150006C2F012000B583B001A8FFF7B3FE0199F1
:10216000FFF746FFFFF77EFFF6E7000038B5FEF702
:10217000B1FC0F4B1B6813B1FEF7CEFC38BD0D4D03
:102180002846FEF717FF0C4C2046FEF713FF0B4BBB
:102190001D600B4B1C6000220C210A20FFF707F882
:1021A000034B18600028E7D00649FFF707F9E3E77B
:1021B0006C2F01208C2F0120782F0120742F0120FB
:1021C000702F01209830000800B583B0FFF7CEFFD4
:1021D0000D4B1B685BB10D4B019302230093002351
:1021E0004FF482720A490B48FFF7E8FA40B94FF002
:1021F000500383F31188BFF36F8FBFF34F8FFEE758
:1022000003B05DF804FB00BF6C2F0120682F012094
:10221000A03000085521000808B5034800F052FD21
:10222000024800F04FFD08BDA8300008EC3000085F
:1022300008B5064B1868064B064A014600F0E8F957
:102240004FF0805000F01AFA08BD00BF14000020C3
:10225000192200084C31000808B5FFF745FB024978
:10226000A0FB010108BD00BF400D030010B586B002
:102270000024019402940394049405940190029123
:1022800003920493089B059301A800F0B9FC06B0E3
:1022900010BD0000F0B583B005460C4616461F463B
:1022A00005221349204600F078FED0B1114B1A6880
:1022B000072A18D8104B02EB820003EB800143F889
:1022C00020504C608E60CF60089B0B610132094B3F
:1022D0001A60089B00933B46324621462846FFF78A
:1022E000C5FF03B0F0BD054800F00EFEF9E700BFE2
:1022F00090300008A02F0120A42F0120FC300008FE
:1023000030B583B000240DE0094D04EB8403980040
:1023100029180B690093CB688A6849682858FFF729
:10232000A5FF0134034B1B68A342EDD803B030BDB9
:10233000A42F0120A02F0120154B03221A615A61FE
:1023400014499961144ADA614FF480621A620022DA
:102350009A625A62DA6219661049596610219966C2
:102360001A67DA665A670E4A1068C3F80700BFF3A7
:102370005F8F0C4A92E8030018609980090C9971EC
:10238000BFF35F8F20229A71BFF35F8F704700BF4A
:1023900054340120543100085430012044300120CD
:1023A00060310008643100082DE9F0470446884692
:1023B0009146244B1B78C3B104EB4402214B03EB41
:1023C000C2031F6FDD6EAF4212D80026ED1B4D45D4
:1023D00028BF4D463DBB2EB104EB4404194B03EB23
:1023E000C4031F673046BDE8F087FFF7A5FFE3E7AA
:1023F0001346144A02EBC30ADAF86860F61B4E452E
:1024000028BF4E46DAF8641032463944404600F0A0
:10241000D4FDB044A9EB06093744DAF86830BB4272
:10242000D4D10027D2E704EB4402064B03EBC203EE
:10243000596E2A463944404600F0BFFD2E442F44D1
:10244000C9E700BF54340120F8B507460E461546CB
:102450001C461F4B1B78002B34D0EFF311824FF03A
:10246000200181F31188002000F1010C0CEB4C0CD1
:10247000174B03EBCC0CDCF8043023B10130144BC8
:102480001B698342F0DC124B1B6983421DDD104B3C
:10249000411C01EB410C4FEACC0C43F80C7001EBF2
:1024A000410103EBC1014E6000EB400103EBC103AE
:1024B0001D62002199625962DC62BFF35F8F82F373
:1024C0001188F8BDFFF738FFC7E74FF0FF30F6E798
:1024D000543401202DE9F0410446884617461E4633
:1024E000184B1B7843B3174B5B69A34227D9EFF313
:1024F00011804FF0200181F311887CB104EB44037B
:10250000104D05EBC30CCCF86080CCF86470CCF8AF
:1025100068600023CCF87030CCF86C3004EB4404D5
:10252000084B03EBC403069A5A67BFF35F8F80F32F
:1025300011880020BDE8F081FFF7FEFED3E74FF0E1
:10254000FF30F7E75434012010B48446002300E044
:102550000133CC5C002CFBD1934200D81A46FE2AF2
:1025600004D8604600F8012B00230FE0FF238CF80D
:1025700000308CF80120130A0CF103008CF80230B3
:10258000F2E711F8014B00F8014B01339342F8D305
:102590005DF8044B704704307047000010B584B0FC
:1025A00001238DF80430184B5B690DF1050204E03E
:1025B00063F07F0102F8011BDB097F2BF8D802F8DA
:1025C000013B124B5C68104BDB68E31A04E063F0DC
:1025D0007F0102F8011BDB097F2BF8D802F8013BD1
:1025E00001A9521A084B5878FDF7F2FD30B1064B9D
:1025F000DC601A78013A1A7004B010BD024A5369BF
:1026000001335361F8E700BFE4350120001000E01A
:102610002DE9F04782B007460E4690461D46DFF88A
:10262000589000234FF480520F494846FFF70CFFA3
:10263000C0B20E4C607020764FF0000ACDF800A0BA
:1026400008230B4A4946FFF745FFC4F810A0094B81
:102650005B68E360C4F820806760A660656284F808
:1026600000A002B0BDE8F08714360120E435012057
:102670000C360120001000E06C310008014B18619D
:10268000704700BFE435012008B5034B1B6A13B146
:102690005B6803B1984708BDE4350120014B1B6915
:1026A000C01A7047E435012010B5064B1C6824B9E8
:1026B00010BD98472469002CFAD0E368002BF8D1AC
:1026C000F8E700BFE035012010B5EFF311844FF0BB
:1026D000200181F311880B48FFF75DFF0A4B1B783F
:1026E000014604E063F07F0201F8012BDB097F2B38
:1026F000F8D801F8013B1B2200F0B2F884F31188EE
:1027000010BD00BFFC340120DF35012038B5294D54
:1027100001232B70EFF311844FF0200181F3118816
:102720000A2225496878FDF753FD84F311880A20B1
:1027300000F014F9EFF311844FF0200181F31188B8
:102740001E48FFF728FF6A68034604E062F07F0135
:1027500003F8011BD2097F2AF8D803F8012B154A88
:10276000926804E062F07F0103F8011BD2097F2A1E
:10277000F8D803F8012B0F4A126904E062F07F01D8
:1027800003F8011BD2097F2AF8D8194601F8022B59
:1027900000225A70182200F063F884F31188054B68
:1027A0005B6A03B1984700F037F9FFF76DFFFFF759
:1027B0008BFF38BDE435012074310008FC34012062
:1027C00000B583B001220DF10701244B187EFFF7FD
:1027D000EBFD002822DD9DF80730072B0AD85AB2FE
:1027E0008AB35A1E062A2ED8DFE802F0161B1E21D5
:1027F00024272A007F2B11D0802B24D101220DF118
:102800000701164B187EFFF7CFFD002806DD9DF867
:10281000070000F03DFB01E0FFF778FF03B05DF833
:1028200004FB00F091F9F9E700F0F6F8F6E7FFF79E
:102830002BFFF3E700F0A4F9F0E7FFF745FFEDE722
:10284000FFF732FFEAE713F0800FE7D001220DF126
:102850000701024B187EFFF7A7FDDFE7E4350120F3
:1028600070B506460C461546394B1B78012B03D034
:10287000002B4CD0022B0DD01F2D12D8344BDB690E
:10288000EB4013F0010F42D1172D0AD8711E06F844
:10289000015C1BE0FFF782FE2D4B1B78012B36D12C
:1028A000EAE7A31B7F2B17D9DA0906F8012CB21E21
:1028B00063F07F0306F8023C7F2D11D9EB0902F883
:1028C000013C911E65F07F0502F8025C214B5D68BA
:1028D0001F4BDB68EB1A0EE0721E06F8013CEBE7BB
:1028E000511E02F8015CF1E7224663F07F0002F816
:1028F000010BDB0914467F2BF6D804F8013B621A62
:10290000134B5878FDF764FCA0B1114BDD60104B00
:102910001B7E114A03EB430102EBC101C96E03EBBD
:10292000430302EBC302136F994202D0084B9B781A
:102930002BB170BD064A137801331370E7E7044CDE
:102940000123A370FFF73CFF0023A370F1E700BF52
:10295000E4350120001000E05434012038B504466D
:10296000EFF311854FF0200181F311880448FFF740
:1029700012FE01462246FFF773FF85F3118838BD2A
:10298000FC34012070B506460C46EFF311854FF07C
:10299000200181F311880A48FFF7FDFD014604E09C
:1029A00064F07F0301F8013BE4097F2CF8D801F8BB
:1029B000014B3246FFF754FF85F3118870BD00BF0D
:1029C000FC340120F8B506460F461446EFF3118596
:1029D0004FF0200181F311880E48FFF7DCFD01461E
:1029E00004E067F07F0301F8013BFF097F2FF8D86F
:1029F00001F8017B04E064F07F0301F8013BE40986
:102A00007F2CF8D801F8014B3246FFF729FF85F3F8
:102A10001188F8BDFC34012008B5094B1B6A43B18D
:102A20001B6833B198470A4601460D20FFF7CAFFDD
:102A300008BD044B59680C20FFF7A4FFF8E700BF5E
:102A4000E4350120001000E02DE9F04106468846FB
:102A500017461C46EFF311854FF0200181F31188D2
:102A60001548FFF798FD014605E068F07F0301F87F
:102A7000013B4FEAD818B8F17F0FF6D801F8018B67
:102A800004E067F07F0301F8013BFF097F2FF8D8CE
:102A900001F8017B04E064F07F0301F8013BE409E5
:102AA0007F2CF8D801F8014B3246FFF7D9FE85F3A9
:102AB0001188BDE8F08100BFFC3401202DE9F84306
:102AC0000646894690461F46089CEFF311854FF055
:102AD000200181F311881B48FFF75DFD014605E0E9
:102AE00069F07F0301F8013B4FEAD919B9F17F0F73
:102AF000F6D801F8019B05E068F07F0301F8013B7F
:102B00004FEAD818B8F17F0FF6D801F8018B04E02E
:102B100067F07F0301F8013BFF097F2FF8D801F828
:102B2000017B04E064F07F0301F8013BE4097F2CA2
:102B3000F8D801F8014B3246FFF792FE85F3118871
:102B4000BDE8F883FC34012010B5EFF311844FF099
:102B5000200181F311880848FFF71DFD074B1B7802
:102B600013B984F3118810BD0B220146FFF778FEDC
:102B7000024B00221A70F4E7FC340120E4350120F6
:102B800010B5EFF311844FF0200181F311881A483A
:102B9000FFF701FD194B5A68034604E062F07F011C
:102BA00003F8011BD2097F2AF8D803F8012B134A36
:102BB000926804E062F07F0103F8011BD2097F2ACA
:102BC000F8D803F8012B0D4A126904E062F07F0186
:102BD00003F8011BD2097F2AF8D8194601F8022B05
:102BE00000225A701822FFF73BFE84F31188034B32
:102BF0005B6A03B1984710BDFC340120E435012025
:102C000070B50646EFF311854FF0200181F311886E
:102C10002A48FFF7C0FC04463368294A12699B1A08
:102C200004E063F07F0200F8012BDB097F2BF8D86A
:102C300000F8013BB36804E063F07F0200F8012B69
:102C4000DB097F2BF8D800F8013B20227168FFF7E1
:102C50007BFC014609222046FFF702FE3268184B32
:102C60001B69D21A234604E062F07F0103F8011BBE
:102C7000D2097F2AF8D803F8012BF26804E062F049
:102C80007F0103F8011BD2097F2AF8D803F8012B32
:102C9000326904E062F07F0103F8011BD2097F2A48
:102CA000F8D8194601F8022B00225A701522204646
:102CB000FFF7D6FD85F3118870BD00BFFC340120FD
:102CC000E435012070B50546EFF311864FF0200181
:102CD00081F311880748FFF75EFC044680222946ED
:102CE000FFF732FC01460E222046FFF7B9FD86F3BE
:102CF000118870BDFC34012010B5EFF311844FF042
:102D0000200181F311880D48FFF745FC4FF0E023C7
:102D1000D3F8043DC3F30803014604E063F07F02E7
:102D200001F8012BDB097F2BF8D801F8013B0222C7
:102D3000FFF796FD84F3118810BD00BFFC3401201D
:102D400010B5EFF311844FF0200181F3118805488D
:102D5000FFF721FC01460322FFF782FD84F311886F
:102D600010BD00BFFC34012010B5EFF311844FF00B
:102D7000200181F311880548FFF70DFC014612225E
:102D8000FFF76EFD84F3118810BD00BFFC340120F5
:102D900010B5EFF311844FF0200181F3118805483D
:102DA000FFF7F9FB01461122FFF75AFD84F3118862
:102DB00010BD00BFFC34012038B50446EFF3118587
:102DC0004FF0200181F311880B48FFF7E4FB0B4B18
:102DD0001B69E31A014604E063F07F0201F8012B4E
:102DE000DB097F2BF8D801F8013B0822FFF738FDFB
:102DF00085F3118838BD00BFFC340120E435012083
:102E000038B50446EFF311854FF0200181F31188A6
:102E10000B48FFF7C0FB0B4B1B69E31A014604E0AC
:102E200063F07F0201F8012BDB097F2BF8D801F852
:102E3000013B0422FFF714FD85F3118838BD00BF64
:102E4000FC340120E435012038B50446EFF3118548
:102E50004FF0200181F311880B48FFF79CFB0B4BCF
:102E60001B69E31A014604E063F07F0201F8012BBD
:102E7000DB097F2BF8D801F8013B0622FFF7F0FCB5
:102E800085F3118838BD00BFFC340120E4350120F2
:102E9000F8B51B4B1C6894B300230746984203D92E
:102EA00024690CB10133F8E74CB3EFF311864FF00E
:102EB000200181F311881348FFF76DFB054604E0FC
:102EC00067F07F0300F8013BFF097F2FF8D800F877
:102ED000017BA36804E063F07F0200F8012BDB09AB
:102EE0007F2BF8D800F8013B80222168FFF72CFBEC
:102EF000014616222846FFF7B3FC86F31188F8BD79
:102F0000E0350120FC34012070B50546EFF3118651
:102F10004FF0200181F311880A48FFF73CFB04467B
:102F200080222946FFF710FB0146012301F8023BEE
:102F3000002343701A222046FFF792FC86F3118883
:102F400070BD00BFFC3401200D488546AFF3008002
:102F50000C480D490D4A002302E0D458C4500433F4
:102F6000C4188C42F9D30A4A0A4C002301E01360CA
:102F70000432A242FBD3FDF77DF9FDF73FFCFEE7EB
:102F80000000022000000020200000208C310008FA
:102F90002000002014460120FEE710B5013902444C
:102FA000904201D1002005E0037811F8014FA342BF
:102FB00001D0181B10BD0130F2E70A44914200F124
:102FC000FF3300D1704710B511F8014B03F8014FE2
:102FD0009142F9D110BD0000F8B500BFF8BC08BCA3
:102FE0009E467047F8B500BFF8BC08BC9E467047C7
:102FF00048656C6C6F20776F726C642066726F6DC1
:10300000205461736B2D31005461736B2D310000BE
:1030100048656C6C6F20776F726C642066726F6DA0
:10302000205461736B2D32005461736B2D3200009C
:1030300048656C6C6F20776F726C642066726F6D80
:10304000205461736B2D33005461736B2D3300007A
:1030500048656C6C6F20776F726C642066726F6D60
:10306000205461736B2D34005461736B2D34000058
:103070005461736B2D3500005461736B2D36000065
:103080005461736B2D3700005461736B2D38000051
:1030900049444C4500000000546D7251000000008E
:1030A000546D7220537663004E3D467265655254EE
:1030B0004F532048656C6C6F20576F726C642041D1
:1030C00070706C69636174696F6E2C443D53544D2C
:1030D0003332463430372D444953432D312C4F3D44
:1030E0004672656552544F53000000004923313544
:1030F0003D5379735469636B000000005359535476
:10310000454D564945573A20436F756C64206E6FA4
:1031100074207265636F7264207461736B20696ED2
:10312000666F726D6174696F6E2E204D6178696D86
:10313000756D206E756D626572206F6620746173A7
:103140006B7320726561636865642E005922000804
:10315000012300085465726D696E616C0000000007
:103160005254540053454747455200005379735613
:10317000696577000000000000000000000000000A
:08318000C1020008B5010008BE
:0431880091010008A9
:10318C003C000020003C024000380240001000408F
:10319C000100000000590001AAAAAAAA040000001C
:0400000508002F4977
:00000001FF
